{
  "_format": "hh-sol-artifact-1",
  "contractName": "SocialMedia",
  "sourceName": "contracts/SocialMedia.sol",
  "abi": [
    {
      "inputs": [],
      "stateMutability": "nonpayable",
      "type": "constructor"
    },
    {
      "anonymous": false,
      "inputs": [
        {
          "indexed": true,
          "internalType": "address",
          "name": "owner",
          "type": "address"
        },
        {
          "indexed": true,
          "internalType": "address",
          "name": "approved",
          "type": "address"
        },
        {
          "indexed": true,
          "internalType": "uint256",
          "name": "tokenId",
          "type": "uint256"
        }
      ],
      "name": "Approval",
      "type": "event"
    },
    {
      "anonymous": false,
      "inputs": [
        {
          "indexed": true,
          "internalType": "address",
          "name": "owner",
          "type": "address"
        },
        {
          "indexed": true,
          "internalType": "address",
          "name": "operator",
          "type": "address"
        },
        {
          "indexed": false,
          "internalType": "bool",
          "name": "approved",
          "type": "bool"
        }
      ],
      "name": "ApprovalForAll",
      "type": "event"
    },
    {
      "anonymous": false,
      "inputs": [
        {
          "indexed": true,
          "internalType": "address",
          "name": "from",
          "type": "address"
        },
        {
          "indexed": true,
          "internalType": "address",
          "name": "to",
          "type": "address"
        },
        {
          "indexed": true,
          "internalType": "uint256",
          "name": "tokenId",
          "type": "uint256"
        }
      ],
      "name": "Transfer",
      "type": "event"
    },
    {
      "inputs": [
        {
          "internalType": "address",
          "name": "to",
          "type": "address"
        },
        {
          "internalType": "uint256",
          "name": "tokenId",
          "type": "uint256"
        }
      ],
      "name": "approve",
      "outputs": [],
      "stateMutability": "nonpayable",
      "type": "function"
    },
    {
      "inputs": [
        {
          "internalType": "address",
          "name": "owner",
          "type": "address"
        }
      ],
      "name": "balanceOf",
      "outputs": [
        {
          "internalType": "uint256",
          "name": "",
          "type": "uint256"
        }
      ],
      "stateMutability": "view",
      "type": "function"
    },
    {
      "inputs": [
        {
          "internalType": "uint256",
          "name": "_postId",
          "type": "uint256"
        }
      ],
      "name": "dislike",
      "outputs": [],
      "stateMutability": "nonpayable",
      "type": "function"
    },
    {
      "inputs": [],
      "name": "getAllMintedPost",
      "outputs": [
        {
          "components": [
            {
              "internalType": "uint256",
              "name": "postId",
              "type": "uint256"
            },
            {
              "internalType": "string",
              "name": "content",
              "type": "string"
            },
            {
              "internalType": "uint256",
              "name": "date",
              "type": "uint256"
            },
            {
              "internalType": "address",
              "name": "owner",
              "type": "address"
            },
            {
              "internalType": "uint256",
              "name": "like",
              "type": "uint256"
            },
            {
              "internalType": "uint256",
              "name": "dislike",
              "type": "uint256"
            },
            {
              "internalType": "bool",
              "name": "isActive",
              "type": "bool"
            },
            {
              "internalType": "address[3]",
              "name": "likers",
              "type": "address[3]"
            },
            {
              "internalType": "address[3]",
              "name": "dislikers",
              "type": "address[3]"
            }
          ],
          "internalType": "struct SocialMedia.post[]",
          "name": "",
          "type": "tuple[]"
        }
      ],
      "stateMutability": "view",
      "type": "function"
    },
    {
      "inputs": [],
      "name": "getAllPost",
      "outputs": [
        {
          "components": [
            {
              "internalType": "uint256",
              "name": "postId",
              "type": "uint256"
            },
            {
              "internalType": "string",
              "name": "content",
              "type": "string"
            },
            {
              "internalType": "uint256",
              "name": "date",
              "type": "uint256"
            },
            {
              "internalType": "address",
              "name": "owner",
              "type": "address"
            },
            {
              "internalType": "uint256",
              "name": "like",
              "type": "uint256"
            },
            {
              "internalType": "uint256",
              "name": "dislike",
              "type": "uint256"
            },
            {
              "internalType": "bool",
              "name": "isActive",
              "type": "bool"
            },
            {
              "internalType": "address[3]",
              "name": "likers",
              "type": "address[3]"
            },
            {
              "internalType": "address[3]",
              "name": "dislikers",
              "type": "address[3]"
            }
          ],
          "internalType": "struct SocialMedia.post[]",
          "name": "",
          "type": "tuple[]"
        }
      ],
      "stateMutability": "view",
      "type": "function"
    },
    {
      "inputs": [
        {
          "internalType": "uint256",
          "name": "tokenId",
          "type": "uint256"
        }
      ],
      "name": "getApproved",
      "outputs": [
        {
          "internalType": "address",
          "name": "",
          "type": "address"
        }
      ],
      "stateMutability": "view",
      "type": "function"
    },
    {
      "inputs": [],
      "name": "getHiddenId",
      "outputs": [
        {
          "internalType": "uint256[]",
          "name": "",
          "type": "uint256[]"
        }
      ],
      "stateMutability": "view",
      "type": "function"
    },
    {
      "inputs": [
        {
          "internalType": "address",
          "name": "_user",
          "type": "address"
        }
      ],
      "name": "getUsername",
      "outputs": [
        {
          "internalType": "string",
          "name": "",
          "type": "string"
        }
      ],
      "stateMutability": "view",
      "type": "function"
    },
    {
      "inputs": [
        {
          "internalType": "uint256",
          "name": "_postId",
          "type": "uint256"
        }
      ],
      "name": "hideMinted",
      "outputs": [],
      "stateMutability": "nonpayable",
      "type": "function"
    },
    {
      "inputs": [
        {
          "internalType": "address",
          "name": "owner",
          "type": "address"
        },
        {
          "internalType": "address",
          "name": "operator",
          "type": "address"
        }
      ],
      "name": "isApprovedForAll",
      "outputs": [
        {
          "internalType": "bool",
          "name": "",
          "type": "bool"
        }
      ],
      "stateMutability": "view",
      "type": "function"
    },
    {
      "inputs": [],
      "name": "isRegistered",
      "outputs": [
        {
          "internalType": "bool",
          "name": "",
          "type": "bool"
        }
      ],
      "stateMutability": "view",
      "type": "function"
    },
    {
      "inputs": [
        {
          "internalType": "uint256",
          "name": "_postId",
          "type": "uint256"
        }
      ],
      "name": "like",
      "outputs": [],
      "stateMutability": "nonpayable",
      "type": "function"
    },
    {
      "inputs": [
        {
          "internalType": "uint256",
          "name": "_postId",
          "type": "uint256"
        }
      ],
      "name": "likeMinted",
      "outputs": [],
      "stateMutability": "nonpayable",
      "type": "function"
    },
    {
      "inputs": [
        {
          "internalType": "uint256",
          "name": "",
          "type": "uint256"
        }
      ],
      "name": "mintedId",
      "outputs": [
        {
          "internalType": "uint256",
          "name": "",
          "type": "uint256"
        }
      ],
      "stateMutability": "view",
      "type": "function"
    },
    {
      "inputs": [],
      "name": "name",
      "outputs": [
        {
          "internalType": "string",
          "name": "",
          "type": "string"
        }
      ],
      "stateMutability": "view",
      "type": "function"
    },
    {
      "inputs": [
        {
          "internalType": "uint256",
          "name": "tokenId",
          "type": "uint256"
        }
      ],
      "name": "ownerOf",
      "outputs": [
        {
          "internalType": "address",
          "name": "",
          "type": "address"
        }
      ],
      "stateMutability": "view",
      "type": "function"
    },
    {
      "inputs": [
        {
          "internalType": "uint256",
          "name": "",
          "type": "uint256"
        }
      ],
      "name": "posts",
      "outputs": [
        {
          "internalType": "uint256",
          "name": "postId",
          "type": "uint256"
        },
        {
          "internalType": "string",
          "name": "content",
          "type": "string"
        },
        {
          "internalType": "uint256",
          "name": "date",
          "type": "uint256"
        },
        {
          "internalType": "address",
          "name": "owner",
          "type": "address"
        },
        {
          "internalType": "uint256",
          "name": "like",
          "type": "uint256"
        },
        {
          "internalType": "uint256",
          "name": "dislike",
          "type": "uint256"
        },
        {
          "internalType": "bool",
          "name": "isActive",
          "type": "bool"
        }
      ],
      "stateMutability": "view",
      "type": "function"
    },
    {
      "inputs": [
        {
          "internalType": "string",
          "name": "_username",
          "type": "string"
        }
      ],
      "name": "register",
      "outputs": [],
      "stateMutability": "nonpayable",
      "type": "function"
    },
    {
      "inputs": [
        {
          "internalType": "address",
          "name": "from",
          "type": "address"
        },
        {
          "internalType": "address",
          "name": "to",
          "type": "address"
        },
        {
          "internalType": "uint256",
          "name": "tokenId",
          "type": "uint256"
        }
      ],
      "name": "safeTransferFrom",
      "outputs": [],
      "stateMutability": "nonpayable",
      "type": "function"
    },
    {
      "inputs": [
        {
          "internalType": "address",
          "name": "from",
          "type": "address"
        },
        {
          "internalType": "address",
          "name": "to",
          "type": "address"
        },
        {
          "internalType": "uint256",
          "name": "tokenId",
          "type": "uint256"
        },
        {
          "internalType": "bytes",
          "name": "_data",
          "type": "bytes"
        }
      ],
      "name": "safeTransferFrom",
      "outputs": [],
      "stateMutability": "nonpayable",
      "type": "function"
    },
    {
      "inputs": [
        {
          "internalType": "address",
          "name": "operator",
          "type": "address"
        },
        {
          "internalType": "bool",
          "name": "approved",
          "type": "bool"
        }
      ],
      "name": "setApprovalForAll",
      "outputs": [],
      "stateMutability": "nonpayable",
      "type": "function"
    },
    {
      "inputs": [
        {
          "internalType": "address",
          "name": "_contractAddress",
          "type": "address"
        }
      ],
      "name": "setTokenContractAddress",
      "outputs": [],
      "stateMutability": "nonpayable",
      "type": "function"
    },
    {
      "inputs": [
        {
          "internalType": "bytes4",
          "name": "interfaceId",
          "type": "bytes4"
        }
      ],
      "name": "supportsInterface",
      "outputs": [
        {
          "internalType": "bool",
          "name": "",
          "type": "bool"
        }
      ],
      "stateMutability": "view",
      "type": "function"
    },
    {
      "inputs": [],
      "name": "symbol",
      "outputs": [
        {
          "internalType": "string",
          "name": "",
          "type": "string"
        }
      ],
      "stateMutability": "view",
      "type": "function"
    },
    {
      "inputs": [
        {
          "internalType": "uint256",
          "name": "tokenId",
          "type": "uint256"
        }
      ],
      "name": "tokenURI",
      "outputs": [
        {
          "internalType": "string",
          "name": "",
          "type": "string"
        }
      ],
      "stateMutability": "view",
      "type": "function"
    },
    {
      "inputs": [
        {
          "internalType": "address",
          "name": "from",
          "type": "address"
        },
        {
          "internalType": "address",
          "name": "to",
          "type": "address"
        },
        {
          "internalType": "uint256",
          "name": "tokenId",
          "type": "uint256"
        }
      ],
      "name": "transferFrom",
      "outputs": [],
      "stateMutability": "nonpayable",
      "type": "function"
    },
    {
      "inputs": [
        {
          "internalType": "string",
          "name": "_content",
          "type": "string"
        }
      ],
      "name": "userPost",
      "outputs": [],
      "stateMutability": "nonpayable",
      "type": "function"
    },
    {
      "inputs": [
        {
          "internalType": "address",
          "name": "",
          "type": "address"
        }
      ],
      "name": "userProfile",
      "outputs": [
        {
          "internalType": "uint256",
          "name": "uid",
          "type": "uint256"
        },
        {
          "internalType": "string",
          "name": "username",
          "type": "string"
        },
        {
          "internalType": "bool",
          "name": "active",
          "type": "bool"
        },
        {
          "internalType": "uint256",
          "name": "hiddenCounter",
          "type": "uint256"
        }
      ],
      "stateMutability": "view",
      "type": "function"
    }
  ],
  "bytecode": "0x60806040523480156200001157600080fd5b506040518060400160405280600f81526020017f536f6369616c4d65646961506f737400000000000000000000000000000000008152506040518060400160405280600381526020017f534d50000000000000000000000000000000000000000000000000000000000081525081600090805190602001906200009692919062000111565b508060019080519060200190620000af92919062000111565b50505033600660006101000a81548173ffffffffffffffffffffffffffffffffffffffff021916908373ffffffffffffffffffffffffffffffffffffffff16021790555060006007819055506000600981905550600060088190555062000226565b8280546200011f90620001c1565b90600052602060002090601f0160209004810192826200014357600085556200018f565b82601f106200015e57805160ff19168380011785556200018f565b828001600101855582156200018f579182015b828111156200018e57825182559160200191906001019062000171565b5b5090506200019e9190620001a2565b5090565b5b80821115620001bd576000816000905550600101620001a3565b5090565b60006002820490506001821680620001da57607f821691505b60208210811415620001f157620001f0620001f7565b5b50919050565b7f4e487b7100000000000000000000000000000000000000000000000000000000600052602260045260246000fd5b6159f080620002366000396000f3fe608060405234801561001057600080fd5b50600436106101c45760003560e01c806395d89b41116100f9578063c87b56dd11610097578063da7d9d1011610071578063da7d9d1014610530578063e82935da1461054e578063e985e9c51461056a578063f2c298be1461059a576101c4565b8063c87b56dd146104b4578063ce43c032146104e4578063d067ec8a14610514576101c4565b8063a22cb465116100d3578063a22cb46514610444578063b23d485414610460578063b405f34f1461047c578063b88d4fde14610498576101c4565b806395d89b41146103d85780639b17d8d4146103f65780639e427a6a14610426576101c4565b806323b872dd11610166578063618f8bbb11610140578063618f8bbb146103405780636352211e1461035c57806370a082311461038c5780638037d194146103bc576101c4565b806323b872dd146102ea57806342842e0e1461030657806353c679a114610322576101c4565b8063095ea7b3116101a2578063095ea7b3146102475780630b1e7f83146102635780631c8e89621461029957806322366844146102cc576101c4565b806301ffc9a7146101c957806306fdde03146101f9578063081812fc14610217575b600080fd5b6101e360048036038101906101de9190614181565b6105b6565b6040516101f09190614ac6565b60405180910390f35b610201610698565b60405161020e9190614ae1565b60405180910390f35b610231600480360381019061022c9190614218565b61072a565b60405161023e9190614984565b60405180910390f35b610261600480360381019061025c919061411c565b6107af565b005b61027d60048036038101906102789190614218565b6108c7565b6040516102909796959493929190614e53565b60405180910390f35b6102b360048036038101906102ae9190613fb1565b6109be565b6040516102c39493929190614e07565b60405180910390f35b6102d4610a83565b6040516102e19190614ac6565b60405180910390f35b61030460048036038101906102ff9190614016565b610ada565b005b610320600480360381019061031b9190614016565b610b3a565b005b61032a610b5a565b6040516103379190614a82565b60405180910390f35b61035a60048036038101906103559190614218565b610e9b565b005b61037660048036038101906103719190614218565b611459565b6040516103839190614984565b60405180910390f35b6103a660048036038101906103a19190613fb1565b61150b565b6040516103b39190614dc3565b60405180910390f35b6103d660048036038101906103d191906141d3565b6115c3565b005b6103e0611894565b6040516103ed9190614ae1565b60405180910390f35b610410600480360381019061040b9190614218565b611926565b60405161041d9190614dc3565b60405180910390f35b61042e61193e565b60405161043b9190614aa4565b60405180910390f35b61045e600480360381019061045991906140e0565b611af6565b005b61047a60048036038101906104759190613fb1565b611b0c565b005b61049660048036038101906104919190614218565b611be0565b005b6104b260048036038101906104ad9190614065565b611f9b565b005b6104ce60048036038101906104c99190614218565b611ffd565b6040516104db9190614ae1565b60405180910390f35b6104fe60048036038101906104f99190613fb1565b6120a4565b60405161050b9190614ae1565b60405180910390f35b61052e60048036038101906105299190614218565b612178565b005b610538612360565b6040516105459190614a82565b60405180910390f35b61056860048036038101906105639190614218565b61268e565b005b610584600480360381019061057f9190613fda565b612c81565b6040516105919190614ac6565b60405180910390f35b6105b460048036038101906105af91906141d3565b612d15565b005b60007f80ac58cd000000000000000000000000000000000000000000000000000000007bffffffffffffffffffffffffffffffffffffffffffffffffffffffff1916827bffffffffffffffffffffffffffffffffffffffffffffffffffffffff1916148061068157507f5b5e139f000000000000000000000000000000000000000000000000000000007bffffffffffffffffffffffffffffffffffffffffffffffffffffffff1916827bffffffffffffffffffffffffffffffffffffffffffffffffffffffff1916145b80610691575061069082612e56565b5b9050919050565b6060600080546106a790615206565b80601f01602080910402602001604051908101604052809291908181526020018280546106d390615206565b80156107205780601f106106f557610100808354040283529160200191610720565b820191906000526020600020905b81548152906001019060200180831161070357829003601f168201915b5050505050905090565b600061073582612ec0565b610774576040517f08c379a000000000000000000000000000000000000000000000000000000000815260040161076b90614d03565b60405180910390fd5b6004600083815260200190815260200160002060009054906101000a900473ffffffffffffffffffffffffffffffffffffffff169050919050565b60006107ba82611459565b90508073ffffffffffffffffffffffffffffffffffffffff168373ffffffffffffffffffffffffffffffffffffffff16141561082b576040517f08c379a000000000000000000000000000000000000000000000000000000000815260040161082290614d63565b60405180910390fd5b8073ffffffffffffffffffffffffffffffffffffffff1661084a612f2c565b73ffffffffffffffffffffffffffffffffffffffff161480610879575061087881610873612f2c565b612c81565b5b6108b8576040517f08c379a00000000000000000000000000000000000000000000000000000000081526004016108af90614c63565b60405180910390fd5b6108c28383612f34565b505050565b600c6020528060005260406000206000915090508060000154908060010180546108f090615206565b80601f016020809104026020016040519081016040528092919081815260200182805461091c90615206565b80156109695780601f1061093e57610100808354040283529160200191610969565b820191906000526020600020905b81548152906001019060200180831161094c57829003601f168201915b5050505050908060020154908060030160009054906101000a900473ffffffffffffffffffffffffffffffffffffffff16908060040154908060050154908060060160009054906101000a900460ff16905087565b600b6020528060005260406000206000915090508060000154908060010180546109e790615206565b80601f0160208091040260200160405190810160405280929190818152602001828054610a1390615206565b8015610a605780601f10610a3557610100808354040283529160200191610a60565b820191906000526020600020905b815481529060010190602001808311610a4357829003601f168201915b5050505050908060020160009054906101000a900460ff16908060030154905084565b6000600b60003373ffffffffffffffffffffffffffffffffffffffff1673ffffffffffffffffffffffffffffffffffffffff16815260200190815260200160002060020160009054906101000a900460ff16905090565b610aeb610ae5612f2c565b82612fed565b610b2a576040517f08c379a0000000000000000000000000000000000000000000000000000000008152600401610b2190614d83565b60405180910390fd5b610b358383836130cb565b505050565b610b5583838360405180602001604052806000815250611f9b565b505050565b6060600060095467ffffffffffffffff811115610ba0577f4e487b7100000000000000000000000000000000000000000000000000000000600052604160045260246000fd5b604051908082528060200260200182016040528015610bd957816020015b610bc6613cb1565b815260200190600190039081610bbe5790505b50905060005b600954811015610e9357600c6000600d60008481526020019081526020016000205481526020019081526020016000206040518061012001604052908160008201548152602001600182018054610c3590615206565b80601f0160208091040260200160405190810160405280929190818152602001828054610c6190615206565b8015610cae5780601f10610c8357610100808354040283529160200191610cae565b820191906000526020600020905b815481529060010190602001808311610c9157829003601f168201915b50505050508152602001600282015481526020016003820160009054906101000a900473ffffffffffffffffffffffffffffffffffffffff1673ffffffffffffffffffffffffffffffffffffffff1673ffffffffffffffffffffffffffffffffffffffff16815260200160048201548152602001600582015481526020016006820160009054906101000a900460ff1615151515815260200160078201600380602002604051908101604052809291908260038015610db8576020028201915b8160009054906101000a900473ffffffffffffffffffffffffffffffffffffffff1673ffffffffffffffffffffffffffffffffffffffff1681526020019060010190808311610d6e575b50505050508152602001600a8201600380602002604051908101604052809291908260038015610e33576020028201915b8160009054906101000a900473ffffffffffffffffffffffffffffffffffffffff1673ffffffffffffffffffffffffffffffffffffffff1681526020019060010190808311610de9575b505050505081525050828281518110610e75577f4e487b7100000000000000000000000000000000000000000000000000000000600052603260045260246000fd5b60200260200101819052508080610e8b90615283565b915050610bdf565b508091505090565b600b60003373ffffffffffffffffffffffffffffffffffffffff1673ffffffffffffffffffffffffffffffffffffffff16815260200190815260200160002060020160009054906101000a900460ff16610f2a576040517f08c379a0000000000000000000000000000000000000000000000000000000008152600401610f2190614ba3565b60405180910390fd5b600c600082815260200190815260200160002060060160009054906101000a900460ff16610f8d576040517f08c379a0000000000000000000000000000000000000000000000000000000008152600401610f8490614da3565b60405180910390fd5b600b60003373ffffffffffffffffffffffffffffffffffffffff1673ffffffffffffffffffffffffffffffffffffffff168152602001908152602001600020600501600082815260200190815260200160002060009054906101000a900460ff161561102e576040517f08c379a000000000000000000000000000000000000000000000000000000000815260040161102590614cc3565b60405180910390fd5b68056bc75e2d63100000600a60009054906101000a900473ffffffffffffffffffffffffffffffffffffffff1673ffffffffffffffffffffffffffffffffffffffff166370a08231336040518263ffffffff1660e01b81526004016110939190614984565b60206040518083038186803b1580156110ab57600080fd5b505afa1580156110bf573d6000803e3d6000fd5b505050506040513d601f19601f820116820180604052508101906110e39190614241565b1015611124576040517f08c379a000000000000000000000000000000000000000000000000000000000815260040161111b90614b23565b60405180910390fd5b600a60009054906101000a900473ffffffffffffffffffffffffffffffffffffffff1673ffffffffffffffffffffffffffffffffffffffff166323b872dd3330670de0b6b3a76400006040518463ffffffff1660e01b815260040161118b9392919061499f565b602060405180830381600087803b1580156111a557600080fd5b505af11580156111b9573d6000803e3d6000fd5b505050506040513d601f19601f820116820180604052508101906111dd9190614158565b5033600c6000838152602001908152602001600020600a01600c60008481526020019081526020016000206005015460038110611243577f4e487b7100000000000000000000000000000000000000000000000000000000600052603260045260246000fd5b0160006101000a81548173ffffffffffffffffffffffffffffffffffffffff021916908373ffffffffffffffffffffffffffffffffffffffff1602179055506001600c600083815260200190815260200160002060050160008282546112a9919061503f565b925050819055506001600b60003373ffffffffffffffffffffffffffffffffffffffff1673ffffffffffffffffffffffffffffffffffffffff168152602001908152602001600020600501600083815260200190815260200160002060006101000a81548160ff0219169083151502179055506003600c60008381526020019081526020016000206005015410611456576000600c600083815260200190815260200160002060060160006101000a81548160ff02191690831515021790555060405180602001604052806000815250600c600083815260200190815260200160002060010190805190602001906113a2929190613d21565b50600067016345785d8a00009050600a60009054906101000a900473ffffffffffffffffffffffffffffffffffffffff1673ffffffffffffffffffffffffffffffffffffffff16633b528a4882600c6000868152602001908152602001600020600a016040518363ffffffff1660e01b8152600401611422929190614dde565b600060405180830381600087803b15801561143c57600080fd5b505af1158015611450573d6000803e3d6000fd5b50505050505b50565b6000806002600084815260200190815260200160002060009054906101000a900473ffffffffffffffffffffffffffffffffffffffff169050600073ffffffffffffffffffffffffffffffffffffffff168173ffffffffffffffffffffffffffffffffffffffff161415611502576040517f08c379a00000000000000000000000000000000000000000000000000000000081526004016114f990614ca3565b60405180910390fd5b80915050919050565b60008073ffffffffffffffffffffffffffffffffffffffff168273ffffffffffffffffffffffffffffffffffffffff16141561157c576040517f08c379a000000000000000000000000000000000000000000000000000000000815260040161157390614c83565b60405180910390fd5b600360008373ffffffffffffffffffffffffffffffffffffffff1673ffffffffffffffffffffffffffffffffffffffff168152602001908152602001600020549050919050565b600b60003373ffffffffffffffffffffffffffffffffffffffff1673ffffffffffffffffffffffffffffffffffffffff16815260200190815260200160002060020160009054906101000a900460ff16611652576040517f08c379a000000000000000000000000000000000000000000000000000000000815260040161164990614ba3565b60405180910390fd5b60a06116a183838080601f016020809104026020016040519081016040528093929190818152602001838380828437600081840152601f19601f82011690508083019250505050505050613332565b11156116e2576040517f08c379a00000000000000000000000000000000000000000000000000000000081526004016116d990614c43565b60405180910390fd5b600754600c600060075481526020019081526020016000206000018190555033600c6000600754815260200190815260200160002060030160006101000a81548173ffffffffffffffffffffffffffffffffffffffff021916908373ffffffffffffffffffffffffffffffffffffffff1602179055508181600c60006007548152602001908152602001600020600101919061177f929190613da7565b5042600c60006007548152602001908152602001600020600201819055506000600c60006007548152602001908152602001600020600401819055506000600c60006007548152602001908152602001600020600501819055506001600c6000600754815260200190815260200160002060060160006101000a81548160ff0219169083151502179055506001600b60003373ffffffffffffffffffffffffffffffffffffffff1673ffffffffffffffffffffffffffffffffffffffff1681526020019081526020016000206005016000600754815260200190815260200160002060006101000a81548160ff0219169083151502179055506007600081548092919061188b90615283565b91905055505050565b6060600180546118a390615206565b80601f01602080910402602001604051908101604052809291908181526020018280546118cf90615206565b801561191c5780601f106118f15761010080835404028352916020019161191c565b820191906000526020600020905b8154815290600101906020018083116118ff57829003601f168201915b5050505050905090565b600d6020528060005260406000206000915090505481565b60606000600b60003373ffffffffffffffffffffffffffffffffffffffff1673ffffffffffffffffffffffffffffffffffffffff1681526020019081526020016000206003015467ffffffffffffffff8111156119c4577f4e487b7100000000000000000000000000000000000000000000000000000000600052604160045260246000fd5b6040519080825280602002602001820160405280156119f25781602001602082028036833780820191505090505b50905060005b600b60003373ffffffffffffffffffffffffffffffffffffffff1673ffffffffffffffffffffffffffffffffffffffff16815260200190815260200160002060030154811015611aee57600b60003373ffffffffffffffffffffffffffffffffffffffff1673ffffffffffffffffffffffffffffffffffffffff168152602001908152602001600020600401600082815260200190815260200160002054828281518110611acf577f4e487b7100000000000000000000000000000000000000000000000000000000600052603260045260246000fd5b6020026020010181815250508080611ae690615283565b9150506119f8565b508091505090565b611b08611b01612f2c565b838361350d565b5050565b600660009054906101000a900473ffffffffffffffffffffffffffffffffffffffff1673ffffffffffffffffffffffffffffffffffffffff163373ffffffffffffffffffffffffffffffffffffffff1614611b9c576040517f08c379a0000000000000000000000000000000000000000000000000000000008152600401611b9390614c03565b60405180910390fd5b80600a60006101000a81548173ffffffffffffffffffffffffffffffffffffffff021916908373ffffffffffffffffffffffffffffffffffffffff16021790555050565b600b60003373ffffffffffffffffffffffffffffffffffffffff1673ffffffffffffffffffffffffffffffffffffffff16815260200190815260200160002060020160009054906101000a900460ff16611c6f576040517f08c379a0000000000000000000000000000000000000000000000000000000008152600401611c6690614ba3565b60405180910390fd5b600c600082815260200190815260200160002060060160009054906101000a900460ff1615611cd3576040517f08c379a0000000000000000000000000000000000000000000000000000000008152600401611cca90614b03565b60405180910390fd5b670de0b6b3a7640000600a60009054906101000a900473ffffffffffffffffffffffffffffffffffffffff1673ffffffffffffffffffffffffffffffffffffffff166370a08231336040518263ffffffff1660e01b8152600401611d379190614984565b60206040518083038186803b158015611d4f57600080fd5b505afa158015611d63573d6000803e3d6000fd5b505050506040513d601f19601f82011682018060405250810190611d879190614241565b1015611dc8576040517f08c379a0000000000000000000000000000000000000000000000000000000008152600401611dbf90614b23565b60405180910390fd5b600a60009054906101000a900473ffffffffffffffffffffffffffffffffffffffff1673ffffffffffffffffffffffffffffffffffffffff166323b872dd33600c600085815260200190815260200160002060030160009054906101000a900473ffffffffffffffffffffffffffffffffffffffff16670c7d713b49da00006040518463ffffffff1660e01b8152600401611e65939291906149d6565b602060405180830381600087803b158015611e7f57600080fd5b505af1158015611e93573d6000803e3d6000fd5b505050506040513d601f19601f82011682018060405250810190611eb79190614158565b50600a60009054906101000a900473ffffffffffffffffffffffffffffffffffffffff1673ffffffffffffffffffffffffffffffffffffffff166379cc67903367016345785d8a00006040518363ffffffff1660e01b8152600401611f1d929190614a59565b600060405180830381600087803b158015611f3757600080fd5b505af1158015611f4b573d6000803e3d6000fd5b5050505042600c6000838152602001908152602001600020600201819055506001600c60008381526020019081526020016000206004016000828254611f91919061503f565b9250508190555050565b611fac611fa6612f2c565b83612fed565b611feb576040517f08c379a0000000000000000000000000000000000000000000000000000000008152600401611fe290614d83565b60405180910390fd5b611ff78484848461367a565b50505050565b606061200882612ec0565b612047576040517f08c379a000000000000000000000000000000000000000000000000000000000815260040161203e90614d43565b60405180910390fd5b60006120516136d6565b90506000815111612071576040518060200160405280600081525061209c565b8061207b846136ed565b60405160200161208c929190614960565b6040516020818303038152906040525b915050919050565b6060600b60008373ffffffffffffffffffffffffffffffffffffffff1673ffffffffffffffffffffffffffffffffffffffff16815260200190815260200160002060010180546120f390615206565b80601f016020809104026020016040519081016040528092919081815260200182805461211f90615206565b801561216c5780601f106121415761010080835404028352916020019161216c565b820191906000526020600020905b81548152906001019060200180831161214f57829003601f168201915b50505050509050919050565b600b60003373ffffffffffffffffffffffffffffffffffffffff1673ffffffffffffffffffffffffffffffffffffffff16815260200190815260200160002060020160009054906101000a900460ff16612207576040517f08c379a00000000000000000000000000000000000000000000000000000000081526004016121fe90614ba3565b60405180910390fd5b600c600082815260200190815260200160002060060160009054906101000a900460ff161561226b576040517f08c379a000000000000000000000000000000000000000000000000000000000815260040161226290614b03565b60405180910390fd5b80600b60003373ffffffffffffffffffffffffffffffffffffffff1673ffffffffffffffffffffffffffffffffffffffff1681526020019081526020016000206004016000600b60003373ffffffffffffffffffffffffffffffffffffffff1673ffffffffffffffffffffffffffffffffffffffff16815260200190815260200160002060030154815260200190815260200160002081905550600b60003373ffffffffffffffffffffffffffffffffffffffff1673ffffffffffffffffffffffffffffffffffffffff168152602001908152602001600020600301600081548092919061235890615283565b919050555050565b6060600060075467ffffffffffffffff8111156123a6577f4e487b7100000000000000000000000000000000000000000000000000000000600052604160045260246000fd5b6040519080825280602002602001820160405280156123df57816020015b6123cc613cb1565b8152602001906001900390816123c45790505b50905060005b60075481101561268657600c6000828152602001908152602001600020604051806101200160405290816000820154815260200160018201805461242890615206565b80601f016020809104026020016040519081016040528092919081815260200182805461245490615206565b80156124a15780601f10612476576101008083540402835291602001916124a1565b820191906000526020600020905b81548152906001019060200180831161248457829003601f168201915b50505050508152602001600282015481526020016003820160009054906101000a900473ffffffffffffffffffffffffffffffffffffffff1673ffffffffffffffffffffffffffffffffffffffff1673ffffffffffffffffffffffffffffffffffffffff16815260200160048201548152602001600582015481526020016006820160009054906101000a900460ff16151515158152602001600782016003806020026040519081016040528092919082600380156125ab576020028201915b8160009054906101000a900473ffffffffffffffffffffffffffffffffffffffff1673ffffffffffffffffffffffffffffffffffffffff1681526020019060010190808311612561575b50505050508152602001600a8201600380602002604051908101604052809291908260038015612626576020028201915b8160009054906101000a900473ffffffffffffffffffffffffffffffffffffffff1673ffffffffffffffffffffffffffffffffffffffff16815260200190600101908083116125dc575b505050505081525050828281518110612668577f4e487b7100000000000000000000000000000000000000000000000000000000600052603260045260246000fd5b6020026020010181905250808061267e90615283565b9150506123e5565b508091505090565b600b60003373ffffffffffffffffffffffffffffffffffffffff1673ffffffffffffffffffffffffffffffffffffffff16815260200190815260200160002060020160009054906101000a900460ff1661271d576040517f08c379a000000000000000000000000000000000000000000000000000000000815260040161271490614ba3565b60405180910390fd5b600c600082815260200190815260200160002060060160009054906101000a900460ff16612780576040517f08c379a000000000000000000000000000000000000000000000000000000000815260040161277790614da3565b60405180910390fd5b600b60003373ffffffffffffffffffffffffffffffffffffffff1673ffffffffffffffffffffffffffffffffffffffff168152602001908152602001600020600501600082815260200190815260200160002060009054906101000a900460ff1615612821576040517f08c379a000000000000000000000000000000000000000000000000000000000815260040161281890614cc3565b60405180910390fd5b68056bc75e2d63100000600a60009054906101000a900473ffffffffffffffffffffffffffffffffffffffff1673ffffffffffffffffffffffffffffffffffffffff166370a08231336040518263ffffffff1660e01b81526004016128869190614984565b60206040518083038186803b15801561289e57600080fd5b505afa1580156128b2573d6000803e3d6000fd5b505050506040513d601f19601f820116820180604052508101906128d69190614241565b1015612917576040517f08c379a000000000000000000000000000000000000000000000000000000000815260040161290e90614b23565b60405180910390fd5b600a60009054906101000a900473ffffffffffffffffffffffffffffffffffffffff1673ffffffffffffffffffffffffffffffffffffffff166323b872dd3330670de0b6b3a76400006040518463ffffffff1660e01b815260040161297e9392919061499f565b602060405180830381600087803b15801561299857600080fd5b505af11580156129ac573d6000803e3d6000fd5b505050506040513d601f19601f820116820180604052508101906129d09190614158565b5033600c6000838152602001908152602001600020600701600c60008481526020019081526020016000206004015460038110612a36577f4e487b7100000000000000000000000000000000000000000000000000000000600052603260045260246000fd5b0160006101000a81548173ffffffffffffffffffffffffffffffffffffffff021916908373ffffffffffffffffffffffffffffffffffffffff1602179055506001600c60008381526020019081526020016000206004016000828254612a9c919061503f565b925050819055506001600b60003373ffffffffffffffffffffffffffffffffffffffff1673ffffffffffffffffffffffffffffffffffffffff168152602001908152602001600020600501600083815260200190815260200160002060006101000a81548160ff0219169083151502179055506003600c60008381526020019081526020016000206004015410612c7e576000600c600083815260200190815260200160002060060160006101000a81548160ff02191690831515021790555080600d6000600954815260200190815260200160002081905550612bb6600c600083815260200190815260200160002060030160009054906101000a900473ffffffffffffffffffffffffffffffffffffffff168261389a565b600067016345785d8a00009050600a60009054906101000a900473ffffffffffffffffffffffffffffffffffffffff1673ffffffffffffffffffffffffffffffffffffffff16633b528a4882600c60008681526020019081526020016000206007016040518363ffffffff1660e01b8152600401612c35929190614dde565b600060405180830381600087803b158015612c4f57600080fd5b505af1158015612c63573d6000803e3d6000fd5b505050506001600954612c76919061503f565b600981905550505b50565b6000600560008473ffffffffffffffffffffffffffffffffffffffff1673ffffffffffffffffffffffffffffffffffffffff16815260200190815260200160002060008373ffffffffffffffffffffffffffffffffffffffff1673ffffffffffffffffffffffffffffffffffffffff16815260200190815260200160002060009054906101000a900460ff16905092915050565b600b60003373ffffffffffffffffffffffffffffffffffffffff1673ffffffffffffffffffffffffffffffffffffffff16815260200190815260200160002060020160009054906101000a900460ff1615612da5576040517f08c379a0000000000000000000000000000000000000000000000000000000008152600401612d9c90614d23565b60405180910390fd5b6001600b60003373ffffffffffffffffffffffffffffffffffffffff1673ffffffffffffffffffffffffffffffffffffffff16815260200190815260200160002060020160006101000a81548160ff0219169083151502179055508181600b60003373ffffffffffffffffffffffffffffffffffffffff1673ffffffffffffffffffffffffffffffffffffffff1681526020019081526020016000206001019190612e51929190613da7565b505050565b60007f01ffc9a7000000000000000000000000000000000000000000000000000000007bffffffffffffffffffffffffffffffffffffffffffffffffffffffff1916827bffffffffffffffffffffffffffffffffffffffffffffffffffffffff1916149050919050565b60008073ffffffffffffffffffffffffffffffffffffffff166002600084815260200190815260200160002060009054906101000a900473ffffffffffffffffffffffffffffffffffffffff1673ffffffffffffffffffffffffffffffffffffffff1614159050919050565b600033905090565b816004600083815260200190815260200160002060006101000a81548173ffffffffffffffffffffffffffffffffffffffff021916908373ffffffffffffffffffffffffffffffffffffffff160217905550808273ffffffffffffffffffffffffffffffffffffffff16612fa783611459565b73ffffffffffffffffffffffffffffffffffffffff167f8c5be1e5ebec7d5bd14f71427d1e84f3dd0314c0f7b2291e5b200ac8c7c3b92560405160405180910390a45050565b6000612ff882612ec0565b613037576040517f08c379a000000000000000000000000000000000000000000000000000000000815260040161302e90614c23565b60405180910390fd5b600061304283611459565b90508073ffffffffffffffffffffffffffffffffffffffff168473ffffffffffffffffffffffffffffffffffffffff1614806130b157508373ffffffffffffffffffffffffffffffffffffffff166130998461072a565b73ffffffffffffffffffffffffffffffffffffffff16145b806130c257506130c18185612c81565b5b91505092915050565b8273ffffffffffffffffffffffffffffffffffffffff166130eb82611459565b73ffffffffffffffffffffffffffffffffffffffff1614613141576040517f08c379a000000000000000000000000000000000000000000000000000000000815260040161313890614b63565b60405180910390fd5b600073ffffffffffffffffffffffffffffffffffffffff168273ffffffffffffffffffffffffffffffffffffffff1614156131b1576040517f08c379a00000000000000000000000000000000000000000000000000000000081526004016131a890614bc3565b60405180910390fd5b6131bc8383836138b8565b6131c7600082612f34565b6001600360008573ffffffffffffffffffffffffffffffffffffffff1673ffffffffffffffffffffffffffffffffffffffff168152602001908152602001600020600082825461321791906150c6565b925050819055506001600360008473ffffffffffffffffffffffffffffffffffffffff1673ffffffffffffffffffffffffffffffffffffffff168152602001908152602001600020600082825461326e919061503f565b92505081905550816002600083815260200190815260200160002060006101000a81548173ffffffffffffffffffffffffffffffffffffffff021916908373ffffffffffffffffffffffffffffffffffffffff160217905550808273ffffffffffffffffffffffffffffffffffffffff168473ffffffffffffffffffffffffffffffffffffffff167fddf252ad1be2c89b69c2b068fc378daa952ba7f163c4a11628f55a4df523b3ef60405160405180910390a461332d8383836138bd565b505050565b60008060008084519050600092505b80821015613502576000858381518110613384577f4e487b7100000000000000000000000000000000000000000000000000000000600052603260045260246000fd5b602001015160f81c60f81b9050608060f81b817effffffffffffffffffffffffffffffffffffffffffffffffffffffffffffff191610156133d3576001836133cc919061503f565b92506134ee565b60e060f81b817effffffffffffffffffffffffffffffffffffffffffffffffffffffffffffff191610156134155760028361340e919061503f565b92506134ed565b60f060f81b817effffffffffffffffffffffffffffffffffffffffffffffffffffffffffffff1916101561345757600383613450919061503f565b92506134ec565b60f8801b817effffffffffffffffffffffffffffffffffffffffffffffffffffffffffffff1916101561349857600483613491919061503f565b92506134eb565b60fc60f81b817effffffffffffffffffffffffffffffffffffffffffffffffffffffffffffff191610156134da576005836134d3919061503f565b92506134ea565b6006836134e7919061503f565b92505b5b5b5b5b5082806134fa90615283565b935050613341565b829350505050919050565b8173ffffffffffffffffffffffffffffffffffffffff168373ffffffffffffffffffffffffffffffffffffffff16141561357c576040517f08c379a000000000000000000000000000000000000000000000000000000000815260040161357390614be3565b60405180910390fd5b80600560008573ffffffffffffffffffffffffffffffffffffffff1673ffffffffffffffffffffffffffffffffffffffff16815260200190815260200160002060008473ffffffffffffffffffffffffffffffffffffffff1673ffffffffffffffffffffffffffffffffffffffff16815260200190815260200160002060006101000a81548160ff0219169083151502179055508173ffffffffffffffffffffffffffffffffffffffff168373ffffffffffffffffffffffffffffffffffffffff167f17307eab39ab6107e8899845ad3d59bd9653f200f220920489ca2b5937696c318360405161366d9190614ac6565b60405180910390a3505050565b6136858484846130cb565b613691848484846138c2565b6136d0576040517f08c379a00000000000000000000000000000000000000000000000000000000081526004016136c790614b43565b60405180910390fd5b50505050565b606060405180602001604052806000815250905090565b60606000821415613735576040518060400160405280600181526020017f30000000000000000000000000000000000000000000000000000000000000008152509050613895565b600082905060005b6000821461376757808061375090615283565b915050600a826137609190615095565b915061373d565b60008167ffffffffffffffff8111156137a9577f4e487b7100000000000000000000000000000000000000000000000000000000600052604160045260246000fd5b6040519080825280601f01601f1916602001820160405280156137db5781602001600182028036833780820191505090505b5090505b6000851461388e576001826137f491906150c6565b9150600a8561380391906152cc565b603061380f919061503f565b60f81b81838151811061384b577f4e487b7100000000000000000000000000000000000000000000000000000000600052603260045260246000fd5b60200101907effffffffffffffffffffffffffffffffffffffffffffffffffffffffffffff1916908160001a905350600a856138879190615095565b94506137df565b8093505050505b919050565b6138b4828260405180602001604052806000815250613a59565b5050565b505050565b505050565b60006138e38473ffffffffffffffffffffffffffffffffffffffff16613ab4565b15613a4c578373ffffffffffffffffffffffffffffffffffffffff1663150b7a0261390c612f2c565b8786866040518563ffffffff1660e01b815260040161392e9493929190614a0d565b602060405180830381600087803b15801561394857600080fd5b505af192505050801561397957506040513d601f19601f8201168201806040525081019061397691906141aa565b60015b6139fc573d80600081146139a9576040519150601f19603f3d011682016040523d82523d6000602084013e6139ae565b606091505b506000815114156139f4576040517f08c379a00000000000000000000000000000000000000000000000000000000081526004016139eb90614b43565b60405180910390fd5b805181602001fd5b63150b7a0260e01b7bffffffffffffffffffffffffffffffffffffffffffffffffffffffff1916817bffffffffffffffffffffffffffffffffffffffffffffffffffffffff191614915050613a51565b600190505b949350505050565b613a638383613ad7565b613a7060008484846138c2565b613aaf576040517f08c379a0000000000000000000000000000000000000000000000000000000008152600401613aa690614b43565b60405180910390fd5b505050565b6000808273ffffffffffffffffffffffffffffffffffffffff163b119050919050565b600073ffffffffffffffffffffffffffffffffffffffff168273ffffffffffffffffffffffffffffffffffffffff161415613b47576040517f08c379a0000000000000000000000000000000000000000000000000000000008152600401613b3e90614ce3565b60405180910390fd5b613b5081612ec0565b15613b90576040517f08c379a0000000000000000000000000000000000000000000000000000000008152600401613b8790614b83565b60405180910390fd5b613b9c600083836138b8565b6001600360008473ffffffffffffffffffffffffffffffffffffffff1673ffffffffffffffffffffffffffffffffffffffff1681526020019081526020016000206000828254613bec919061503f565b92505081905550816002600083815260200190815260200160002060006101000a81548173ffffffffffffffffffffffffffffffffffffffff021916908373ffffffffffffffffffffffffffffffffffffffff160217905550808273ffffffffffffffffffffffffffffffffffffffff16600073ffffffffffffffffffffffffffffffffffffffff167fddf252ad1be2c89b69c2b068fc378daa952ba7f163c4a11628f55a4df523b3ef60405160405180910390a4613cad600083836138bd565b5050565b604051806101200160405280600081526020016060815260200160008152602001600073ffffffffffffffffffffffffffffffffffffffff1681526020016000815260200160008152602001600015158152602001613d0e613e2d565b8152602001613d1b613e2d565b81525090565b828054613d2d90615206565b90600052602060002090601f016020900481019282613d4f5760008555613d96565b82601f10613d6857805160ff1916838001178555613d96565b82800160010185558215613d96579182015b82811115613d95578251825591602001919060010190613d7a565b5b509050613da39190613e4f565b5090565b828054613db390615206565b90600052602060002090601f016020900481019282613dd55760008555613e1c565b82601f10613dee57803560ff1916838001178555613e1c565b82800160010185558215613e1c579182015b82811115613e1b578235825591602001919060010190613e00565b5b509050613e299190613e4f565b5090565b6040518060600160405280600390602082028036833780820191505090505090565b5b80821115613e68576000816000905550600101613e50565b5090565b6000613e7f613e7a84614eee565b614ec9565b905082815260208101848484011115613e9757600080fd5b613ea28482856151c4565b509392505050565b600081359050613eb98161595e565b92915050565b600081359050613ece81615975565b92915050565b600081519050613ee381615975565b92915050565b600081359050613ef88161598c565b92915050565b600081519050613f0d8161598c565b92915050565b600082601f830112613f2457600080fd5b8135613f34848260208601613e6c565b91505092915050565b60008083601f840112613f4f57600080fd5b8235905067ffffffffffffffff811115613f6857600080fd5b602083019150836001820283011115613f8057600080fd5b9250929050565b600081359050613f96816159a3565b92915050565b600081519050613fab816159a3565b92915050565b600060208284031215613fc357600080fd5b6000613fd184828501613eaa565b91505092915050565b60008060408385031215613fed57600080fd5b6000613ffb85828601613eaa565b925050602061400c85828601613eaa565b9150509250929050565b60008060006060848603121561402b57600080fd5b600061403986828701613eaa565b935050602061404a86828701613eaa565b925050604061405b86828701613f87565b9150509250925092565b6000806000806080858703121561407b57600080fd5b600061408987828801613eaa565b945050602061409a87828801613eaa565b93505060406140ab87828801613f87565b925050606085013567ffffffffffffffff8111156140c857600080fd5b6140d487828801613f13565b91505092959194509250565b600080604083850312156140f357600080fd5b600061410185828601613eaa565b925050602061411285828601613ebf565b9150509250929050565b6000806040838503121561412f57600080fd5b600061413d85828601613eaa565b925050602061414e85828601613f87565b9150509250929050565b60006020828403121561416a57600080fd5b600061417884828501613ed4565b91505092915050565b60006020828403121561419357600080fd5b60006141a184828501613ee9565b91505092915050565b6000602082840312156141bc57600080fd5b60006141ca84828501613efe565b91505092915050565b600080602083850312156141e657600080fd5b600083013567ffffffffffffffff81111561420057600080fd5b61420c85828601613f3d565b92509250509250929050565b60006020828403121561422a57600080fd5b600061423884828501613f87565b91505092915050565b60006020828403121561425357600080fd5b600061426184828501613f9c565b91505092915050565b600061427683836142ae565b60208301905092915050565b600061428e838361487d565b905092915050565b60006142a28383614942565b60208301905092915050565b6142b78161511a565b82525050565b6142c68161511a565b82525050565b6142d581614f53565b6142df8184614fc9565b92506142ea82614f1f565b8060005b8381101561431b578151614302878261426a565b965061430d83614f95565b9250506001810190506142ee565b505050505050565b61432c81614f5e565b6143368184614fd4565b925061434182614f29565b8060005b8381101561437957614356826153b9565b614360878261426a565b965061436b83614fa2565b925050600181019050614345565b505050505050565b600061438c82614f69565b6143968185614fdf565b9350836020820285016143a885614f33565b8060005b858110156143e457848403895281516143c58582614282565b94506143d083614faf565b925060208a019950506001810190506143ac565b50829750879550505050505092915050565b600061440182614f74565b61440b8185614ff0565b935061441683614f43565b8060005b8381101561444757815161442e8882614296565b975061443983614fbc565b92505060018101905061441a565b5085935050505092915050565b61445d8161512c565b82525050565b61446c8161512c565b82525050565b600061447d82614f7f565b6144878185615001565b93506144978185602086016151d3565b6144a0816153cc565b840191505092915050565b6144b48161518e565b82525050565b6144c3816151a0565b82525050565b6144d2816151b2565b82525050565b60006144e382614f8a565b6144ed8185615012565b93506144fd8185602086016151d3565b614506816153cc565b840191505092915050565b600061451c82614f8a565b6145268185615023565b93506145368185602086016151d3565b61453f816153cc565b840191505092915050565b600061455582614f8a565b61455f8185615034565b935061456f8185602086016151d3565b80840191505092915050565b6000614588601683615023565b9150614593826153ea565b602082019050919050565b60006145ab601f83615023565b91506145b682615413565b602082019050919050565b60006145ce603283615023565b91506145d98261543c565b604082019050919050565b60006145f1602583615023565b91506145fc8261548b565b604082019050919050565b6000614614601c83615023565b915061461f826154da565b602082019050919050565b6000614637601983615023565b915061464282615503565b602082019050919050565b600061465a602483615023565b91506146658261552c565b604082019050919050565b600061467d601983615023565b91506146888261557b565b602082019050919050565b60006146a0601583615023565b91506146ab826155a4565b602082019050919050565b60006146c3602c83615023565b91506146ce826155cd565b604082019050919050565b60006146e6601483615023565b91506146f18261561c565b602082019050919050565b6000614709603883615023565b915061471482615645565b604082019050919050565b600061472c602a83615023565b915061473782615694565b604082019050919050565b600061474f602983615023565b915061475a826156e3565b604082019050919050565b6000614772602783615023565b915061477d82615732565b604082019050919050565b6000614795602083615023565b91506147a082615781565b602082019050919050565b60006147b8602c83615023565b91506147c3826157aa565b604082019050919050565b60006147db601b83615023565b91506147e6826157f9565b602082019050919050565b60006147fe602f83615023565b915061480982615822565b604082019050919050565b6000614821602183615023565b915061482c82615871565b604082019050919050565b6000614844603183615023565b915061484f826158c0565b604082019050919050565b6000614867602883615023565b91506148728261590f565b604082019050919050565b60006101a0830160008301516148966000860182614942565b50602083015184820360208601526148ae82826144d8565b91505060408301516148c36040860182614942565b5060608301516148d660608601826142ae565b5060808301516148e96080860182614942565b5060a08301516148fc60a0860182614942565b5060c083015161490f60c0860182614454565b5060e083015161492260e08601826142cc565b506101008301516149376101408601826142cc565b508091505092915050565b61494b81615184565b82525050565b61495a81615184565b82525050565b600061496c828561454a565b9150614978828461454a565b91508190509392505050565b600060208201905061499960008301846142bd565b92915050565b60006060820190506149b460008301866142bd565b6149c160208301856142bd565b6149ce60408301846144ab565b949350505050565b60006060820190506149eb60008301866142bd565b6149f860208301856142bd565b614a0560408301846144c9565b949350505050565b6000608082019050614a2260008301876142bd565b614a2f60208301866142bd565b614a3c6040830185614951565b8181036060830152614a4e8184614472565b905095945050505050565b6000604082019050614a6e60008301856142bd565b614a7b60208301846144ba565b9392505050565b60006020820190508181036000830152614a9c8184614381565b905092915050565b60006020820190508181036000830152614abe81846143f6565b905092915050565b6000602082019050614adb6000830184614463565b92915050565b60006020820190508181036000830152614afb8184614511565b905092915050565b60006020820190508181036000830152614b1c8161457b565b9050919050565b60006020820190508181036000830152614b3c8161459e565b9050919050565b60006020820190508181036000830152614b5c816145c1565b9050919050565b60006020820190508181036000830152614b7c816145e4565b9050919050565b60006020820190508181036000830152614b9c81614607565b9050919050565b60006020820190508181036000830152614bbc8161462a565b9050919050565b60006020820190508181036000830152614bdc8161464d565b9050919050565b60006020820190508181036000830152614bfc81614670565b9050919050565b60006020820190508181036000830152614c1c81614693565b9050919050565b60006020820190508181036000830152614c3c816146b6565b9050919050565b60006020820190508181036000830152614c5c816146d9565b9050919050565b60006020820190508181036000830152614c7c816146fc565b9050919050565b60006020820190508181036000830152614c9c8161471f565b9050919050565b60006020820190508181036000830152614cbc81614742565b9050919050565b60006020820190508181036000830152614cdc81614765565b9050919050565b60006020820190508181036000830152614cfc81614788565b9050919050565b60006020820190508181036000830152614d1c816147ab565b9050919050565b60006020820190508181036000830152614d3c816147ce565b9050919050565b60006020820190508181036000830152614d5c816147f1565b9050919050565b60006020820190508181036000830152614d7c81614814565b9050919050565b60006020820190508181036000830152614d9c81614837565b9050919050565b60006020820190508181036000830152614dbc8161485a565b9050919050565b6000602082019050614dd86000830184614951565b92915050565b6000608082019050614df36000830185614951565b614e006020830184614323565b9392505050565b6000608082019050614e1c6000830187614951565b8181036020830152614e2e8186614511565b9050614e3d6040830185614463565b614e4a6060830184614951565b95945050505050565b600060e082019050614e68600083018a614951565b8181036020830152614e7a8189614511565b9050614e896040830188614951565b614e9660608301876142bd565b614ea36080830186614951565b614eb060a0830185614951565b614ebd60c0830184614463565b98975050505050505050565b6000614ed3614ee4565b9050614edf8282615252565b919050565b6000604051905090565b600067ffffffffffffffff821115614f0957614f0861538a565b5b614f12826153cc565b9050602081019050919050565b6000819050919050565b6000819050919050565b6000819050602082019050919050565b6000819050602082019050919050565b600060039050919050565b600060039050919050565b600081519050919050565b600081519050919050565b600081519050919050565b600081519050919050565b6000602082019050919050565b6000600182019050919050565b6000602082019050919050565b6000602082019050919050565b600081905092915050565b600081905092915050565b600082825260208201905092915050565b600082825260208201905092915050565b600082825260208201905092915050565b600082825260208201905092915050565b600082825260208201905092915050565b600081905092915050565b600061504a82615184565b915061505583615184565b9250827fffffffffffffffffffffffffffffffffffffffffffffffffffffffffffffffff0382111561508a576150896152fd565b5b828201905092915050565b60006150a082615184565b91506150ab83615184565b9250826150bb576150ba61532c565b5b828204905092915050565b60006150d182615184565b91506150dc83615184565b9250828210156150ef576150ee6152fd565b5b828203905092915050565b600073ffffffffffffffffffffffffffffffffffffffff82169050919050565b600061512582615164565b9050919050565b60008115159050919050565b60007fffffffff0000000000000000000000000000000000000000000000000000000082169050919050565b600073ffffffffffffffffffffffffffffffffffffffff82169050919050565b6000819050919050565b600061519982615184565b9050919050565b60006151ab82615184565b9050919050565b60006151bd82615184565b9050919050565b82818337600083830152505050565b60005b838110156151f15780820151818401526020810190506151d6565b83811115615200576000848401525b50505050565b6000600282049050600182168061521e57607f821691505b602082108114156152325761523161535b565b5b50919050565b600061524b615246836153dd565b6150fa565b9050919050565b61525b826153cc565b810181811067ffffffffffffffff8211171561527a5761527961538a565b5b80604052505050565b600061528e82615184565b91507fffffffffffffffffffffffffffffffffffffffffffffffffffffffffffffffff8214156152c1576152c06152fd565b5b600182019050919050565b60006152d782615184565b91506152e283615184565b9250826152f2576152f161532c565b5b828206905092915050565b7f4e487b7100000000000000000000000000000000000000000000000000000000600052601160045260246000fd5b7f4e487b7100000000000000000000000000000000000000000000000000000000600052601260045260246000fd5b7f4e487b7100000000000000000000000000000000000000000000000000000000600052602260045260246000fd5b7f4e487b7100000000000000000000000000000000000000000000000000000000600052604160045260246000fd5b60006153c58254615238565b9050919050565b6000601f19601f8301169050919050565b60008160001c9050919050565b7f506f7374206973206e6f74206163746976652079657400000000000000000000600082015250565b7f596f7520646964206e6f74206861766520656e6f7567682062616c616e636500600082015250565b7f4552433732313a207472616e7366657220746f206e6f6e20455243373231526560008201527f63656976657220696d706c656d656e7465720000000000000000000000000000602082015250565b7f4552433732313a207472616e736665722066726f6d20696e636f72726563742060008201527f6f776e6572000000000000000000000000000000000000000000000000000000602082015250565b7f4552433732313a20746f6b656e20616c7265616479206d696e74656400000000600082015250565b7f596f75206861766520746f207369676e20757020666972737400000000000000600082015250565b7f4552433732313a207472616e7366657220746f20746865207a65726f2061646460008201527f7265737300000000000000000000000000000000000000000000000000000000602082015250565b7f4552433732313a20617070726f766520746f2063616c6c657200000000000000600082015250565b7f596f7520617265206e6f7420746865206f776e65720000000000000000000000600082015250565b7f4552433732313a206f70657261746f7220717565727920666f72206e6f6e657860008201527f697374656e7420746f6b656e0000000000000000000000000000000000000000602082015250565b7f546f6f206d616e79206368617261726374657221000000000000000000000000600082015250565b7f4552433732313a20617070726f76652063616c6c6572206973206e6f74206f7760008201527f6e6572206e6f7220617070726f76656420666f7220616c6c0000000000000000602082015250565b7f4552433732313a2062616c616e636520717565727920666f7220746865207a6560008201527f726f206164647265737300000000000000000000000000000000000000000000602082015250565b7f4552433732313a206f776e657220717565727920666f72206e6f6e657869737460008201527f656e7420746f6b656e0000000000000000000000000000000000000000000000602082015250565b7f596f7520616c7265616479206c696b6564206f72206469736c696b652074686960008201527f7320706f73742100000000000000000000000000000000000000000000000000602082015250565b7f4552433732313a206d696e7420746f20746865207a65726f2061646472657373600082015250565b7f4552433732313a20617070726f76656420717565727920666f72206e6f6e657860008201527f697374656e7420746f6b656e0000000000000000000000000000000000000000602082015250565b7f596f7520616c7265616479206861766520612070726f66696c65210000000000600082015250565b7f4552433732314d657461646174613a2055524920717565727920666f72206e6f60008201527f6e6578697374656e7420746f6b656e0000000000000000000000000000000000602082015250565b7f4552433732313a20617070726f76616c20746f2063757272656e74206f776e6560008201527f7200000000000000000000000000000000000000000000000000000000000000602082015250565b7f4552433732313a207472616e736665722063616c6c6572206973206e6f74206f60008201527f776e6572206e6f7220617070726f766564000000000000000000000000000000602082015250565b7f506f7374206973206e6f7420617661696c61626c6520666f7220766f74696e6760008201527f20616e796d6f7265000000000000000000000000000000000000000000000000602082015250565b6159678161511a565b811461597257600080fd5b50565b61597e8161512c565b811461598957600080fd5b50565b61599581615138565b81146159a057600080fd5b50565b6159ac81615184565b81146159b757600080fd5b5056fea2646970667358221220901eb02694f40237b2f2f77fd7b8d9404e6e5ad3dc7c31b8974bb01885275cf364736f6c63430008040033",
  "linkReferences": {},
  "deployedLinkReferences": {}
}