{
  "_format": "hh-sol-artifact-1",
  "contractName": "SocialMedia",
  "sourceName": "contracts/SocialMedia.sol",
  "abi": [
    {
      "inputs": [],
      "stateMutability": "nonpayable",
      "type": "constructor"
    },
    {
      "anonymous": false,
      "inputs": [
        {
          "indexed": true,
          "internalType": "address",
          "name": "owner",
          "type": "address"
        },
        {
          "indexed": true,
          "internalType": "address",
          "name": "approved",
          "type": "address"
        },
        {
          "indexed": true,
          "internalType": "uint256",
          "name": "tokenId",
          "type": "uint256"
        }
      ],
      "name": "Approval",
      "type": "event"
    },
    {
      "anonymous": false,
      "inputs": [
        {
          "indexed": true,
          "internalType": "address",
          "name": "owner",
          "type": "address"
        },
        {
          "indexed": true,
          "internalType": "address",
          "name": "operator",
          "type": "address"
        },
        {
          "indexed": false,
          "internalType": "bool",
          "name": "approved",
          "type": "bool"
        }
      ],
      "name": "ApprovalForAll",
      "type": "event"
    },
    {
      "anonymous": false,
      "inputs": [
        {
          "indexed": true,
          "internalType": "address",
          "name": "from",
          "type": "address"
        },
        {
          "indexed": true,
          "internalType": "address",
          "name": "to",
          "type": "address"
        },
        {
          "indexed": true,
          "internalType": "uint256",
          "name": "tokenId",
          "type": "uint256"
        }
      ],
      "name": "Transfer",
      "type": "event"
    },
    {
      "inputs": [
        {
          "internalType": "address",
          "name": "to",
          "type": "address"
        },
        {
          "internalType": "uint256",
          "name": "tokenId",
          "type": "uint256"
        }
      ],
      "name": "approve",
      "outputs": [],
      "stateMutability": "nonpayable",
      "type": "function"
    },
    {
      "inputs": [
        {
          "internalType": "address",
          "name": "owner",
          "type": "address"
        }
      ],
      "name": "balanceOf",
      "outputs": [
        {
          "internalType": "uint256",
          "name": "",
          "type": "uint256"
        }
      ],
      "stateMutability": "view",
      "type": "function"
    },
    {
      "inputs": [
        {
          "internalType": "uint256",
          "name": "_postId",
          "type": "uint256"
        }
      ],
      "name": "dislike",
      "outputs": [],
      "stateMutability": "nonpayable",
      "type": "function"
    },
    {
      "inputs": [],
      "name": "getAllMintedPost",
      "outputs": [
        {
          "components": [
            {
              "internalType": "uint256",
              "name": "postId",
              "type": "uint256"
            },
            {
              "internalType": "string",
              "name": "content",
              "type": "string"
            },
            {
              "internalType": "uint256",
              "name": "date",
              "type": "uint256"
            },
            {
              "internalType": "address",
              "name": "owner",
              "type": "address"
            },
            {
              "internalType": "uint256",
              "name": "like",
              "type": "uint256"
            },
            {
              "internalType": "uint256",
              "name": "dislike",
              "type": "uint256"
            },
            {
              "internalType": "bool",
              "name": "isActive",
              "type": "bool"
            },
            {
              "internalType": "address[]",
              "name": "likers",
              "type": "address[]"
            },
            {
              "internalType": "address[]",
              "name": "dislikers",
              "type": "address[]"
            }
          ],
          "internalType": "struct SocialMedia.post[]",
          "name": "",
          "type": "tuple[]"
        }
      ],
      "stateMutability": "view",
      "type": "function"
    },
    {
      "inputs": [],
      "name": "getAllPost",
      "outputs": [
        {
          "components": [
            {
              "internalType": "uint256",
              "name": "postId",
              "type": "uint256"
            },
            {
              "internalType": "string",
              "name": "content",
              "type": "string"
            },
            {
              "internalType": "uint256",
              "name": "date",
              "type": "uint256"
            },
            {
              "internalType": "address",
              "name": "owner",
              "type": "address"
            },
            {
              "internalType": "uint256",
              "name": "like",
              "type": "uint256"
            },
            {
              "internalType": "uint256",
              "name": "dislike",
              "type": "uint256"
            },
            {
              "internalType": "bool",
              "name": "isActive",
              "type": "bool"
            },
            {
              "internalType": "address[]",
              "name": "likers",
              "type": "address[]"
            },
            {
              "internalType": "address[]",
              "name": "dislikers",
              "type": "address[]"
            }
          ],
          "internalType": "struct SocialMedia.post[]",
          "name": "",
          "type": "tuple[]"
        }
      ],
      "stateMutability": "view",
      "type": "function"
    },
    {
      "inputs": [
        {
          "internalType": "uint256",
          "name": "tokenId",
          "type": "uint256"
        }
      ],
      "name": "getApproved",
      "outputs": [
        {
          "internalType": "address",
          "name": "",
          "type": "address"
        }
      ],
      "stateMutability": "view",
      "type": "function"
    },
    {
      "inputs": [],
      "name": "getHiddenId",
      "outputs": [
        {
          "internalType": "uint256[]",
          "name": "",
          "type": "uint256[]"
        }
      ],
      "stateMutability": "view",
      "type": "function"
    },
    {
      "inputs": [
        {
          "internalType": "address",
          "name": "_user",
          "type": "address"
        }
      ],
      "name": "getUsername",
      "outputs": [
        {
          "internalType": "string",
          "name": "",
          "type": "string"
        }
      ],
      "stateMutability": "view",
      "type": "function"
    },
    {
      "inputs": [
        {
          "internalType": "uint256",
          "name": "_postId",
          "type": "uint256"
        }
      ],
      "name": "hideMinted",
      "outputs": [],
      "stateMutability": "nonpayable",
      "type": "function"
    },
    {
      "inputs": [
        {
          "internalType": "address",
          "name": "owner",
          "type": "address"
        },
        {
          "internalType": "address",
          "name": "operator",
          "type": "address"
        }
      ],
      "name": "isApprovedForAll",
      "outputs": [
        {
          "internalType": "bool",
          "name": "",
          "type": "bool"
        }
      ],
      "stateMutability": "view",
      "type": "function"
    },
    {
      "inputs": [],
      "name": "isRegistered",
      "outputs": [
        {
          "internalType": "bool",
          "name": "",
          "type": "bool"
        }
      ],
      "stateMutability": "view",
      "type": "function"
    },
    {
      "inputs": [
        {
          "internalType": "uint256",
          "name": "_postId",
          "type": "uint256"
        }
      ],
      "name": "like",
      "outputs": [],
      "stateMutability": "nonpayable",
      "type": "function"
    },
    {
      "inputs": [
        {
          "internalType": "uint256",
          "name": "_postId",
          "type": "uint256"
        }
      ],
      "name": "likeMinted",
      "outputs": [],
      "stateMutability": "nonpayable",
      "type": "function"
    },
    {
      "inputs": [
        {
          "internalType": "uint256",
          "name": "",
          "type": "uint256"
        }
      ],
      "name": "mintedId",
      "outputs": [
        {
          "internalType": "uint256",
          "name": "",
          "type": "uint256"
        }
      ],
      "stateMutability": "view",
      "type": "function"
    },
    {
      "inputs": [],
      "name": "name",
      "outputs": [
        {
          "internalType": "string",
          "name": "",
          "type": "string"
        }
      ],
      "stateMutability": "view",
      "type": "function"
    },
    {
      "inputs": [
        {
          "internalType": "uint256",
          "name": "tokenId",
          "type": "uint256"
        }
      ],
      "name": "ownerOf",
      "outputs": [
        {
          "internalType": "address",
          "name": "",
          "type": "address"
        }
      ],
      "stateMutability": "view",
      "type": "function"
    },
    {
      "inputs": [
        {
          "internalType": "uint256",
          "name": "",
          "type": "uint256"
        }
      ],
      "name": "posts",
      "outputs": [
        {
          "internalType": "uint256",
          "name": "postId",
          "type": "uint256"
        },
        {
          "internalType": "string",
          "name": "content",
          "type": "string"
        },
        {
          "internalType": "uint256",
          "name": "date",
          "type": "uint256"
        },
        {
          "internalType": "address",
          "name": "owner",
          "type": "address"
        },
        {
          "internalType": "uint256",
          "name": "like",
          "type": "uint256"
        },
        {
          "internalType": "uint256",
          "name": "dislike",
          "type": "uint256"
        },
        {
          "internalType": "bool",
          "name": "isActive",
          "type": "bool"
        }
      ],
      "stateMutability": "view",
      "type": "function"
    },
    {
      "inputs": [
        {
          "internalType": "string",
          "name": "_username",
          "type": "string"
        }
      ],
      "name": "register",
      "outputs": [],
      "stateMutability": "nonpayable",
      "type": "function"
    },
    {
      "inputs": [
        {
          "internalType": "address",
          "name": "from",
          "type": "address"
        },
        {
          "internalType": "address",
          "name": "to",
          "type": "address"
        },
        {
          "internalType": "uint256",
          "name": "tokenId",
          "type": "uint256"
        }
      ],
      "name": "safeTransferFrom",
      "outputs": [],
      "stateMutability": "nonpayable",
      "type": "function"
    },
    {
      "inputs": [
        {
          "internalType": "address",
          "name": "from",
          "type": "address"
        },
        {
          "internalType": "address",
          "name": "to",
          "type": "address"
        },
        {
          "internalType": "uint256",
          "name": "tokenId",
          "type": "uint256"
        },
        {
          "internalType": "bytes",
          "name": "_data",
          "type": "bytes"
        }
      ],
      "name": "safeTransferFrom",
      "outputs": [],
      "stateMutability": "nonpayable",
      "type": "function"
    },
    {
      "inputs": [
        {
          "internalType": "address",
          "name": "operator",
          "type": "address"
        },
        {
          "internalType": "bool",
          "name": "approved",
          "type": "bool"
        }
      ],
      "name": "setApprovalForAll",
      "outputs": [],
      "stateMutability": "nonpayable",
      "type": "function"
    },
    {
      "inputs": [
        {
          "internalType": "address",
          "name": "_contractAddress",
          "type": "address"
        }
      ],
      "name": "setTokenContractAddress",
      "outputs": [],
      "stateMutability": "nonpayable",
      "type": "function"
    },
    {
      "inputs": [
        {
          "internalType": "bytes4",
          "name": "interfaceId",
          "type": "bytes4"
        }
      ],
      "name": "supportsInterface",
      "outputs": [
        {
          "internalType": "bool",
          "name": "",
          "type": "bool"
        }
      ],
      "stateMutability": "view",
      "type": "function"
    },
    {
      "inputs": [],
      "name": "symbol",
      "outputs": [
        {
          "internalType": "string",
          "name": "",
          "type": "string"
        }
      ],
      "stateMutability": "view",
      "type": "function"
    },
    {
      "inputs": [
        {
          "internalType": "uint256",
          "name": "tokenId",
          "type": "uint256"
        }
      ],
      "name": "tokenURI",
      "outputs": [
        {
          "internalType": "string",
          "name": "",
          "type": "string"
        }
      ],
      "stateMutability": "view",
      "type": "function"
    },
    {
      "inputs": [
        {
          "internalType": "address",
          "name": "from",
          "type": "address"
        },
        {
          "internalType": "address",
          "name": "to",
          "type": "address"
        },
        {
          "internalType": "uint256",
          "name": "tokenId",
          "type": "uint256"
        }
      ],
      "name": "transferFrom",
      "outputs": [],
      "stateMutability": "nonpayable",
      "type": "function"
    },
    {
      "inputs": [
        {
          "internalType": "string",
          "name": "_content",
          "type": "string"
        }
      ],
      "name": "userPost",
      "outputs": [],
      "stateMutability": "nonpayable",
      "type": "function"
    },
    {
      "inputs": [
        {
          "internalType": "address",
          "name": "",
          "type": "address"
        }
      ],
      "name": "userProfile",
      "outputs": [
        {
          "internalType": "uint256",
          "name": "uid",
          "type": "uint256"
        },
        {
          "internalType": "string",
          "name": "username",
          "type": "string"
        },
        {
          "internalType": "bool",
          "name": "active",
          "type": "bool"
        },
        {
          "internalType": "uint256",
          "name": "hiddenCounter",
          "type": "uint256"
        }
      ],
      "stateMutability": "view",
      "type": "function"
    }
  ],
  "bytecode": "0x60806040523480156200001157600080fd5b506040518060400160405280600f81526020017f536f6369616c4d65646961506f737400000000000000000000000000000000008152506040518060400160405280600381526020017f534d50000000000000000000000000000000000000000000000000000000000081525081600090805190602001906200009692919062000111565b508060019080519060200190620000af92919062000111565b50505033600660006101000a81548173ffffffffffffffffffffffffffffffffffffffff021916908373ffffffffffffffffffffffffffffffffffffffff16021790555060006007819055506000600981905550600060088190555062000226565b8280546200011f90620001c1565b90600052602060002090601f0160209004810192826200014357600085556200018f565b82601f106200015e57805160ff19168380011785556200018f565b828001600101855582156200018f579182015b828111156200018e57825182559160200191906001019062000171565b5b5090506200019e9190620001a2565b5090565b5b80821115620001bd576000816000905550600101620001a3565b5090565b60006002820490506001821680620001da57607f821691505b60208210811415620001f157620001f0620001f7565b5b50919050565b7f4e487b7100000000000000000000000000000000000000000000000000000000600052602260045260246000fd5b6155eb80620002366000396000f3fe608060405234801561001057600080fd5b50600436106101c45760003560e01c806395d89b41116100f9578063c87b56dd11610097578063da7d9d1011610071578063da7d9d1014610530578063e82935da1461054e578063e985e9c51461056a578063f2c298be1461059a576101c4565b8063c87b56dd146104b4578063ce43c032146104e4578063d067ec8a14610514576101c4565b8063a22cb465116100d3578063a22cb46514610444578063b23d485414610460578063b405f34f1461047c578063b88d4fde14610498576101c4565b806395d89b41146103d85780639b17d8d4146103f65780639e427a6a14610426576101c4565b806323b872dd11610166578063618f8bbb11610140578063618f8bbb146103405780636352211e1461035c57806370a082311461038c5780638037d194146103bc576101c4565b806323b872dd146102ea57806342842e0e1461030657806353c679a114610322576101c4565b8063095ea7b3116101a2578063095ea7b3146102475780630b1e7f83146102635780631c8e89621461029957806322366844146102cc576101c4565b806301ffc9a7146101c957806306fdde03146101f9578063081812fc14610217575b600080fd5b6101e360048036038101906101de9190613da8565b6105b6565b6040516101f091906146e6565b60405180910390f35b610201610698565b60405161020e9190614701565b60405180910390f35b610231600480360381019061022c9190613e3f565b61072a565b60405161023e91906145a4565b60405180910390f35b610261600480360381019061025c9190613d43565b6107af565b005b61027d60048036038101906102789190613e3f565b6108c7565b6040516102909796959493929190614a5a565b60405180910390f35b6102b360048036038101906102ae9190613bd8565b6109be565b6040516102c39493929190614a0e565b60405180910390f35b6102d4610a83565b6040516102e191906146e6565b60405180910390f35b61030460048036038101906102ff9190613c3d565b610ada565b005b610320600480360381019061031b9190613c3d565b610b3a565b005b61032a610b5a565b60405161033791906146a2565b60405180910390f35b61035a60048036038101906103559190613e3f565b610ec1565b005b61037660048036038101906103719190613e3f565b611320565b60405161038391906145a4565b60405180910390f35b6103a660048036038101906103a19190613bd8565b6113d2565b6040516103b391906149c3565b60405180910390f35b6103d660048036038101906103d19190613dfa565b61148a565b005b6103e06116cb565b6040516103ed9190614701565b60405180910390f35b610410600480360381019061040b9190613e3f565b61175d565b60405161041d91906149c3565b60405180910390f35b61042e611775565b60405161043b91906146c4565b60405180910390f35b61045e60048036038101906104599190613d07565b61192d565b005b61047a60048036038101906104759190613bd8565b611943565b005b61049660048036038101906104919190613e3f565b611a17565b005b6104b260048036038101906104ad9190613c8c565b611dd2565b005b6104ce60048036038101906104c99190613e3f565b611e34565b6040516104db9190614701565b60405180910390f35b6104fe60048036038101906104f99190613bd8565b611edb565b60405161050b9190614701565b60405180910390f35b61052e60048036038101906105299190613e3f565b611faf565b005b610538612197565b60405161054591906146a2565b60405180910390f35b61056860048036038101906105639190613e3f565b6124eb565b005b610584600480360381019061057f9190613c01565b612ab1565b60405161059191906146e6565b60405180910390f35b6105b460048036038101906105af9190613dfa565b612b45565b005b60007f80ac58cd000000000000000000000000000000000000000000000000000000007bffffffffffffffffffffffffffffffffffffffffffffffffffffffff1916827bffffffffffffffffffffffffffffffffffffffffffffffffffffffff1916148061068157507f5b5e139f000000000000000000000000000000000000000000000000000000007bffffffffffffffffffffffffffffffffffffffffffffffffffffffff1916827bffffffffffffffffffffffffffffffffffffffffffffffffffffffff1916145b80610691575061069082612c86565b5b9050919050565b6060600080546106a790614e2a565b80601f01602080910402602001604051908101604052809291908181526020018280546106d390614e2a565b80156107205780601f106106f557610100808354040283529160200191610720565b820191906000526020600020905b81548152906001019060200180831161070357829003601f168201915b5050505050905090565b600061073582612cf0565b610774576040517f08c379a000000000000000000000000000000000000000000000000000000000815260040161076b90614903565b60405180910390fd5b6004600083815260200190815260200160002060009054906101000a900473ffffffffffffffffffffffffffffffffffffffff169050919050565b60006107ba82611320565b90508073ffffffffffffffffffffffffffffffffffffffff168373ffffffffffffffffffffffffffffffffffffffff16141561082b576040517f08c379a000000000000000000000000000000000000000000000000000000000815260040161082290614963565b60405180910390fd5b8073ffffffffffffffffffffffffffffffffffffffff1661084a612d5c565b73ffffffffffffffffffffffffffffffffffffffff161480610879575061087881610873612d5c565b612ab1565b5b6108b8576040517f08c379a00000000000000000000000000000000000000000000000000000000081526004016108af90614863565b60405180910390fd5b6108c28383612d64565b505050565b600c6020528060005260406000206000915090508060000154908060010180546108f090614e2a565b80601f016020809104026020016040519081016040528092919081815260200182805461091c90614e2a565b80156109695780601f1061093e57610100808354040283529160200191610969565b820191906000526020600020905b81548152906001019060200180831161094c57829003601f168201915b5050505050908060020154908060030160009054906101000a900473ffffffffffffffffffffffffffffffffffffffff16908060040154908060050154908060060160009054906101000a900460ff16905087565b600b6020528060005260406000206000915090508060000154908060010180546109e790614e2a565b80601f0160208091040260200160405190810160405280929190818152602001828054610a1390614e2a565b8015610a605780601f10610a3557610100808354040283529160200191610a60565b820191906000526020600020905b815481529060010190602001808311610a4357829003601f168201915b5050505050908060020160009054906101000a900460ff16908060030154905084565b6000600b60003373ffffffffffffffffffffffffffffffffffffffff1673ffffffffffffffffffffffffffffffffffffffff16815260200190815260200160002060020160009054906101000a900460ff16905090565b610aeb610ae5612d5c565b82612e1d565b610b2a576040517f08c379a0000000000000000000000000000000000000000000000000000000008152600401610b2190614983565b60405180910390fd5b610b35838383612efb565b505050565b610b5583838360405180602001604052806000815250611dd2565b505050565b6060600060095467ffffffffffffffff811115610ba0577f4e487b7100000000000000000000000000000000000000000000000000000000600052604160045260246000fd5b604051908082528060200260200182016040528015610bd957816020015b610bc6613906565b815260200190600190039081610bbe5790505b50905060005b600954811015610eb957600c6000600d60008481526020019081526020016000205481526020019081526020016000206040518061012001604052908160008201548152602001600182018054610c3590614e2a565b80601f0160208091040260200160405190810160405280929190818152602001828054610c6190614e2a565b8015610cae5780601f10610c8357610100808354040283529160200191610cae565b820191906000526020600020905b815481529060010190602001808311610c9157829003601f168201915b50505050508152602001600282015481526020016003820160009054906101000a900473ffffffffffffffffffffffffffffffffffffffff1673ffffffffffffffffffffffffffffffffffffffff1673ffffffffffffffffffffffffffffffffffffffff16815260200160048201548152602001600582015481526020016006820160009054906101000a900460ff1615151515815260200160078201805480602002602001604051908101604052809291908181526020018280548015610dcb57602002820191906000526020600020905b8160009054906101000a900473ffffffffffffffffffffffffffffffffffffffff1673ffffffffffffffffffffffffffffffffffffffff1681526020019060010190808311610d81575b5050505050815260200160088201805480602002602001604051908101604052809291908181526020018280548015610e5957602002820191906000526020600020905b8160009054906101000a900473ffffffffffffffffffffffffffffffffffffffff1673ffffffffffffffffffffffffffffffffffffffff1681526020019060010190808311610e0f575b505050505081525050828281518110610e9b577f4e487b7100000000000000000000000000000000000000000000000000000000600052603260045260246000fd5b60200260200101819052508080610eb190614ea7565b915050610bdf565b508091505090565b600b60003373ffffffffffffffffffffffffffffffffffffffff1673ffffffffffffffffffffffffffffffffffffffff16815260200190815260200160002060020160009054906101000a900460ff16610f50576040517f08c379a0000000000000000000000000000000000000000000000000000000008152600401610f47906147c3565b60405180910390fd5b600c600082815260200190815260200160002060060160009054906101000a900460ff16610fb3576040517f08c379a0000000000000000000000000000000000000000000000000000000008152600401610faa906149a3565b60405180910390fd5b600b60003373ffffffffffffffffffffffffffffffffffffffff1673ffffffffffffffffffffffffffffffffffffffff168152602001908152602001600020600501600082815260200190815260200160002060009054906101000a900460ff1615611054576040517f08c379a000000000000000000000000000000000000000000000000000000000815260040161104b906148c3565b60405180910390fd5b670de0b6b3a7640000600a60009054906101000a900473ffffffffffffffffffffffffffffffffffffffff1673ffffffffffffffffffffffffffffffffffffffff166370a08231336040518263ffffffff1660e01b81526004016110b891906145a4565b60206040518083038186803b1580156110d057600080fd5b505afa1580156110e4573d6000803e3d6000fd5b505050506040513d601f19601f820116820180604052508101906111089190613e68565b1015611149576040517f08c379a000000000000000000000000000000000000000000000000000000000815260040161114090614743565b60405180910390fd5b6001600c600083815260200190815260200160002060050160008282546111709190614c63565b925050819055506001600b60003373ffffffffffffffffffffffffffffffffffffffff1673ffffffffffffffffffffffffffffffffffffffff168152602001908152602001600020600501600083815260200190815260200160002060006101000a81548160ff0219169083151502179055506003600c6000838152602001908152602001600020600501541061131d576000600c600083815260200190815260200160002060060160006101000a81548160ff02191690831515021790555060405180602001604052806000815250600c6000838152602001908152602001600020600101908051906020019061126992919061396a565b50600067016345785d8a00009050600a60009054906101000a900473ffffffffffffffffffffffffffffffffffffffff1673ffffffffffffffffffffffffffffffffffffffff1663943f894b82600c60008681526020019081526020016000206008016040518363ffffffff1660e01b81526004016112e99291906149de565b600060405180830381600087803b15801561130357600080fd5b505af1158015611317573d6000803e3d6000fd5b50505050505b50565b6000806002600084815260200190815260200160002060009054906101000a900473ffffffffffffffffffffffffffffffffffffffff169050600073ffffffffffffffffffffffffffffffffffffffff168173ffffffffffffffffffffffffffffffffffffffff1614156113c9576040517f08c379a00000000000000000000000000000000000000000000000000000000081526004016113c0906148a3565b60405180910390fd5b80915050919050565b60008073ffffffffffffffffffffffffffffffffffffffff168273ffffffffffffffffffffffffffffffffffffffff161415611443576040517f08c379a000000000000000000000000000000000000000000000000000000000815260040161143a90614883565b60405180910390fd5b600360008373ffffffffffffffffffffffffffffffffffffffff1673ffffffffffffffffffffffffffffffffffffffff168152602001908152602001600020549050919050565b600b60003373ffffffffffffffffffffffffffffffffffffffff1673ffffffffffffffffffffffffffffffffffffffff16815260200190815260200160002060020160009054906101000a900460ff16611519576040517f08c379a0000000000000000000000000000000000000000000000000000000008152600401611510906147c3565b60405180910390fd5b600754600c600060075481526020019081526020016000206000018190555033600c6000600754815260200190815260200160002060030160006101000a81548173ffffffffffffffffffffffffffffffffffffffff021916908373ffffffffffffffffffffffffffffffffffffffff1602179055508181600c6000600754815260200190815260200160002060010191906115b69291906139f0565b5042600c60006007548152602001908152602001600020600201819055506000600c60006007548152602001908152602001600020600401819055506000600c60006007548152602001908152602001600020600501819055506001600c6000600754815260200190815260200160002060060160006101000a81548160ff0219169083151502179055506001600b60003373ffffffffffffffffffffffffffffffffffffffff1673ffffffffffffffffffffffffffffffffffffffff1681526020019081526020016000206005016000600754815260200190815260200160002060006101000a81548160ff021916908315150217905550600760008154809291906116c290614ea7565b91905055505050565b6060600180546116da90614e2a565b80601f016020809104026020016040519081016040528092919081815260200182805461170690614e2a565b80156117535780601f1061172857610100808354040283529160200191611753565b820191906000526020600020905b81548152906001019060200180831161173657829003601f168201915b5050505050905090565b600d6020528060005260406000206000915090505481565b60606000600b60003373ffffffffffffffffffffffffffffffffffffffff1673ffffffffffffffffffffffffffffffffffffffff1681526020019081526020016000206003015467ffffffffffffffff8111156117fb577f4e487b7100000000000000000000000000000000000000000000000000000000600052604160045260246000fd5b6040519080825280602002602001820160405280156118295781602001602082028036833780820191505090505b50905060005b600b60003373ffffffffffffffffffffffffffffffffffffffff1673ffffffffffffffffffffffffffffffffffffffff1681526020019081526020016000206003015481101561192557600b60003373ffffffffffffffffffffffffffffffffffffffff1673ffffffffffffffffffffffffffffffffffffffff168152602001908152602001600020600401600082815260200190815260200160002054828281518110611906577f4e487b7100000000000000000000000000000000000000000000000000000000600052603260045260246000fd5b602002602001018181525050808061191d90614ea7565b91505061182f565b508091505090565b61193f611938612d5c565b8383613162565b5050565b600660009054906101000a900473ffffffffffffffffffffffffffffffffffffffff1673ffffffffffffffffffffffffffffffffffffffff163373ffffffffffffffffffffffffffffffffffffffff16146119d3576040517f08c379a00000000000000000000000000000000000000000000000000000000081526004016119ca90614823565b60405180910390fd5b80600a60006101000a81548173ffffffffffffffffffffffffffffffffffffffff021916908373ffffffffffffffffffffffffffffffffffffffff16021790555050565b600b60003373ffffffffffffffffffffffffffffffffffffffff1673ffffffffffffffffffffffffffffffffffffffff16815260200190815260200160002060020160009054906101000a900460ff16611aa6576040517f08c379a0000000000000000000000000000000000000000000000000000000008152600401611a9d906147c3565b60405180910390fd5b600c600082815260200190815260200160002060060160009054906101000a900460ff1615611b0a576040517f08c379a0000000000000000000000000000000000000000000000000000000008152600401611b0190614723565b60405180910390fd5b670de0b6b3a7640000600a60009054906101000a900473ffffffffffffffffffffffffffffffffffffffff1673ffffffffffffffffffffffffffffffffffffffff166370a08231336040518263ffffffff1660e01b8152600401611b6e91906145a4565b60206040518083038186803b158015611b8657600080fd5b505afa158015611b9a573d6000803e3d6000fd5b505050506040513d601f19601f82011682018060405250810190611bbe9190613e68565b1015611bff576040517f08c379a0000000000000000000000000000000000000000000000000000000008152600401611bf690614743565b60405180910390fd5b600a60009054906101000a900473ffffffffffffffffffffffffffffffffffffffff1673ffffffffffffffffffffffffffffffffffffffff166323b872dd33600c600085815260200190815260200160002060030160009054906101000a900473ffffffffffffffffffffffffffffffffffffffff16670c7d713b49da00006040518463ffffffff1660e01b8152600401611c9c939291906145f6565b602060405180830381600087803b158015611cb657600080fd5b505af1158015611cca573d6000803e3d6000fd5b505050506040513d601f19601f82011682018060405250810190611cee9190613d7f565b50600a60009054906101000a900473ffffffffffffffffffffffffffffffffffffffff1673ffffffffffffffffffffffffffffffffffffffff166379cc67903367016345785d8a00006040518363ffffffff1660e01b8152600401611d54929190614679565b600060405180830381600087803b158015611d6e57600080fd5b505af1158015611d82573d6000803e3d6000fd5b5050505042600c6000838152602001908152602001600020600201819055506001600c60008381526020019081526020016000206004016000828254611dc89190614c63565b9250508190555050565b611de3611ddd612d5c565b83612e1d565b611e22576040517f08c379a0000000000000000000000000000000000000000000000000000000008152600401611e1990614983565b60405180910390fd5b611e2e848484846132cf565b50505050565b6060611e3f82612cf0565b611e7e576040517f08c379a0000000000000000000000000000000000000000000000000000000008152600401611e7590614943565b60405180910390fd5b6000611e8861332b565b90506000815111611ea85760405180602001604052806000815250611ed3565b80611eb284613342565b604051602001611ec3929190614580565b6040516020818303038152906040525b915050919050565b6060600b60008373ffffffffffffffffffffffffffffffffffffffff1673ffffffffffffffffffffffffffffffffffffffff1681526020019081526020016000206001018054611f2a90614e2a565b80601f0160208091040260200160405190810160405280929190818152602001828054611f5690614e2a565b8015611fa35780601f10611f7857610100808354040283529160200191611fa3565b820191906000526020600020905b815481529060010190602001808311611f8657829003601f168201915b50505050509050919050565b600b60003373ffffffffffffffffffffffffffffffffffffffff1673ffffffffffffffffffffffffffffffffffffffff16815260200190815260200160002060020160009054906101000a900460ff1661203e576040517f08c379a0000000000000000000000000000000000000000000000000000000008152600401612035906147c3565b60405180910390fd5b600c600082815260200190815260200160002060060160009054906101000a900460ff16156120a2576040517f08c379a000000000000000000000000000000000000000000000000000000000815260040161209990614723565b60405180910390fd5b80600b60003373ffffffffffffffffffffffffffffffffffffffff1673ffffffffffffffffffffffffffffffffffffffff1681526020019081526020016000206004016000600b60003373ffffffffffffffffffffffffffffffffffffffff1673ffffffffffffffffffffffffffffffffffffffff16815260200190815260200160002060030154815260200190815260200160002081905550600b60003373ffffffffffffffffffffffffffffffffffffffff1673ffffffffffffffffffffffffffffffffffffffff168152602001908152602001600020600301600081548092919061218f90614ea7565b919050555050565b6060600060075467ffffffffffffffff8111156121dd577f4e487b7100000000000000000000000000000000000000000000000000000000600052604160045260246000fd5b60405190808252806020026020018201604052801561221657816020015b612203613906565b8152602001906001900390816121fb5790505b50905060005b6007548110156124e357600c6000828152602001908152602001600020604051806101200160405290816000820154815260200160018201805461225f90614e2a565b80601f016020809104026020016040519081016040528092919081815260200182805461228b90614e2a565b80156122d85780601f106122ad576101008083540402835291602001916122d8565b820191906000526020600020905b8154815290600101906020018083116122bb57829003601f168201915b50505050508152602001600282015481526020016003820160009054906101000a900473ffffffffffffffffffffffffffffffffffffffff1673ffffffffffffffffffffffffffffffffffffffff1673ffffffffffffffffffffffffffffffffffffffff16815260200160048201548152602001600582015481526020016006820160009054906101000a900460ff16151515158152602001600782018054806020026020016040519081016040528092919081815260200182805480156123f557602002820191906000526020600020905b8160009054906101000a900473ffffffffffffffffffffffffffffffffffffffff1673ffffffffffffffffffffffffffffffffffffffff16815260200190600101908083116123ab575b505050505081526020016008820180548060200260200160405190810160405280929190818152602001828054801561248357602002820191906000526020600020905b8160009054906101000a900473ffffffffffffffffffffffffffffffffffffffff1673ffffffffffffffffffffffffffffffffffffffff1681526020019060010190808311612439575b5050505050815250508282815181106124c5577f4e487b7100000000000000000000000000000000000000000000000000000000600052603260045260246000fd5b602002602001018190525080806124db90614ea7565b91505061221c565b508091505090565b600b60003373ffffffffffffffffffffffffffffffffffffffff1673ffffffffffffffffffffffffffffffffffffffff16815260200190815260200160002060020160009054906101000a900460ff1661257a576040517f08c379a0000000000000000000000000000000000000000000000000000000008152600401612571906147c3565b60405180910390fd5b600c600082815260200190815260200160002060060160009054906101000a900460ff166125dd576040517f08c379a00000000000000000000000000000000000000000000000000000000081526004016125d4906149a3565b60405180910390fd5b600b60003373ffffffffffffffffffffffffffffffffffffffff1673ffffffffffffffffffffffffffffffffffffffff168152602001908152602001600020600501600082815260200190815260200160002060009054906101000a900460ff161561267e576040517f08c379a0000000000000000000000000000000000000000000000000000000008152600401612675906148c3565b60405180910390fd5b68056bc75e2d63100000600a60009054906101000a900473ffffffffffffffffffffffffffffffffffffffff1673ffffffffffffffffffffffffffffffffffffffff166370a08231336040518263ffffffff1660e01b81526004016126e391906145a4565b60206040518083038186803b1580156126fb57600080fd5b505afa15801561270f573d6000803e3d6000fd5b505050506040513d601f19601f820116820180604052508101906127339190613e68565b1015612774576040517f08c379a000000000000000000000000000000000000000000000000000000000815260040161276b90614743565b60405180910390fd5b600a60009054906101000a900473ffffffffffffffffffffffffffffffffffffffff1673ffffffffffffffffffffffffffffffffffffffff166323b872dd3330670de0b6b3a76400006040518463ffffffff1660e01b81526004016127db939291906145bf565b602060405180830381600087803b1580156127f557600080fd5b505af1158015612809573d6000803e3d6000fd5b505050506040513d601f19601f8201168201806040525081019061282d9190613d7f565b506001600c600083815260200190815260200160002060040160008282546128559190614c63565b92505081905550600c6000828152602001908152602001600020600701339080600181540180825580915050600190039060005260206000200160009091909190916101000a81548173ffffffffffffffffffffffffffffffffffffffff021916908373ffffffffffffffffffffffffffffffffffffffff1602179055506001600b60003373ffffffffffffffffffffffffffffffffffffffff1673ffffffffffffffffffffffffffffffffffffffff168152602001908152602001600020600501600083815260200190815260200160002060006101000a81548160ff0219169083151502179055506003600c60008381526020019081526020016000206004015410612aae576000600c600083815260200190815260200160002060060160006101000a81548160ff02191690831515021790555080600d60006009548152602001908152602001600020819055506129e6600c600083815260200190815260200160002060030160009054906101000a900473ffffffffffffffffffffffffffffffffffffffff16826134ef565b600067016345785d8a00009050600a60009054906101000a900473ffffffffffffffffffffffffffffffffffffffff1673ffffffffffffffffffffffffffffffffffffffff1663943f894b82600c60008681526020019081526020016000206007016040518363ffffffff1660e01b8152600401612a659291906149de565b600060405180830381600087803b158015612a7f57600080fd5b505af1158015612a93573d6000803e3d6000fd5b505050506001600954612aa69190614c63565b600981905550505b50565b6000600560008473ffffffffffffffffffffffffffffffffffffffff1673ffffffffffffffffffffffffffffffffffffffff16815260200190815260200160002060008373ffffffffffffffffffffffffffffffffffffffff1673ffffffffffffffffffffffffffffffffffffffff16815260200190815260200160002060009054906101000a900460ff16905092915050565b600b60003373ffffffffffffffffffffffffffffffffffffffff1673ffffffffffffffffffffffffffffffffffffffff16815260200190815260200160002060020160009054906101000a900460ff1615612bd5576040517f08c379a0000000000000000000000000000000000000000000000000000000008152600401612bcc90614923565b60405180910390fd5b6001600b60003373ffffffffffffffffffffffffffffffffffffffff1673ffffffffffffffffffffffffffffffffffffffff16815260200190815260200160002060020160006101000a81548160ff0219169083151502179055508181600b60003373ffffffffffffffffffffffffffffffffffffffff1673ffffffffffffffffffffffffffffffffffffffff1681526020019081526020016000206001019190612c819291906139f0565b505050565b60007f01ffc9a7000000000000000000000000000000000000000000000000000000007bffffffffffffffffffffffffffffffffffffffffffffffffffffffff1916827bffffffffffffffffffffffffffffffffffffffffffffffffffffffff1916149050919050565b60008073ffffffffffffffffffffffffffffffffffffffff166002600084815260200190815260200160002060009054906101000a900473ffffffffffffffffffffffffffffffffffffffff1673ffffffffffffffffffffffffffffffffffffffff1614159050919050565b600033905090565b816004600083815260200190815260200160002060006101000a81548173ffffffffffffffffffffffffffffffffffffffff021916908373ffffffffffffffffffffffffffffffffffffffff160217905550808273ffffffffffffffffffffffffffffffffffffffff16612dd783611320565b73ffffffffffffffffffffffffffffffffffffffff167f8c5be1e5ebec7d5bd14f71427d1e84f3dd0314c0f7b2291e5b200ac8c7c3b92560405160405180910390a45050565b6000612e2882612cf0565b612e67576040517f08c379a0000000000000000000000000000000000000000000000000000000008152600401612e5e90614843565b60405180910390fd5b6000612e7283611320565b90508073ffffffffffffffffffffffffffffffffffffffff168473ffffffffffffffffffffffffffffffffffffffff161480612ee157508373ffffffffffffffffffffffffffffffffffffffff16612ec98461072a565b73ffffffffffffffffffffffffffffffffffffffff16145b80612ef25750612ef18185612ab1565b5b91505092915050565b8273ffffffffffffffffffffffffffffffffffffffff16612f1b82611320565b73ffffffffffffffffffffffffffffffffffffffff1614612f71576040517f08c379a0000000000000000000000000000000000000000000000000000000008152600401612f6890614783565b60405180910390fd5b600073ffffffffffffffffffffffffffffffffffffffff168273ffffffffffffffffffffffffffffffffffffffff161415612fe1576040517f08c379a0000000000000000000000000000000000000000000000000000000008152600401612fd8906147e3565b60405180910390fd5b612fec83838361350d565b612ff7600082612d64565b6001600360008573ffffffffffffffffffffffffffffffffffffffff1673ffffffffffffffffffffffffffffffffffffffff16815260200190815260200160002060008282546130479190614cea565b925050819055506001600360008473ffffffffffffffffffffffffffffffffffffffff1673ffffffffffffffffffffffffffffffffffffffff168152602001908152602001600020600082825461309e9190614c63565b92505081905550816002600083815260200190815260200160002060006101000a81548173ffffffffffffffffffffffffffffffffffffffff021916908373ffffffffffffffffffffffffffffffffffffffff160217905550808273ffffffffffffffffffffffffffffffffffffffff168473ffffffffffffffffffffffffffffffffffffffff167fddf252ad1be2c89b69c2b068fc378daa952ba7f163c4a11628f55a4df523b3ef60405160405180910390a461315d838383613512565b505050565b8173ffffffffffffffffffffffffffffffffffffffff168373ffffffffffffffffffffffffffffffffffffffff1614156131d1576040517f08c379a00000000000000000000000000000000000000000000000000000000081526004016131c890614803565b60405180910390fd5b80600560008573ffffffffffffffffffffffffffffffffffffffff1673ffffffffffffffffffffffffffffffffffffffff16815260200190815260200160002060008473ffffffffffffffffffffffffffffffffffffffff1673ffffffffffffffffffffffffffffffffffffffff16815260200190815260200160002060006101000a81548160ff0219169083151502179055508173ffffffffffffffffffffffffffffffffffffffff168373ffffffffffffffffffffffffffffffffffffffff167f17307eab39ab6107e8899845ad3d59bd9653f200f220920489ca2b5937696c31836040516132c291906146e6565b60405180910390a3505050565b6132da848484612efb565b6132e684848484613517565b613325576040517f08c379a000000000000000000000000000000000000000000000000000000000815260040161331c90614763565b60405180910390fd5b50505050565b606060405180602001604052806000815250905090565b6060600082141561338a576040518060400160405280600181526020017f300000000000000000000000000000000000000000000000000000000000000081525090506134ea565b600082905060005b600082146133bc5780806133a590614ea7565b915050600a826133b59190614cb9565b9150613392565b60008167ffffffffffffffff8111156133fe577f4e487b7100000000000000000000000000000000000000000000000000000000600052604160045260246000fd5b6040519080825280601f01601f1916602001820160405280156134305781602001600182028036833780820191505090505b5090505b600085146134e3576001826134499190614cea565b9150600a856134589190614ef0565b60306134649190614c63565b60f81b8183815181106134a0577f4e487b7100000000000000000000000000000000000000000000000000000000600052603260045260246000fd5b60200101907effffffffffffffffffffffffffffffffffffffffffffffffffffffffffffff1916908160001a905350600a856134dc9190614cb9565b9450613434565b8093505050505b919050565b6135098282604051806020016040528060008152506136ae565b5050565b505050565b505050565b60006135388473ffffffffffffffffffffffffffffffffffffffff16613709565b156136a1578373ffffffffffffffffffffffffffffffffffffffff1663150b7a02613561612d5c565b8786866040518563ffffffff1660e01b8152600401613583949392919061462d565b602060405180830381600087803b15801561359d57600080fd5b505af19250505080156135ce57506040513d601f19601f820116820180604052508101906135cb9190613dd1565b60015b613651573d80600081146135fe576040519150601f19603f3d011682016040523d82523d6000602084013e613603565b606091505b50600081511415613649576040517f08c379a000000000000000000000000000000000000000000000000000000000815260040161364090614763565b60405180910390fd5b805181602001fd5b63150b7a0260e01b7bffffffffffffffffffffffffffffffffffffffffffffffffffffffff1916817bffffffffffffffffffffffffffffffffffffffffffffffffffffffff1916149150506136a6565b600190505b949350505050565b6136b8838361372c565b6136c56000848484613517565b613704576040517f08c379a00000000000000000000000000000000000000000000000000000000081526004016136fb90614763565b60405180910390fd5b505050565b6000808273ffffffffffffffffffffffffffffffffffffffff163b119050919050565b600073ffffffffffffffffffffffffffffffffffffffff168273ffffffffffffffffffffffffffffffffffffffff16141561379c576040517f08c379a0000000000000000000000000000000000000000000000000000000008152600401613793906148e3565b60405180910390fd5b6137a581612cf0565b156137e5576040517f08c379a00000000000000000000000000000000000000000000000000000000081526004016137dc906147a3565b60405180910390fd5b6137f16000838361350d565b6001600360008473ffffffffffffffffffffffffffffffffffffffff1673ffffffffffffffffffffffffffffffffffffffff16815260200190815260200160002060008282546138419190614c63565b92505081905550816002600083815260200190815260200160002060006101000a81548173ffffffffffffffffffffffffffffffffffffffff021916908373ffffffffffffffffffffffffffffffffffffffff160217905550808273ffffffffffffffffffffffffffffffffffffffff16600073ffffffffffffffffffffffffffffffffffffffff167fddf252ad1be2c89b69c2b068fc378daa952ba7f163c4a11628f55a4df523b3ef60405160405180910390a461390260008383613512565b5050565b604051806101200160405280600081526020016060815260200160008152602001600073ffffffffffffffffffffffffffffffffffffffff168152602001600081526020016000815260200160001515815260200160608152602001606081525090565b82805461397690614e2a565b90600052602060002090601f01602090048101928261399857600085556139df565b82601f106139b157805160ff19168380011785556139df565b828001600101855582156139df579182015b828111156139de5782518255916020019190600101906139c3565b5b5090506139ec9190613a76565b5090565b8280546139fc90614e2a565b90600052602060002090601f016020900481019282613a1e5760008555613a65565b82601f10613a3757803560ff1916838001178555613a65565b82800160010185558215613a65579182015b82811115613a64578235825591602001919060010190613a49565b5b509050613a729190613a76565b5090565b5b80821115613a8f576000816000905550600101613a77565b5090565b6000613aa6613aa184614af5565b614ad0565b905082815260208101848484011115613abe57600080fd5b613ac9848285614de8565b509392505050565b600081359050613ae081615559565b92915050565b600081359050613af581615570565b92915050565b600081519050613b0a81615570565b92915050565b600081359050613b1f81615587565b92915050565b600081519050613b3481615587565b92915050565b600082601f830112613b4b57600080fd5b8135613b5b848260208601613a93565b91505092915050565b60008083601f840112613b7657600080fd5b8235905067ffffffffffffffff811115613b8f57600080fd5b602083019150836001820283011115613ba757600080fd5b9250929050565b600081359050613bbd8161559e565b92915050565b600081519050613bd28161559e565b92915050565b600060208284031215613bea57600080fd5b6000613bf884828501613ad1565b91505092915050565b60008060408385031215613c1457600080fd5b6000613c2285828601613ad1565b9250506020613c3385828601613ad1565b9150509250929050565b600080600060608486031215613c5257600080fd5b6000613c6086828701613ad1565b9350506020613c7186828701613ad1565b9250506040613c8286828701613bae565b9150509250925092565b60008060008060808587031215613ca257600080fd5b6000613cb087828801613ad1565b9450506020613cc187828801613ad1565b9350506040613cd287828801613bae565b925050606085013567ffffffffffffffff811115613cef57600080fd5b613cfb87828801613b3a565b91505092959194509250565b60008060408385031215613d1a57600080fd5b6000613d2885828601613ad1565b9250506020613d3985828601613ae6565b9150509250929050565b60008060408385031215613d5657600080fd5b6000613d6485828601613ad1565b9250506020613d7585828601613bae565b9150509250929050565b600060208284031215613d9157600080fd5b6000613d9f84828501613afb565b91505092915050565b600060208284031215613dba57600080fd5b6000613dc884828501613b10565b91505092915050565b600060208284031215613de357600080fd5b6000613df184828501613b25565b91505092915050565b60008060208385031215613e0d57600080fd5b600083013567ffffffffffffffff811115613e2757600080fd5b613e3385828601613b64565b92509250509250929050565b600060208284031215613e5157600080fd5b6000613e5f84828501613bae565b91505092915050565b600060208284031215613e7a57600080fd5b6000613e8884828501613bc3565b91505092915050565b6000613e9d8383613ed5565b60208301905092915050565b6000613eb5838361448f565b905092915050565b6000613ec98383614562565b60208301905092915050565b613ede81614d3e565b82525050565b613eed81614d3e565b82525050565b6000613efe82614b6b565b613f088185614be1565b9350613f1383614b26565b8060005b83811015613f44578151613f2b8882613e91565b9750613f3683614bad565b925050600181019050613f17565b5085935050505092915050565b6000613f5c82614b76565b613f668185614bf2565b9350613f7183614b36565b8060005b83811015613fa957613f8682614fdd565b613f908882613e91565b9750613f9b83614bba565b925050600181019050613f75565b5085935050505092915050565b6000613fc182614b81565b613fcb8185614c03565b935083602082028501613fdd85614b4b565b8060005b858110156140195784840389528151613ffa8582613ea9565b945061400583614bc7565b925060208a01995050600181019050613fe1565b50829750879550505050505092915050565b600061403682614b8c565b6140408185614c14565b935061404b83614b5b565b8060005b8381101561407c5781516140638882613ebd565b975061406e83614bd4565b92505060018101905061404f565b5085935050505092915050565b61409281614d50565b82525050565b6140a181614d50565b82525050565b60006140b282614b97565b6140bc8185614c25565b93506140cc818560208601614df7565b6140d581614ff0565b840191505092915050565b6140e981614db2565b82525050565b6140f881614dc4565b82525050565b61410781614dd6565b82525050565b600061411882614ba2565b6141228185614c36565b9350614132818560208601614df7565b61413b81614ff0565b840191505092915050565b600061415182614ba2565b61415b8185614c47565b935061416b818560208601614df7565b61417481614ff0565b840191505092915050565b600061418a82614ba2565b6141948185614c58565b93506141a4818560208601614df7565b80840191505092915050565b60006141bd601683614c47565b91506141c88261500e565b602082019050919050565b60006141e0601f83614c47565b91506141eb82615037565b602082019050919050565b6000614203603283614c47565b915061420e82615060565b604082019050919050565b6000614226602583614c47565b9150614231826150af565b604082019050919050565b6000614249601c83614c47565b9150614254826150fe565b602082019050919050565b600061426c601983614c47565b915061427782615127565b602082019050919050565b600061428f602483614c47565b915061429a82615150565b604082019050919050565b60006142b2601983614c47565b91506142bd8261519f565b602082019050919050565b60006142d5601583614c47565b91506142e0826151c8565b602082019050919050565b60006142f8602c83614c47565b9150614303826151f1565b604082019050919050565b600061431b603883614c47565b915061432682615240565b604082019050919050565b600061433e602a83614c47565b91506143498261528f565b604082019050919050565b6000614361602983614c47565b915061436c826152de565b604082019050919050565b6000614384602783614c47565b915061438f8261532d565b604082019050919050565b60006143a7602083614c47565b91506143b28261537c565b602082019050919050565b60006143ca602c83614c47565b91506143d5826153a5565b604082019050919050565b60006143ed601b83614c47565b91506143f8826153f4565b602082019050919050565b6000614410602f83614c47565b915061441b8261541d565b604082019050919050565b6000614433602183614c47565b915061443e8261546c565b604082019050919050565b6000614456603183614c47565b9150614461826154bb565b604082019050919050565b6000614479602883614c47565b91506144848261550a565b604082019050919050565b6000610120830160008301516144a86000860182614562565b50602083015184820360208601526144c0828261410d565b91505060408301516144d56040860182614562565b5060608301516144e86060860182613ed5565b5060808301516144fb6080860182614562565b5060a083015161450e60a0860182614562565b5060c083015161452160c0860182614089565b5060e083015184820360e08601526145398282613ef3565b9150506101008301518482036101008601526145558282613ef3565b9150508091505092915050565b61456b81614da8565b82525050565b61457a81614da8565b82525050565b600061458c828561417f565b9150614598828461417f565b91508190509392505050565b60006020820190506145b96000830184613ee4565b92915050565b60006060820190506145d46000830186613ee4565b6145e16020830185613ee4565b6145ee60408301846140e0565b949350505050565b600060608201905061460b6000830186613ee4565b6146186020830185613ee4565b61462560408301846140fe565b949350505050565b60006080820190506146426000830187613ee4565b61464f6020830186613ee4565b61465c6040830185614571565b818103606083015261466e81846140a7565b905095945050505050565b600060408201905061468e6000830185613ee4565b61469b60208301846140ef565b9392505050565b600060208201905081810360008301526146bc8184613fb6565b905092915050565b600060208201905081810360008301526146de818461402b565b905092915050565b60006020820190506146fb6000830184614098565b92915050565b6000602082019050818103600083015261471b8184614146565b905092915050565b6000602082019050818103600083015261473c816141b0565b9050919050565b6000602082019050818103600083015261475c816141d3565b9050919050565b6000602082019050818103600083015261477c816141f6565b9050919050565b6000602082019050818103600083015261479c81614219565b9050919050565b600060208201905081810360008301526147bc8161423c565b9050919050565b600060208201905081810360008301526147dc8161425f565b9050919050565b600060208201905081810360008301526147fc81614282565b9050919050565b6000602082019050818103600083015261481c816142a5565b9050919050565b6000602082019050818103600083015261483c816142c8565b9050919050565b6000602082019050818103600083015261485c816142eb565b9050919050565b6000602082019050818103600083015261487c8161430e565b9050919050565b6000602082019050818103600083015261489c81614331565b9050919050565b600060208201905081810360008301526148bc81614354565b9050919050565b600060208201905081810360008301526148dc81614377565b9050919050565b600060208201905081810360008301526148fc8161439a565b9050919050565b6000602082019050818103600083015261491c816143bd565b9050919050565b6000602082019050818103600083015261493c816143e0565b9050919050565b6000602082019050818103600083015261495c81614403565b9050919050565b6000602082019050818103600083015261497c81614426565b9050919050565b6000602082019050818103600083015261499c81614449565b9050919050565b600060208201905081810360008301526149bc8161446c565b9050919050565b60006020820190506149d86000830184614571565b92915050565b60006040820190506149f36000830185614571565b8181036020830152614a058184613f51565b90509392505050565b6000608082019050614a236000830187614571565b8181036020830152614a358186614146565b9050614a446040830185614098565b614a516060830184614571565b95945050505050565b600060e082019050614a6f600083018a614571565b8181036020830152614a818189614146565b9050614a906040830188614571565b614a9d6060830187613ee4565b614aaa6080830186614571565b614ab760a0830185614571565b614ac460c0830184614098565b98975050505050505050565b6000614ada614aeb565b9050614ae68282614e76565b919050565b6000604051905090565b600067ffffffffffffffff821115614b1057614b0f614fae565b5b614b1982614ff0565b9050602081019050919050565b6000819050602082019050919050565b60008190508160005260206000209050919050565b6000819050602082019050919050565b6000819050602082019050919050565b600081519050919050565b600081549050919050565b600081519050919050565b600081519050919050565b600081519050919050565b600081519050919050565b6000602082019050919050565b6000600182019050919050565b6000602082019050919050565b6000602082019050919050565b600082825260208201905092915050565b600082825260208201905092915050565b600082825260208201905092915050565b600082825260208201905092915050565b600082825260208201905092915050565b600082825260208201905092915050565b600082825260208201905092915050565b600081905092915050565b6000614c6e82614da8565b9150614c7983614da8565b9250827fffffffffffffffffffffffffffffffffffffffffffffffffffffffffffffffff03821115614cae57614cad614f21565b5b828201905092915050565b6000614cc482614da8565b9150614ccf83614da8565b925082614cdf57614cde614f50565b5b828204905092915050565b6000614cf582614da8565b9150614d0083614da8565b925082821015614d1357614d12614f21565b5b828203905092915050565b600073ffffffffffffffffffffffffffffffffffffffff82169050919050565b6000614d4982614d88565b9050919050565b60008115159050919050565b60007fffffffff0000000000000000000000000000000000000000000000000000000082169050919050565b600073ffffffffffffffffffffffffffffffffffffffff82169050919050565b6000819050919050565b6000614dbd82614da8565b9050919050565b6000614dcf82614da8565b9050919050565b6000614de182614da8565b9050919050565b82818337600083830152505050565b60005b83811015614e15578082015181840152602081019050614dfa565b83811115614e24576000848401525b50505050565b60006002820490506001821680614e4257607f821691505b60208210811415614e5657614e55614f7f565b5b50919050565b6000614e6f614e6a83615001565b614d1e565b9050919050565b614e7f82614ff0565b810181811067ffffffffffffffff82111715614e9e57614e9d614fae565b5b80604052505050565b6000614eb282614da8565b91507fffffffffffffffffffffffffffffffffffffffffffffffffffffffffffffffff821415614ee557614ee4614f21565b5b600182019050919050565b6000614efb82614da8565b9150614f0683614da8565b925082614f1657614f15614f50565b5b828206905092915050565b7f4e487b7100000000000000000000000000000000000000000000000000000000600052601160045260246000fd5b7f4e487b7100000000000000000000000000000000000000000000000000000000600052601260045260246000fd5b7f4e487b7100000000000000000000000000000000000000000000000000000000600052602260045260246000fd5b7f4e487b7100000000000000000000000000000000000000000000000000000000600052604160045260246000fd5b6000614fe98254614e5c565b9050919050565b6000601f19601f8301169050919050565b60008160001c9050919050565b7f506f7374206973206e6f74206163746976652079657400000000000000000000600082015250565b7f596f7520646964206e6f74206861766520656e6f7567682062616c616e636500600082015250565b7f4552433732313a207472616e7366657220746f206e6f6e20455243373231526560008201527f63656976657220696d706c656d656e7465720000000000000000000000000000602082015250565b7f4552433732313a207472616e736665722066726f6d20696e636f72726563742060008201527f6f776e6572000000000000000000000000000000000000000000000000000000602082015250565b7f4552433732313a20746f6b656e20616c7265616479206d696e74656400000000600082015250565b7f596f75206861766520746f207369676e20757020666972737400000000000000600082015250565b7f4552433732313a207472616e7366657220746f20746865207a65726f2061646460008201527f7265737300000000000000000000000000000000000000000000000000000000602082015250565b7f4552433732313a20617070726f766520746f2063616c6c657200000000000000600082015250565b7f596f7520617265206e6f7420746865206f776e65720000000000000000000000600082015250565b7f4552433732313a206f70657261746f7220717565727920666f72206e6f6e657860008201527f697374656e7420746f6b656e0000000000000000000000000000000000000000602082015250565b7f4552433732313a20617070726f76652063616c6c6572206973206e6f74206f7760008201527f6e6572206e6f7220617070726f76656420666f7220616c6c0000000000000000602082015250565b7f4552433732313a2062616c616e636520717565727920666f7220746865207a6560008201527f726f206164647265737300000000000000000000000000000000000000000000602082015250565b7f4552433732313a206f776e657220717565727920666f72206e6f6e657869737460008201527f656e7420746f6b656e0000000000000000000000000000000000000000000000602082015250565b7f596f7520616c7265616479206c696b6564206f72206469736c696b652074686960008201527f7320706f73742100000000000000000000000000000000000000000000000000602082015250565b7f4552433732313a206d696e7420746f20746865207a65726f2061646472657373600082015250565b7f4552433732313a20617070726f76656420717565727920666f72206e6f6e657860008201527f697374656e7420746f6b656e0000000000000000000000000000000000000000602082015250565b7f596f7520616c7265616479206861766520612070726f66696c65210000000000600082015250565b7f4552433732314d657461646174613a2055524920717565727920666f72206e6f60008201527f6e6578697374656e7420746f6b656e0000000000000000000000000000000000602082015250565b7f4552433732313a20617070726f76616c20746f2063757272656e74206f776e6560008201527f7200000000000000000000000000000000000000000000000000000000000000602082015250565b7f4552433732313a207472616e736665722063616c6c6572206973206e6f74206f60008201527f776e6572206e6f7220617070726f766564000000000000000000000000000000602082015250565b7f506f7374206973206e6f7420617661696c61626c6520666f7220766f74696e6760008201527f20616e796d6f7265000000000000000000000000000000000000000000000000602082015250565b61556281614d3e565b811461556d57600080fd5b50565b61557981614d50565b811461558457600080fd5b50565b61559081614d5c565b811461559b57600080fd5b50565b6155a781614da8565b81146155b257600080fd5b5056fea26469706673582212200a35e8c1d817ae18db63bc4859e2c35ddb4d1ded2da8fed9f6897574a787eb9f64736f6c63430008040033",
  "linkReferences": {},
  "deployedLinkReferences": {}
}