{
  "_format": "hh-sol-artifact-1",
  "contractName": "SocialMedia",
  "sourceName": "contracts/SocialMedia.sol",
  "abi": [
    {
      "inputs": [],
      "stateMutability": "nonpayable",
      "type": "constructor"
    },
    {
      "anonymous": false,
      "inputs": [
        {
          "indexed": true,
          "internalType": "address",
          "name": "owner",
          "type": "address"
        },
        {
          "indexed": true,
          "internalType": "address",
          "name": "approved",
          "type": "address"
        },
        {
          "indexed": true,
          "internalType": "uint256",
          "name": "tokenId",
          "type": "uint256"
        }
      ],
      "name": "Approval",
      "type": "event"
    },
    {
      "anonymous": false,
      "inputs": [
        {
          "indexed": true,
          "internalType": "address",
          "name": "owner",
          "type": "address"
        },
        {
          "indexed": true,
          "internalType": "address",
          "name": "operator",
          "type": "address"
        },
        {
          "indexed": false,
          "internalType": "bool",
          "name": "approved",
          "type": "bool"
        }
      ],
      "name": "ApprovalForAll",
      "type": "event"
    },
    {
      "anonymous": false,
      "inputs": [
        {
          "indexed": true,
          "internalType": "address",
          "name": "from",
          "type": "address"
        },
        {
          "indexed": true,
          "internalType": "address",
          "name": "to",
          "type": "address"
        },
        {
          "indexed": true,
          "internalType": "uint256",
          "name": "tokenId",
          "type": "uint256"
        }
      ],
      "name": "Transfer",
      "type": "event"
    },
    {
      "inputs": [
        {
          "internalType": "address",
          "name": "to",
          "type": "address"
        },
        {
          "internalType": "uint256",
          "name": "tokenId",
          "type": "uint256"
        }
      ],
      "name": "approve",
      "outputs": [],
      "stateMutability": "nonpayable",
      "type": "function"
    },
    {
      "inputs": [
        {
          "internalType": "address",
          "name": "owner",
          "type": "address"
        }
      ],
      "name": "balanceOf",
      "outputs": [
        {
          "internalType": "uint256",
          "name": "",
          "type": "uint256"
        }
      ],
      "stateMutability": "view",
      "type": "function"
    },
    {
      "inputs": [
        {
          "internalType": "uint256",
          "name": "_postId",
          "type": "uint256"
        }
      ],
      "name": "dislike",
      "outputs": [],
      "stateMutability": "nonpayable",
      "type": "function"
    },
    {
      "inputs": [],
      "name": "getAllMintedPost",
      "outputs": [
        {
          "components": [
            {
              "internalType": "uint256",
              "name": "postId",
              "type": "uint256"
            },
            {
              "internalType": "string",
              "name": "content",
              "type": "string"
            },
            {
              "internalType": "uint256",
              "name": "date",
              "type": "uint256"
            },
            {
              "internalType": "address",
              "name": "owner",
              "type": "address"
            },
            {
              "internalType": "uint256",
              "name": "like",
              "type": "uint256"
            },
            {
              "internalType": "uint256",
              "name": "dislike",
              "type": "uint256"
            },
            {
              "internalType": "bool",
              "name": "isActive",
              "type": "bool"
            },
            {
              "internalType": "address[]",
              "name": "likers",
              "type": "address[]"
            }
          ],
          "internalType": "struct SocialMedia.post[]",
          "name": "",
          "type": "tuple[]"
        }
      ],
      "stateMutability": "view",
      "type": "function"
    },
    {
      "inputs": [],
      "name": "getAllPost",
      "outputs": [
        {
          "components": [
            {
              "internalType": "uint256",
              "name": "postId",
              "type": "uint256"
            },
            {
              "internalType": "string",
              "name": "content",
              "type": "string"
            },
            {
              "internalType": "uint256",
              "name": "date",
              "type": "uint256"
            },
            {
              "internalType": "address",
              "name": "owner",
              "type": "address"
            },
            {
              "internalType": "uint256",
              "name": "like",
              "type": "uint256"
            },
            {
              "internalType": "uint256",
              "name": "dislike",
              "type": "uint256"
            },
            {
              "internalType": "bool",
              "name": "isActive",
              "type": "bool"
            },
            {
              "internalType": "address[]",
              "name": "likers",
              "type": "address[]"
            }
          ],
          "internalType": "struct SocialMedia.post[]",
          "name": "",
          "type": "tuple[]"
        }
      ],
      "stateMutability": "view",
      "type": "function"
    },
    {
      "inputs": [
        {
          "internalType": "uint256",
          "name": "tokenId",
          "type": "uint256"
        }
      ],
      "name": "getApproved",
      "outputs": [
        {
          "internalType": "address",
          "name": "",
          "type": "address"
        }
      ],
      "stateMutability": "view",
      "type": "function"
    },
    {
      "inputs": [],
      "name": "getDescription",
      "outputs": [
        {
          "internalType": "string",
          "name": "",
          "type": "string"
        }
      ],
      "stateMutability": "view",
      "type": "function"
    },
    {
      "inputs": [],
      "name": "getUsername",
      "outputs": [
        {
          "internalType": "string",
          "name": "",
          "type": "string"
        }
      ],
      "stateMutability": "view",
      "type": "function"
    },
    {
      "inputs": [
        {
          "internalType": "address",
          "name": "owner",
          "type": "address"
        },
        {
          "internalType": "address",
          "name": "operator",
          "type": "address"
        }
      ],
      "name": "isApprovedForAll",
      "outputs": [
        {
          "internalType": "bool",
          "name": "",
          "type": "bool"
        }
      ],
      "stateMutability": "view",
      "type": "function"
    },
    {
      "inputs": [],
      "name": "isRegistered",
      "outputs": [
        {
          "internalType": "bool",
          "name": "",
          "type": "bool"
        }
      ],
      "stateMutability": "view",
      "type": "function"
    },
    {
      "inputs": [
        {
          "internalType": "uint256",
          "name": "_postId",
          "type": "uint256"
        }
      ],
      "name": "like",
      "outputs": [],
      "stateMutability": "nonpayable",
      "type": "function"
    },
    {
      "inputs": [
        {
          "internalType": "uint256",
          "name": "_postId",
          "type": "uint256"
        }
      ],
      "name": "likeMinted",
      "outputs": [],
      "stateMutability": "nonpayable",
      "type": "function"
    },
    {
      "inputs": [
        {
          "internalType": "address",
          "name": "",
          "type": "address"
        },
        {
          "internalType": "uint256",
          "name": "",
          "type": "uint256"
        }
      ],
      "name": "listOfLikedPost",
      "outputs": [
        {
          "internalType": "uint256",
          "name": "",
          "type": "uint256"
        }
      ],
      "stateMutability": "view",
      "type": "function"
    },
    {
      "inputs": [
        {
          "internalType": "uint256",
          "name": "",
          "type": "uint256"
        },
        {
          "internalType": "uint256",
          "name": "",
          "type": "uint256"
        }
      ],
      "name": "listOfPostLikers",
      "outputs": [
        {
          "internalType": "address",
          "name": "",
          "type": "address"
        }
      ],
      "stateMutability": "view",
      "type": "function"
    },
    {
      "inputs": [
        {
          "internalType": "uint256",
          "name": "",
          "type": "uint256"
        }
      ],
      "name": "mintedId",
      "outputs": [
        {
          "internalType": "uint256",
          "name": "",
          "type": "uint256"
        }
      ],
      "stateMutability": "view",
      "type": "function"
    },
    {
      "inputs": [],
      "name": "name",
      "outputs": [
        {
          "internalType": "string",
          "name": "",
          "type": "string"
        }
      ],
      "stateMutability": "view",
      "type": "function"
    },
    {
      "inputs": [
        {
          "internalType": "uint256",
          "name": "tokenId",
          "type": "uint256"
        }
      ],
      "name": "ownerOf",
      "outputs": [
        {
          "internalType": "address",
          "name": "",
          "type": "address"
        }
      ],
      "stateMutability": "view",
      "type": "function"
    },
    {
      "inputs": [
        {
          "internalType": "uint256",
          "name": "",
          "type": "uint256"
        }
      ],
      "name": "posts",
      "outputs": [
        {
          "internalType": "uint256",
          "name": "postId",
          "type": "uint256"
        },
        {
          "internalType": "string",
          "name": "content",
          "type": "string"
        },
        {
          "internalType": "uint256",
          "name": "date",
          "type": "uint256"
        },
        {
          "internalType": "address",
          "name": "owner",
          "type": "address"
        },
        {
          "internalType": "uint256",
          "name": "like",
          "type": "uint256"
        },
        {
          "internalType": "uint256",
          "name": "dislike",
          "type": "uint256"
        },
        {
          "internalType": "bool",
          "name": "isActive",
          "type": "bool"
        }
      ],
      "stateMutability": "view",
      "type": "function"
    },
    {
      "inputs": [
        {
          "internalType": "string",
          "name": "_username",
          "type": "string"
        },
        {
          "internalType": "string",
          "name": "_description",
          "type": "string"
        }
      ],
      "name": "register",
      "outputs": [],
      "stateMutability": "nonpayable",
      "type": "function"
    },
    {
      "inputs": [
        {
          "internalType": "address",
          "name": "from",
          "type": "address"
        },
        {
          "internalType": "address",
          "name": "to",
          "type": "address"
        },
        {
          "internalType": "uint256",
          "name": "tokenId",
          "type": "uint256"
        }
      ],
      "name": "safeTransferFrom",
      "outputs": [],
      "stateMutability": "nonpayable",
      "type": "function"
    },
    {
      "inputs": [
        {
          "internalType": "address",
          "name": "from",
          "type": "address"
        },
        {
          "internalType": "address",
          "name": "to",
          "type": "address"
        },
        {
          "internalType": "uint256",
          "name": "tokenId",
          "type": "uint256"
        },
        {
          "internalType": "bytes",
          "name": "_data",
          "type": "bytes"
        }
      ],
      "name": "safeTransferFrom",
      "outputs": [],
      "stateMutability": "nonpayable",
      "type": "function"
    },
    {
      "inputs": [
        {
          "internalType": "address",
          "name": "operator",
          "type": "address"
        },
        {
          "internalType": "bool",
          "name": "approved",
          "type": "bool"
        }
      ],
      "name": "setApprovalForAll",
      "outputs": [],
      "stateMutability": "nonpayable",
      "type": "function"
    },
    {
      "inputs": [
        {
          "internalType": "address",
          "name": "_contractAddress",
          "type": "address"
        }
      ],
      "name": "setTokenContractAddress",
      "outputs": [],
      "stateMutability": "nonpayable",
      "type": "function"
    },
    {
      "inputs": [
        {
          "internalType": "bytes4",
          "name": "interfaceId",
          "type": "bytes4"
        }
      ],
      "name": "supportsInterface",
      "outputs": [
        {
          "internalType": "bool",
          "name": "",
          "type": "bool"
        }
      ],
      "stateMutability": "view",
      "type": "function"
    },
    {
      "inputs": [],
      "name": "symbol",
      "outputs": [
        {
          "internalType": "string",
          "name": "",
          "type": "string"
        }
      ],
      "stateMutability": "view",
      "type": "function"
    },
    {
      "inputs": [
        {
          "internalType": "uint256",
          "name": "tokenId",
          "type": "uint256"
        }
      ],
      "name": "tokenURI",
      "outputs": [
        {
          "internalType": "string",
          "name": "",
          "type": "string"
        }
      ],
      "stateMutability": "view",
      "type": "function"
    },
    {
      "inputs": [
        {
          "internalType": "address",
          "name": "from",
          "type": "address"
        },
        {
          "internalType": "address",
          "name": "to",
          "type": "address"
        },
        {
          "internalType": "uint256",
          "name": "tokenId",
          "type": "uint256"
        }
      ],
      "name": "transferFrom",
      "outputs": [],
      "stateMutability": "nonpayable",
      "type": "function"
    },
    {
      "inputs": [
        {
          "internalType": "string",
          "name": "_content",
          "type": "string"
        }
      ],
      "name": "userPost",
      "outputs": [],
      "stateMutability": "nonpayable",
      "type": "function"
    },
    {
      "inputs": [
        {
          "internalType": "address",
          "name": "",
          "type": "address"
        }
      ],
      "name": "userProfile",
      "outputs": [
        {
          "internalType": "uint256",
          "name": "uid",
          "type": "uint256"
        },
        {
          "internalType": "string",
          "name": "username",
          "type": "string"
        },
        {
          "internalType": "string",
          "name": "description",
          "type": "string"
        },
        {
          "internalType": "uint256",
          "name": "numberOfPost",
          "type": "uint256"
        },
        {
          "internalType": "uint256",
          "name": "totalLikes",
          "type": "uint256"
        },
        {
          "internalType": "uint256",
          "name": "totalDislikes",
          "type": "uint256"
        },
        {
          "internalType": "uint256",
          "name": "validVote",
          "type": "uint256"
        },
        {
          "internalType": "uint256",
          "name": "approvedPost",
          "type": "uint256"
        },
        {
          "internalType": "bool",
          "name": "active",
          "type": "bool"
        }
      ],
      "stateMutability": "view",
      "type": "function"
    }
  ],
  "bytecode": "0x60806040523480156200001157600080fd5b506040518060400160405280600f81526020017f536f6369616c4d65646961506f737400000000000000000000000000000000008152506040518060400160405280600381526020017f534d50000000000000000000000000000000000000000000000000000000000081525081600090805190602001906200009692919062000111565b508060019080519060200190620000af92919062000111565b50505033600760006101000a81548173ffffffffffffffffffffffffffffffffffffffff021916908373ffffffffffffffffffffffffffffffffffffffff16021790555060006008819055506000600a81905550600060098190555062000226565b8280546200011f90620001c1565b90600052602060002090601f0160209004810192826200014357600085556200018f565b82601f106200015e57805160ff19168380011785556200018f565b828001600101855582156200018f579182015b828111156200018e57825182559160200191906001019062000171565b5b5090506200019e9190620001a2565b5090565b5b80821115620001bd576000816000905550600101620001a3565b5090565b60006002820490506001821680620001da57607f821691505b60208210811415620001f157620001f0620001f7565b5b50919050565b7f4e487b7100000000000000000000000000000000000000000000000000000000600052602260045260246000fd5b6159f880620002366000396000f3fe608060405234801561001057600080fd5b50600436106101cf5760003560e01c806364c8f2f411610104578063a22cb465116100a2578063c87b56dd11610071578063c87b56dd1461055e578063da7d9d101461058e578063e82935da146105ac578063e985e9c5146105c8576101cf565b8063a22cb465146104ee578063b23d48541461050a578063b405f34f14610526578063b88d4fde14610542576101cf565b80638037d194116100de5780638037d19414610454578063885015b11461047057806395d89b41146104a05780639b17d8d4146104be576101cf565b806364c8f2f4146103d6578063681f3e6d1461040657806370a0823114610424576101cf565b8063223668441161017157806342842e0e1161014b57806342842e0e1461035057806353c679a11461036c578063618f8bbb1461038a5780636352211e146103a6576101cf565b806322366844146102fa57806323b872dd146103185780633ffbd47f14610334576101cf565b8063095ea7b3116101ad578063095ea7b3146102525780630b1e7f831461026e5780631a092541146102a45780631c8e8962146102c2576101cf565b806301ffc9a7146101d457806306fdde0314610204578063081812fc14610222575b600080fd5b6101ee60048036038101906101e99190613dcb565b6105f8565b6040516101fb91906148c4565b60405180910390f35b61020c6106da565b60405161021991906148df565b60405180910390f35b61023c60048036038101906102379190613ed7565b61076c565b604051610249919061476d565b60405180910390f35b61026c60048036038101906102679190613d66565b6107f1565b005b61028860048036038101906102839190613ed7565b610909565b60405161029b9796959493929190614ca7565b60405180910390f35b6102ac610a00565b6040516102b991906148df565b60405180910390f35b6102dc60048036038101906102d79190613bfb565b610ad2565b6040516102f199989796959493929190614c0c565b60405180910390f35b610302610c3d565b60405161030f91906148c4565b60405180910390f35b610332600480360381019061032d9190613c60565b610c94565b005b61034e60048036038101906103499190613e62565b610cf4565b005b61036a60048036038101906103659190613c60565b610fa9565b005b610374610fc9565b60405161038191906148a2565b60405180910390f35b6103a4600480360381019061039f9190613ed7565b6112a2565b005b6103c060048036038101906103bb9190613ed7565b61155a565b6040516103cd919061476d565b60405180910390f35b6103f060048036038101906103eb9190613d66565b61160c565b6040516103fd9190614bc1565b60405180910390f35b61040e61163d565b60405161041b91906148df565b60405180910390f35b61043e60048036038101906104399190613bfb565b61170f565b60405161044b9190614bc1565b60405180910390f35b61046e60048036038101906104699190613e1d565b6117c7565b005b61048a60048036038101906104859190613f00565b6119f4565b604051610497919061476d565b60405180910390f35b6104a8611a42565b6040516104b591906148df565b60405180910390f35b6104d860048036038101906104d39190613ed7565b611ad4565b6040516104e59190614bc1565b60405180910390f35b61050860048036038101906105039190613d2a565b611aec565b005b610524600480360381019061051f9190613bfb565b611b02565b005b610540600480360381019061053b9190613ed7565b611bd6565b005b61055c60048036038101906105579190613caf565b611f5f565b005b61057860048036038101906105739190613ed7565b611fc1565b60405161058591906148df565b60405180910390f35b610596612113565b6040516105a391906148a2565b60405180910390f35b6105c660048036038101906105c19190613ed7565b6123d9565b005b6105e260048036038101906105dd9190613c24565b612958565b6040516105ef91906148c4565b60405180910390f35b60007f80ac58cd000000000000000000000000000000000000000000000000000000007bffffffffffffffffffffffffffffffffffffffffffffffffffffffff1916827bffffffffffffffffffffffffffffffffffffffffffffffffffffffff191614806106c357507f5b5e139f000000000000000000000000000000000000000000000000000000007bffffffffffffffffffffffffffffffffffffffffffffffffffffffff1916827bffffffffffffffffffffffffffffffffffffffffffffffffffffffff1916145b806106d357506106d2826129ec565b5b9050919050565b6060600080546106e9906150ad565b80601f0160208091040260200160405190810160405280929190818152602001828054610715906150ad565b80156107625780601f1061073757610100808354040283529160200191610762565b820191906000526020600020905b81548152906001019060200180831161074557829003601f168201915b5050505050905090565b600061077782612a56565b6107b6576040517f08c379a00000000000000000000000000000000000000000000000000000000081526004016107ad90614b01565b60405180910390fd5b6004600083815260200190815260200160002060009054906101000a900473ffffffffffffffffffffffffffffffffffffffff169050919050565b60006107fc8261155a565b90508073ffffffffffffffffffffffffffffffffffffffff168373ffffffffffffffffffffffffffffffffffffffff16141561086d576040517f08c379a000000000000000000000000000000000000000000000000000000000815260040161086490614b61565b60405180910390fd5b8073ffffffffffffffffffffffffffffffffffffffff1661088c612ac2565b73ffffffffffffffffffffffffffffffffffffffff1614806108bb57506108ba816108b5612ac2565b612958565b5b6108fa576040517f08c379a00000000000000000000000000000000000000000000000000000000081526004016108f190614a21565b60405180910390fd5b6109048383612aca565b505050565b600d602052806000526040600020600091509050806000015490806001018054610932906150ad565b80601f016020809104026020016040519081016040528092919081815260200182805461095e906150ad565b80156109ab5780601f10610980576101008083540402835291602001916109ab565b820191906000526020600020905b81548152906001019060200180831161098e57829003601f168201915b5050505050908060020154908060030160009054906101000a900473ffffffffffffffffffffffffffffffffffffffff16908060040154908060050154908060060160009054906101000a900460ff16905087565b6060600c60003373ffffffffffffffffffffffffffffffffffffffff1673ffffffffffffffffffffffffffffffffffffffff1681526020019081526020016000206002018054610a4f906150ad565b80601f0160208091040260200160405190810160405280929190818152602001828054610a7b906150ad565b8015610ac85780601f10610a9d57610100808354040283529160200191610ac8565b820191906000526020600020905b815481529060010190602001808311610aab57829003601f168201915b5050505050905090565b600c602052806000526040600020600091509050806000015490806001018054610afb906150ad565b80601f0160208091040260200160405190810160405280929190818152602001828054610b27906150ad565b8015610b745780601f10610b4957610100808354040283529160200191610b74565b820191906000526020600020905b815481529060010190602001808311610b5757829003601f168201915b505050505090806002018054610b89906150ad565b80601f0160208091040260200160405190810160405280929190818152602001828054610bb5906150ad565b8015610c025780601f10610bd757610100808354040283529160200191610c02565b820191906000526020600020905b815481529060010190602001808311610be557829003601f168201915b5050505050908060030154908060040154908060050154908060060154908060070154908060080160009054906101000a900460ff16905089565b6000600c60003373ffffffffffffffffffffffffffffffffffffffff1673ffffffffffffffffffffffffffffffffffffffff16815260200190815260200160002060080160009054906101000a900460ff16905090565b610ca5610c9f612ac2565b82612b83565b610ce4576040517f08c379a0000000000000000000000000000000000000000000000000000000008152600401610cdb90614b81565b60405180910390fd5b610cef838383612c61565b505050565b600c60003373ffffffffffffffffffffffffffffffffffffffff1673ffffffffffffffffffffffffffffffffffffffff16815260200190815260200160002060080160009054906101000a900460ff1615610d84576040517f08c379a0000000000000000000000000000000000000000000000000000000008152600401610d7b90614b21565b60405180910390fd5b6001600c60003373ffffffffffffffffffffffffffffffffffffffff1673ffffffffffffffffffffffffffffffffffffffff16815260200190815260200160002060080160006101000a81548160ff0219169083151502179055508383600c60003373ffffffffffffffffffffffffffffffffffffffff1673ffffffffffffffffffffffffffffffffffffffff1681526020019081526020016000206001019190610e30929190613945565b508181600c60003373ffffffffffffffffffffffffffffffffffffffff1673ffffffffffffffffffffffffffffffffffffffff1681526020019081526020016000206002019190610e82929190613945565b506000600c60003373ffffffffffffffffffffffffffffffffffffffff1673ffffffffffffffffffffffffffffffffffffffff168152602001908152602001600020600301819055506000600c60003373ffffffffffffffffffffffffffffffffffffffff1673ffffffffffffffffffffffffffffffffffffffff168152602001908152602001600020600401819055506000600c60003373ffffffffffffffffffffffffffffffffffffffff1673ffffffffffffffffffffffffffffffffffffffff168152602001908152602001600020600501819055506000600c60003373ffffffffffffffffffffffffffffffffffffffff1673ffffffffffffffffffffffffffffffffffffffff1681526020019081526020016000206006018190555050505050565b610fc483838360405180602001604052806000815250611f5f565b505050565b60606000600a5467ffffffffffffffff81111561100f577f4e487b7100000000000000000000000000000000000000000000000000000000600052604160045260246000fd5b60405190808252806020026020018201604052801561104857816020015b6110356139cb565b81526020019060019003908161102d5790505b50905060005b600a5481101561129a57600d60006010600084815260200190815260200160002054815260200190815260200160002060405180610100016040529081600082015481526020016001820180546110a4906150ad565b80601f01602080910402602001604051908101604052809291908181526020018280546110d0906150ad565b801561111d5780601f106110f25761010080835404028352916020019161111d565b820191906000526020600020905b81548152906001019060200180831161110057829003601f168201915b50505050508152602001600282015481526020016003820160009054906101000a900473ffffffffffffffffffffffffffffffffffffffff1673ffffffffffffffffffffffffffffffffffffffff1673ffffffffffffffffffffffffffffffffffffffff16815260200160048201548152602001600582015481526020016006820160009054906101000a900460ff161515151581526020016007820180548060200260200160405190810160405280929190818152602001828054801561123a57602002820191906000526020600020905b8160009054906101000a900473ffffffffffffffffffffffffffffffffffffffff1673ffffffffffffffffffffffffffffffffffffffff16815260200190600101908083116111f0575b50505050508152505082828151811061127c577f4e487b7100000000000000000000000000000000000000000000000000000000600052603260045260246000fd5b602002602001018190525080806112929061512a565b91505061104e565b508091505090565b600c60003373ffffffffffffffffffffffffffffffffffffffff1673ffffffffffffffffffffffffffffffffffffffff16815260200190815260200160002060080160009054906101000a900460ff16611331576040517f08c379a000000000000000000000000000000000000000000000000000000000815260040161132890614981565b60405180910390fd5b600d600082815260200190815260200160002060060160009054906101000a900460ff16611394576040517f08c379a000000000000000000000000000000000000000000000000000000000815260040161138b90614ba1565b60405180910390fd5b600c60003373ffffffffffffffffffffffffffffffffffffffff1673ffffffffffffffffffffffffffffffffffffffff168152602001908152602001600020600901600082815260200190815260200160002060009054906101000a900460ff1615611435576040517f08c379a000000000000000000000000000000000000000000000000000000000815260040161142c90614aa1565b60405180910390fd5b6001600d6000838152602001908152602001600020600501600082825461145c9190614e8c565b925050819055506001600c60003373ffffffffffffffffffffffffffffffffffffffff1673ffffffffffffffffffffffffffffffffffffffff168152602001908152602001600020600901600083815260200190815260200160002060006101000a81548160ff0219169083151502179055506001600d60008381526020019081526020016000206005015410611557576000600d600083815260200190815260200160002060060160006101000a81548160ff02191690831515021790555060405180602001604052806000815250600d60008381526020019081526020016000206001019080519060200190611555929190613a28565b505b50565b6000806002600084815260200190815260200160002060009054906101000a900473ffffffffffffffffffffffffffffffffffffffff169050600073ffffffffffffffffffffffffffffffffffffffff168173ffffffffffffffffffffffffffffffffffffffff161415611603576040517f08c379a00000000000000000000000000000000000000000000000000000000081526004016115fa90614a61565b60405180910390fd5b80915050919050565b600f602052816000526040600020818154811061162857600080fd5b90600052602060002001600091509150505481565b6060600c60003373ffffffffffffffffffffffffffffffffffffffff1673ffffffffffffffffffffffffffffffffffffffff168152602001908152602001600020600101805461168c906150ad565b80601f01602080910402602001604051908101604052809291908181526020018280546116b8906150ad565b80156117055780601f106116da57610100808354040283529160200191611705565b820191906000526020600020905b8154815290600101906020018083116116e857829003601f168201915b5050505050905090565b60008073ffffffffffffffffffffffffffffffffffffffff168273ffffffffffffffffffffffffffffffffffffffff161415611780576040517f08c379a000000000000000000000000000000000000000000000000000000000815260040161177790614a41565b60405180910390fd5b600360008373ffffffffffffffffffffffffffffffffffffffff1673ffffffffffffffffffffffffffffffffffffffff168152602001908152602001600020549050919050565b600c60003373ffffffffffffffffffffffffffffffffffffffff1673ffffffffffffffffffffffffffffffffffffffff16815260200190815260200160002060080160009054906101000a900460ff16611856576040517f08c379a000000000000000000000000000000000000000000000000000000000815260040161184d90614981565b60405180910390fd5b600854600d600060085481526020019081526020016000206000018190555033600d6000600854815260200190815260200160002060030160006101000a81548173ffffffffffffffffffffffffffffffffffffffff021916908373ffffffffffffffffffffffffffffffffffffffff1602179055508181600d6000600854815260200190815260200160002060010191906118f3929190613945565b5042600d60006008548152602001908152602001600020600201819055506000600d60006008548152602001908152602001600020600401819055506000600d60006008548152602001908152602001600020600501819055506001600d6000600854815260200190815260200160002060060160006101000a81548160ff0219169083151502179055506001600c60003373ffffffffffffffffffffffffffffffffffffffff1673ffffffffffffffffffffffffffffffffffffffff16815260200190815260200160002060030160008282546119d19190614e8c565b92505081905550600860008154809291906119eb9061512a565b91905055505050565b600e6020528160005260406000208181548110611a1057600080fd5b906000526020600020016000915091509054906101000a900473ffffffffffffffffffffffffffffffffffffffff1681565b606060018054611a51906150ad565b80601f0160208091040260200160405190810160405280929190818152602001828054611a7d906150ad565b8015611aca5780601f10611a9f57610100808354040283529160200191611aca565b820191906000526020600020905b815481529060010190602001808311611aad57829003601f168201915b5050505050905090565b60106020528060005260406000206000915090505481565b611afe611af7612ac2565b8383612ec8565b5050565b600760009054906101000a900473ffffffffffffffffffffffffffffffffffffffff1673ffffffffffffffffffffffffffffffffffffffff163373ffffffffffffffffffffffffffffffffffffffff1614611b92576040517f08c379a0000000000000000000000000000000000000000000000000000000008152600401611b89906149e1565b60405180910390fd5b80600b60006101000a81548173ffffffffffffffffffffffffffffffffffffffff021916908373ffffffffffffffffffffffffffffffffffffffff16021790555050565b600c60003373ffffffffffffffffffffffffffffffffffffffff1673ffffffffffffffffffffffffffffffffffffffff16815260200190815260200160002060080160009054906101000a900460ff16611c65576040517f08c379a0000000000000000000000000000000000000000000000000000000008152600401611c5c90614981565b60405180910390fd5b6000600d600083815260200190815260200160002060060160006101000a81548160ff0219169083151502179055611cd2576040517f08c379a0000000000000000000000000000000000000000000000000000000008152600401611cc990614901565b60405180910390fd5b600b60009054906101000a900473ffffffffffffffffffffffffffffffffffffffff1673ffffffffffffffffffffffffffffffffffffffff166323b872dd3330678ac7230489e800006040518463ffffffff1660e01b8152600401611d3993929190614788565b602060405180830381600087803b158015611d5357600080fd5b505af1158015611d67573d6000803e3d6000fd5b505050506040513d601f19601f82011682018060405250810190611d8b9190613da2565b50600b60009054906101000a900473ffffffffffffffffffffffffffffffffffffffff1673ffffffffffffffffffffffffffffffffffffffff166323b872dd30600d600085815260200190815260200160002060030160009054906101000a900473ffffffffffffffffffffffffffffffffffffffff16677ce66c50e28400006040518463ffffffff1660e01b8152600401611e29939291906147f6565b602060405180830381600087803b158015611e4357600080fd5b505af1158015611e57573d6000803e3d6000fd5b505050506040513d601f19601f82011682018060405250810190611e7b9190613da2565b50600b60009054906101000a900473ffffffffffffffffffffffffffffffffffffffff1673ffffffffffffffffffffffffffffffffffffffff16639dc29fac30670de0b6b3a76400006040518363ffffffff1660e01b8152600401611ee1929190614879565b600060405180830381600087803b158015611efb57600080fd5b505af1158015611f0f573d6000803e3d6000fd5b5050505042600d6000838152602001908152602001600020600201819055506001600d60008381526020019081526020016000206004016000828254611f559190614e8c565b9250508190555050565b611f70611f6a612ac2565b83612b83565b611faf576040517f08c379a0000000000000000000000000000000000000000000000000000000008152600401611fa690614b81565b60405180910390fd5b611fbb84848484613035565b50505050565b6060611fcc82612a56565b61200b576040517f08c379a000000000000000000000000000000000000000000000000000000000815260040161200290614ae1565b60405180910390fd5b600060066000848152602001908152602001600020805461202b906150ad565b80601f0160208091040260200160405190810160405280929190818152602001828054612057906150ad565b80156120a45780601f10612079576101008083540402835291602001916120a4565b820191906000526020600020905b81548152906001019060200180831161208757829003601f168201915b5050505050905060006120b5613091565b90506000815114156120cb57819250505061210e565b6000825111156121005780826040516020016120e89291906146de565b6040516020818303038152906040529250505061210e565b612109846130a8565b925050505b919050565b6060600060085467ffffffffffffffff811115612159577f4e487b7100000000000000000000000000000000000000000000000000000000600052604160045260246000fd5b60405190808252806020026020018201604052801561219257816020015b61217f6139cb565b8152602001906001900390816121775790505b50905060005b6008548110156123d157600d600082815260200190815260200160002060405180610100016040529081600082015481526020016001820180546121db906150ad565b80601f0160208091040260200160405190810160405280929190818152602001828054612207906150ad565b80156122545780601f1061222957610100808354040283529160200191612254565b820191906000526020600020905b81548152906001019060200180831161223757829003601f168201915b50505050508152602001600282015481526020016003820160009054906101000a900473ffffffffffffffffffffffffffffffffffffffff1673ffffffffffffffffffffffffffffffffffffffff1673ffffffffffffffffffffffffffffffffffffffff16815260200160048201548152602001600582015481526020016006820160009054906101000a900460ff161515151581526020016007820180548060200260200160405190810160405280929190818152602001828054801561237157602002820191906000526020600020905b8160009054906101000a900473ffffffffffffffffffffffffffffffffffffffff1673ffffffffffffffffffffffffffffffffffffffff1681526020019060010190808311612327575b5050505050815250508282815181106123b3577f4e487b7100000000000000000000000000000000000000000000000000000000600052603260045260246000fd5b602002602001018190525080806123c99061512a565b915050612198565b508091505090565b600c60003373ffffffffffffffffffffffffffffffffffffffff1673ffffffffffffffffffffffffffffffffffffffff16815260200190815260200160002060080160009054906101000a900460ff16612468576040517f08c379a000000000000000000000000000000000000000000000000000000000815260040161245f90614981565b60405180910390fd5b600d600082815260200190815260200160002060060160009054906101000a900460ff166124cb576040517f08c379a00000000000000000000000000000000000000000000000000000000081526004016124c290614ba1565b60405180910390fd5b600c60003373ffffffffffffffffffffffffffffffffffffffff1673ffffffffffffffffffffffffffffffffffffffff168152602001908152602001600020600901600082815260200190815260200160002060009054906101000a900460ff161561256c576040517f08c379a000000000000000000000000000000000000000000000000000000000815260040161256390614aa1565b60405180910390fd5b6001600d600083815260200190815260200160002060040160008282546125939190614e8c565b92505081905550600d6000828152602001908152602001600020600701339080600181540180825580915050600190039060005260206000200160009091909190916101000a81548173ffffffffffffffffffffffffffffffffffffffff021916908373ffffffffffffffffffffffffffffffffffffffff1602179055506001600c60003373ffffffffffffffffffffffffffffffffffffffff1673ffffffffffffffffffffffffffffffffffffffff168152602001908152602001600020600901600083815260200190815260200160002060006101000a81548160ff021916908315150217905550600b60009054906101000a900473ffffffffffffffffffffffffffffffffffffffff1673ffffffffffffffffffffffffffffffffffffffff166323b872dd3330670de0b6b3a76400006040518463ffffffff1660e01b81526004016126e4939291906147bf565b602060405180830381600087803b1580156126fe57600080fd5b505af1158015612712573d6000803e3d6000fd5b505050506040513d601f19601f820116820180604052508101906127369190613da2565b506001600d60008381526020019081526020016000206004015410612955576000600d600083815260200190815260200160002060060160006101000a81548160ff0219169083151502179055508060106000600a548152602001908152602001600020819055506000612815600d600084815260200190815260200160002060030160009054906101000a900473ffffffffffffffffffffffffffffffffffffffff16600d6000858152602001908152602001600020600101604051602001612801929190614702565b60405160208183030381529060405261314f565b905060008160405160200161282a919061474b565b604051602081830303815290604052905061287b600d600085815260200190815260200160002060030160009054906101000a900473ffffffffffffffffffffffffffffffffffffffff168461330d565b612885838261332b565b6000600b60009054906101000a900473ffffffffffffffffffffffffffffffffffffffff1690506000678ac7230489e8000090508173ffffffffffffffffffffffffffffffffffffffff1663943f894b82600d60008981526020019081526020016000206007016040518363ffffffff1660e01b8152600401612909929190614bdc565b600060405180830381600087803b15801561292357600080fd5b505af1158015612937573d6000803e3d6000fd5b505050506001600a5461294a9190614e8c565b600a81905550505050505b50565b6000600560008473ffffffffffffffffffffffffffffffffffffffff1673ffffffffffffffffffffffffffffffffffffffff16815260200190815260200160002060008373ffffffffffffffffffffffffffffffffffffffff1673ffffffffffffffffffffffffffffffffffffffff16815260200190815260200160002060009054906101000a900460ff16905092915050565b60007f01ffc9a7000000000000000000000000000000000000000000000000000000007bffffffffffffffffffffffffffffffffffffffffffffffffffffffff1916827bffffffffffffffffffffffffffffffffffffffffffffffffffffffff1916149050919050565b60008073ffffffffffffffffffffffffffffffffffffffff166002600084815260200190815260200160002060009054906101000a900473ffffffffffffffffffffffffffffffffffffffff1673ffffffffffffffffffffffffffffffffffffffff1614159050919050565b600033905090565b816004600083815260200190815260200160002060006101000a81548173ffffffffffffffffffffffffffffffffffffffff021916908373ffffffffffffffffffffffffffffffffffffffff160217905550808273ffffffffffffffffffffffffffffffffffffffff16612b3d8361155a565b73ffffffffffffffffffffffffffffffffffffffff167f8c5be1e5ebec7d5bd14f71427d1e84f3dd0314c0f7b2291e5b200ac8c7c3b92560405160405180910390a45050565b6000612b8e82612a56565b612bcd576040517f08c379a0000000000000000000000000000000000000000000000000000000008152600401612bc490614a01565b60405180910390fd5b6000612bd88361155a565b90508073ffffffffffffffffffffffffffffffffffffffff168473ffffffffffffffffffffffffffffffffffffffff161480612c4757508373ffffffffffffffffffffffffffffffffffffffff16612c2f8461076c565b73ffffffffffffffffffffffffffffffffffffffff16145b80612c585750612c578185612958565b5b91505092915050565b8273ffffffffffffffffffffffffffffffffffffffff16612c818261155a565b73ffffffffffffffffffffffffffffffffffffffff1614612cd7576040517f08c379a0000000000000000000000000000000000000000000000000000000008152600401612cce90614941565b60405180910390fd5b600073ffffffffffffffffffffffffffffffffffffffff168273ffffffffffffffffffffffffffffffffffffffff161415612d47576040517f08c379a0000000000000000000000000000000000000000000000000000000008152600401612d3e906149a1565b60405180910390fd5b612d5283838361339f565b612d5d600082612aca565b6001600360008573ffffffffffffffffffffffffffffffffffffffff1673ffffffffffffffffffffffffffffffffffffffff1681526020019081526020016000206000828254612dad9190614f6d565b925050819055506001600360008473ffffffffffffffffffffffffffffffffffffffff1673ffffffffffffffffffffffffffffffffffffffff1681526020019081526020016000206000828254612e049190614e8c565b92505081905550816002600083815260200190815260200160002060006101000a81548173ffffffffffffffffffffffffffffffffffffffff021916908373ffffffffffffffffffffffffffffffffffffffff160217905550808273ffffffffffffffffffffffffffffffffffffffff168473ffffffffffffffffffffffffffffffffffffffff167fddf252ad1be2c89b69c2b068fc378daa952ba7f163c4a11628f55a4df523b3ef60405160405180910390a4612ec38383836133a4565b505050565b8173ffffffffffffffffffffffffffffffffffffffff168373ffffffffffffffffffffffffffffffffffffffff161415612f37576040517f08c379a0000000000000000000000000000000000000000000000000000000008152600401612f2e906149c1565b60405180910390fd5b80600560008573ffffffffffffffffffffffffffffffffffffffff1673ffffffffffffffffffffffffffffffffffffffff16815260200190815260200160002060008473ffffffffffffffffffffffffffffffffffffffff1673ffffffffffffffffffffffffffffffffffffffff16815260200190815260200160002060006101000a81548160ff0219169083151502179055508173ffffffffffffffffffffffffffffffffffffffff168373ffffffffffffffffffffffffffffffffffffffff167f17307eab39ab6107e8899845ad3d59bd9653f200f220920489ca2b5937696c318360405161302891906148c4565b60405180910390a3505050565b613040848484612c61565b61304c848484846133a9565b61308b576040517f08c379a000000000000000000000000000000000000000000000000000000000815260040161308290614921565b60405180910390fd5b50505050565b606060405180602001604052806000815250905090565b60606130b382612a56565b6130f2576040517f08c379a00000000000000000000000000000000000000000000000000000000081526004016130e990614b41565b60405180910390fd5b60006130fc613091565b9050600081511161311c5760405180602001604052806000815250613147565b8061312684613540565b6040516020016131379291906146de565b6040516020818303038152906040525b915050919050565b606060008251905060008114156131785760405180602001604052806000815250915050613308565b600060036002836131899190614e8c565b6131939190614ee2565b600461319f9190614f13565b905060006020826131b09190614e8c565b67ffffffffffffffff8111156131ef577f4e487b7100000000000000000000000000000000000000000000000000000000600052604160045260246000fd5b6040519080825280601f01601f1916602001820160405280156132215781602001600182028036833780820191505090505b5090506000604051806060016040528060408152602001615983604091399050600181016020830160005b868110156132c55760038101905062ffffff818a015116603f8160121c168401518060081b905060ff603f83600c1c1686015116810190508060081b905060ff603f8360061c1686015116810190508060081b905060ff603f831686015116810190508060e01b9050808452600484019350505061324c565b5060038606600181146132df57600281146132ef576132fa565b613d3d60f01b60028303526132fa565b603d60f81b60018303525b508484525050819450505050505b919050565b6133278282604051806020016040528060008152506136ed565b5050565b61333482612a56565b613373576040517f08c379a000000000000000000000000000000000000000000000000000000000815260040161336a90614a81565b60405180910390fd5b8060066000848152602001908152602001600020908051906020019061339a929190613a28565b505050565b505050565b505050565b60006133ca8473ffffffffffffffffffffffffffffffffffffffff16613748565b15613533578373ffffffffffffffffffffffffffffffffffffffff1663150b7a026133f3612ac2565b8786866040518563ffffffff1660e01b8152600401613415949392919061482d565b602060405180830381600087803b15801561342f57600080fd5b505af192505050801561346057506040513d601f19601f8201168201806040525081019061345d9190613df4565b60015b6134e3573d8060008114613490576040519150601f19603f3d011682016040523d82523d6000602084013e613495565b606091505b506000815114156134db576040517f08c379a00000000000000000000000000000000000000000000000000000000081526004016134d290614921565b60405180910390fd5b805181602001fd5b63150b7a0260e01b7bffffffffffffffffffffffffffffffffffffffffffffffffffffffff1916817bffffffffffffffffffffffffffffffffffffffffffffffffffffffff191614915050613538565b600190505b949350505050565b60606000821415613588576040518060400160405280600181526020017f300000000000000000000000000000000000000000000000000000000000000081525090506136e8565b600082905060005b600082146135ba5780806135a39061512a565b915050600a826135b39190614ee2565b9150613590565b60008167ffffffffffffffff8111156135fc577f4e487b7100000000000000000000000000000000000000000000000000000000600052604160045260246000fd5b6040519080825280601f01601f19166020018201604052801561362e5781602001600182028036833780820191505090505b5090505b600085146136e1576001826136479190614f6d565b9150600a856136569190615197565b60306136629190614e8c565b60f81b81838151811061369e577f4e487b7100000000000000000000000000000000000000000000000000000000600052603260045260246000fd5b60200101907effffffffffffffffffffffffffffffffffffffffffffffffffffffffffffff1916908160001a905350600a856136da9190614ee2565b9450613632565b8093505050505b919050565b6136f7838361376b565b61370460008484846133a9565b613743576040517f08c379a000000000000000000000000000000000000000000000000000000000815260040161373a90614921565b60405180910390fd5b505050565b6000808273ffffffffffffffffffffffffffffffffffffffff163b119050919050565b600073ffffffffffffffffffffffffffffffffffffffff168273ffffffffffffffffffffffffffffffffffffffff1614156137db576040517f08c379a00000000000000000000000000000000000000000000000000000000081526004016137d290614ac1565b60405180910390fd5b6137e481612a56565b15613824576040517f08c379a000000000000000000000000000000000000000000000000000000000815260040161381b90614961565b60405180910390fd5b6138306000838361339f565b6001600360008473ffffffffffffffffffffffffffffffffffffffff1673ffffffffffffffffffffffffffffffffffffffff16815260200190815260200160002060008282546138809190614e8c565b92505081905550816002600083815260200190815260200160002060006101000a81548173ffffffffffffffffffffffffffffffffffffffff021916908373ffffffffffffffffffffffffffffffffffffffff160217905550808273ffffffffffffffffffffffffffffffffffffffff16600073ffffffffffffffffffffffffffffffffffffffff167fddf252ad1be2c89b69c2b068fc378daa952ba7f163c4a11628f55a4df523b3ef60405160405180910390a4613941600083836133a4565b5050565b828054613951906150ad565b90600052602060002090601f01602090048101928261397357600085556139ba565b82601f1061398c57803560ff19168380011785556139ba565b828001600101855582156139ba579182015b828111156139b957823582559160200191906001019061399e565b5b5090506139c79190613aae565b5090565b604051806101000160405280600081526020016060815260200160008152602001600073ffffffffffffffffffffffffffffffffffffffff1681526020016000815260200160008152602001600015158152602001606081525090565b828054613a34906150ad565b90600052602060002090601f016020900481019282613a565760008555613a9d565b82601f10613a6f57805160ff1916838001178555613a9d565b82800160010185558215613a9d579182015b82811115613a9c578251825591602001919060010190613a81565b5b509050613aaa9190613aae565b5090565b5b80821115613ac7576000816000905550600101613aaf565b5090565b6000613ade613ad984614d42565b614d1d565b905082815260208101848484011115613af657600080fd5b613b0184828561506b565b509392505050565b600081359050613b1881615926565b92915050565b600081359050613b2d8161593d565b92915050565b600081519050613b428161593d565b92915050565b600081359050613b5781615954565b92915050565b600081519050613b6c81615954565b92915050565b600082601f830112613b8357600080fd5b8135613b93848260208601613acb565b91505092915050565b60008083601f840112613bae57600080fd5b8235905067ffffffffffffffff811115613bc757600080fd5b602083019150836001820283011115613bdf57600080fd5b9250929050565b600081359050613bf58161596b565b92915050565b600060208284031215613c0d57600080fd5b6000613c1b84828501613b09565b91505092915050565b60008060408385031215613c3757600080fd5b6000613c4585828601613b09565b9250506020613c5685828601613b09565b9150509250929050565b600080600060608486031215613c7557600080fd5b6000613c8386828701613b09565b9350506020613c9486828701613b09565b9250506040613ca586828701613be6565b9150509250925092565b60008060008060808587031215613cc557600080fd5b6000613cd387828801613b09565b9450506020613ce487828801613b09565b9350506040613cf587828801613be6565b925050606085013567ffffffffffffffff811115613d1257600080fd5b613d1e87828801613b72565b91505092959194509250565b60008060408385031215613d3d57600080fd5b6000613d4b85828601613b09565b9250506020613d5c85828601613b1e565b9150509250929050565b60008060408385031215613d7957600080fd5b6000613d8785828601613b09565b9250506020613d9885828601613be6565b9150509250929050565b600060208284031215613db457600080fd5b6000613dc284828501613b33565b91505092915050565b600060208284031215613ddd57600080fd5b6000613deb84828501613b48565b91505092915050565b600060208284031215613e0657600080fd5b6000613e1484828501613b5d565b91505092915050565b60008060208385031215613e3057600080fd5b600083013567ffffffffffffffff811115613e4a57600080fd5b613e5685828601613b9c565b92509250509250929050565b60008060008060408587031215613e7857600080fd5b600085013567ffffffffffffffff811115613e9257600080fd5b613e9e87828801613b9c565b9450945050602085013567ffffffffffffffff811115613ebd57600080fd5b613ec987828801613b9c565b925092505092959194509250565b600060208284031215613ee957600080fd5b6000613ef784828501613be6565b91505092915050565b60008060408385031215613f1357600080fd5b6000613f2185828601613be6565b9250506020613f3285828601613be6565b9150509250929050565b6000613f488383613f68565b60208301905092915050565b6000613f608383614609565b905092915050565b613f7181614fc1565b82525050565b613f8081614fc1565b82525050565b613f97613f9282614fc1565b615173565b82525050565b6000613fa882614dbd565b613fb28185614e1b565b9350613fbd83614d73565b8060005b83811015613fee578151613fd58882613f3c565b9750613fe083614df4565b925050600181019050613fc1565b5085935050505092915050565b600061400682614dc8565b6140108185614e2c565b935061401b83614d83565b8060005b838110156140535761403082615284565b61403a8882613f3c565b975061404583614e01565b92505060018101905061401f565b5085935050505092915050565b600061406b82614dd3565b6140758185614e3d565b93508360208202850161408785614d98565b8060005b858110156140c357848403895281516140a48582613f54565b94506140af83614e0e565b925060208a0199505060018101905061408b565b50829750879550505050505092915050565b6140de81614fd3565b82525050565b6140ed81614fd3565b82525050565b60006140fe82614dde565b6141088185614e4e565b935061411881856020860161507a565b61412181615297565b840191505092915050565b61413581615035565b82525050565b61414481615047565b82525050565b61415381615059565b82525050565b600061416482614de9565b61416e8185614e5f565b935061417e81856020860161507a565b61418781615297565b840191505092915050565b600061419d82614de9565b6141a78185614e70565b93506141b781856020860161507a565b6141c081615297565b840191505092915050565b60006141d682614de9565b6141e08185614e81565b93506141f081856020860161507a565b80840191505092915050565b60008154614209816150ad565b6142138186614e81565b9450600182166000811461422e576001811461423f57614272565b60ff19831686528186019350614272565b61424885614da8565b60005b8381101561426a5781548189015260018201915060208101905061424b565b838801955050505b50505092915050565b6000614288601683614e70565b9150614293826152c2565b602082019050919050565b60006142ab600c83614e81565b91506142b6826152eb565b600c82019050919050565b60006142ce603283614e70565b91506142d982615314565b604082019050919050565b60006142f1602583614e70565b91506142fc82615363565b604082019050919050565b6000614314601c83614e70565b915061431f826153b2565b602082019050919050565b6000614337601983614e70565b9150614342826153db565b602082019050919050565b600061435a602483614e70565b915061436582615404565b604082019050919050565b600061437d601983614e70565b915061438882615453565b602082019050919050565b60006143a0601583614e70565b91506143ab8261547c565b602082019050919050565b60006143c3602c83614e70565b91506143ce826154a5565b604082019050919050565b60006143e6603883614e70565b91506143f1826154f4565b604082019050919050565b6000614409602a83614e70565b915061441482615543565b604082019050919050565b600061442c602983614e70565b915061443782615592565b604082019050919050565b600061444f602e83614e70565b915061445a826155e1565b604082019050919050565b6000614472600e83614e81565b915061447d82615630565b600e82019050919050565b6000614495600283614e81565b91506144a082615659565b600282019050919050565b60006144b8602783614e70565b91506144c382615682565b604082019050919050565b60006144db602083614e70565b91506144e6826156d1565b602082019050919050565b60006144fe603183614e70565b9150614509826156fa565b604082019050919050565b6000614521602c83614e70565b915061452c82615749565b604082019050919050565b6000614544601b83614e70565b915061454f82615798565b602082019050919050565b6000614567602f83614e70565b9150614572826157c1565b604082019050919050565b600061458a602183614e70565b915061459582615810565b604082019050919050565b60006145ad601d83614e81565b91506145b88261585f565b601d82019050919050565b60006145d0603183614e70565b91506145db82615888565b604082019050919050565b60006145f3602883614e70565b91506145fe826158d7565b604082019050919050565b60006101008301600083015161462260008601826146c0565b506020830151848203602086015261463a8282614159565b915050604083015161464f60408601826146c0565b5060608301516146626060860182613f68565b50608083015161467560808601826146c0565b5060a083015161468860a08601826146c0565b5060c083015161469b60c08601826140d5565b5060e083015184820360e08601526146b38282613f9d565b9150508091505092915050565b6146c98161502b565b82525050565b6146d88161502b565b82525050565b60006146ea82856141cb565b91506146f682846141cb565b91508190509392505050565b600061470d8261429e565b91506147198285613f86565b60148201915061472882614465565b915061473482846141fc565b915061473f82614488565b91508190509392505050565b6000614756826145a0565b915061476282846141cb565b915081905092915050565b60006020820190506147826000830184613f77565b92915050565b600060608201905061479d6000830186613f77565b6147aa6020830185613f77565b6147b7604083018461412c565b949350505050565b60006060820190506147d46000830186613f77565b6147e16020830185613f77565b6147ee604083018461413b565b949350505050565b600060608201905061480b6000830186613f77565b6148186020830185613f77565b614825604083018461414a565b949350505050565b60006080820190506148426000830187613f77565b61484f6020830186613f77565b61485c60408301856146cf565b818103606083015261486e81846140f3565b905095945050505050565b600060408201905061488e6000830185613f77565b61489b602083018461413b565b9392505050565b600060208201905081810360008301526148bc8184614060565b905092915050565b60006020820190506148d960008301846140e4565b92915050565b600060208201905081810360008301526148f98184614192565b905092915050565b6000602082019050818103600083015261491a8161427b565b9050919050565b6000602082019050818103600083015261493a816142c1565b9050919050565b6000602082019050818103600083015261495a816142e4565b9050919050565b6000602082019050818103600083015261497a81614307565b9050919050565b6000602082019050818103600083015261499a8161432a565b9050919050565b600060208201905081810360008301526149ba8161434d565b9050919050565b600060208201905081810360008301526149da81614370565b9050919050565b600060208201905081810360008301526149fa81614393565b9050919050565b60006020820190508181036000830152614a1a816143b6565b9050919050565b60006020820190508181036000830152614a3a816143d9565b9050919050565b60006020820190508181036000830152614a5a816143fc565b9050919050565b60006020820190508181036000830152614a7a8161441f565b9050919050565b60006020820190508181036000830152614a9a81614442565b9050919050565b60006020820190508181036000830152614aba816144ab565b9050919050565b60006020820190508181036000830152614ada816144ce565b9050919050565b60006020820190508181036000830152614afa816144f1565b9050919050565b60006020820190508181036000830152614b1a81614514565b9050919050565b60006020820190508181036000830152614b3a81614537565b9050919050565b60006020820190508181036000830152614b5a8161455a565b9050919050565b60006020820190508181036000830152614b7a8161457d565b9050919050565b60006020820190508181036000830152614b9a816145c3565b9050919050565b60006020820190508181036000830152614bba816145e6565b9050919050565b6000602082019050614bd660008301846146cf565b92915050565b6000604082019050614bf160008301856146cf565b8181036020830152614c038184613ffb565b90509392505050565b600061012082019050614c22600083018c6146cf565b8181036020830152614c34818b614192565b90508181036040830152614c48818a614192565b9050614c5760608301896146cf565b614c6460808301886146cf565b614c7160a08301876146cf565b614c7e60c08301866146cf565b614c8b60e08301856146cf565b614c996101008301846140e4565b9a9950505050505050505050565b600060e082019050614cbc600083018a6146cf565b8181036020830152614cce8189614192565b9050614cdd60408301886146cf565b614cea6060830187613f77565b614cf760808301866146cf565b614d0460a08301856146cf565b614d1160c08301846140e4565b98975050505050505050565b6000614d27614d38565b9050614d3382826150f9565b919050565b6000604051905090565b600067ffffffffffffffff821115614d5d57614d5c615255565b5b614d6682615297565b9050602081019050919050565b6000819050602082019050919050565b60008190508160005260206000209050919050565b6000819050602082019050919050565b60008190508160005260206000209050919050565b600081519050919050565b600081549050919050565b600081519050919050565b600081519050919050565b600081519050919050565b6000602082019050919050565b6000600182019050919050565b6000602082019050919050565b600082825260208201905092915050565b600082825260208201905092915050565b600082825260208201905092915050565b600082825260208201905092915050565b600082825260208201905092915050565b600082825260208201905092915050565b600081905092915050565b6000614e978261502b565b9150614ea28361502b565b9250827fffffffffffffffffffffffffffffffffffffffffffffffffffffffffffffffff03821115614ed757614ed66151c8565b5b828201905092915050565b6000614eed8261502b565b9150614ef88361502b565b925082614f0857614f076151f7565b5b828204905092915050565b6000614f1e8261502b565b9150614f298361502b565b9250817fffffffffffffffffffffffffffffffffffffffffffffffffffffffffffffffff0483118215151615614f6257614f616151c8565b5b828202905092915050565b6000614f788261502b565b9150614f838361502b565b925082821015614f9657614f956151c8565b5b828203905092915050565b600073ffffffffffffffffffffffffffffffffffffffff82169050919050565b6000614fcc8261500b565b9050919050565b60008115159050919050565b60007fffffffff0000000000000000000000000000000000000000000000000000000082169050919050565b600073ffffffffffffffffffffffffffffffffffffffff82169050919050565b6000819050919050565b60006150408261502b565b9050919050565b60006150528261502b565b9050919050565b60006150648261502b565b9050919050565b82818337600083830152505050565b60005b8381101561509857808201518184015260208101905061507d565b838111156150a7576000848401525b50505050565b600060028204905060018216806150c557607f821691505b602082108114156150d9576150d8615226565b5b50919050565b60006150f26150ed836152b5565b614fa1565b9050919050565b61510282615297565b810181811067ffffffffffffffff8211171561512157615120615255565b5b80604052505050565b60006151358261502b565b91507fffffffffffffffffffffffffffffffffffffffffffffffffffffffffffffffff821415615168576151676151c8565b5b600182019050919050565b600061517e82615185565b9050919050565b6000615190826152a8565b9050919050565b60006151a28261502b565b91506151ad8361502b565b9250826151bd576151bc6151f7565b5b828206905092915050565b7f4e487b7100000000000000000000000000000000000000000000000000000000600052601160045260246000fd5b7f4e487b7100000000000000000000000000000000000000000000000000000000600052601260045260246000fd5b7f4e487b7100000000000000000000000000000000000000000000000000000000600052602260045260246000fd5b7f4e487b7100000000000000000000000000000000000000000000000000000000600052604160045260246000fd5b600061529082546150df565b9050919050565b6000601f19601f8301169050919050565b60008160601b9050919050565b60008160001c9050919050565b7f506f7374206973206e6f74206163746976652079657400000000000000000000600082015250565b7f7b226f776e6572223a2022200000000000000000000000000000000000000000600082015250565b7f4552433732313a207472616e7366657220746f206e6f6e20455243373231526560008201527f63656976657220696d706c656d656e7465720000000000000000000000000000602082015250565b7f4552433732313a207472616e736665722066726f6d20696e636f72726563742060008201527f6f776e6572000000000000000000000000000000000000000000000000000000602082015250565b7f4552433732313a20746f6b656e20616c7265616479206d696e74656400000000600082015250565b7f596f75206861766520746f207369676e20757020666972737400000000000000600082015250565b7f4552433732313a207472616e7366657220746f20746865207a65726f2061646460008201527f7265737300000000000000000000000000000000000000000000000000000000602082015250565b7f4552433732313a20617070726f766520746f2063616c6c657200000000000000600082015250565b7f596f7520617265206e6f7420746865206f776e65720000000000000000000000600082015250565b7f4552433732313a206f70657261746f7220717565727920666f72206e6f6e657860008201527f697374656e7420746f6b656e0000000000000000000000000000000000000000602082015250565b7f4552433732313a20617070726f76652063616c6c6572206973206e6f74206f7760008201527f6e6572206e6f7220617070726f76656420666f7220616c6c0000000000000000602082015250565b7f4552433732313a2062616c616e636520717565727920666f7220746865207a6560008201527f726f206164647265737300000000000000000000000000000000000000000000602082015250565b7f4552433732313a206f776e657220717565727920666f72206e6f6e657869737460008201527f656e7420746f6b656e0000000000000000000000000000000000000000000000602082015250565b7f45524337323155524953746f726167653a2055524920736574206f66206e6f6e60008201527f6578697374656e7420746f6b656e000000000000000000000000000000000000602082015250565b7f222c2022636f6e74656e74223a20000000000000000000000000000000000000600082015250565b7f227d000000000000000000000000000000000000000000000000000000000000600082015250565b7f596f7520616c7265616479206c696b6564206f72206469736c696b652074686960008201527f7320706f73742100000000000000000000000000000000000000000000000000602082015250565b7f4552433732313a206d696e7420746f20746865207a65726f2061646472657373600082015250565b7f45524337323155524953746f726167653a2055524920717565727920666f722060008201527f6e6f6e6578697374656e7420746f6b656e000000000000000000000000000000602082015250565b7f4552433732313a20617070726f76656420717565727920666f72206e6f6e657860008201527f697374656e7420746f6b656e0000000000000000000000000000000000000000602082015250565b7f596f7520616c7265616479206861766520612070726f66696c65210000000000600082015250565b7f4552433732314d657461646174613a2055524920717565727920666f72206e6f60008201527f6e6578697374656e7420746f6b656e0000000000000000000000000000000000602082015250565b7f4552433732313a20617070726f76616c20746f2063757272656e74206f776e6560008201527f7200000000000000000000000000000000000000000000000000000000000000602082015250565b7f646174613a6170706c69636174696f6e2f6a736f6e3b6261736536342c000000600082015250565b7f4552433732313a207472616e736665722063616c6c6572206973206e6f74206f60008201527f776e6572206e6f7220617070726f766564000000000000000000000000000000602082015250565b7f506f7374206973206e6f7420617661696c61626c6520666f7220766f74696e6760008201527f20616e796d6f7265000000000000000000000000000000000000000000000000602082015250565b61592f81614fc1565b811461593a57600080fd5b50565b61594681614fd3565b811461595157600080fd5b50565b61595d81614fdf565b811461596857600080fd5b50565b6159748161502b565b811461597f57600080fd5b5056fe4142434445464748494a4b4c4d4e4f505152535455565758595a6162636465666768696a6b6c6d6e6f707172737475767778797a303132333435363738392b2fa2646970667358221220bb320d0f060dc6c8af41506844d51cd41fb44d842193e1a80b6974d488ca0f0564736f6c63430008040033",
  "linkReferences": {},
  "deployedLinkReferences": {}
}