{
  "_format": "hh-sol-artifact-1",
  "contractName": "SocialMedia",
  "sourceName": "contracts/SocialMedia.sol",
  "abi": [
    {
      "inputs": [],
      "stateMutability": "nonpayable",
      "type": "constructor"
    },
    {
      "anonymous": false,
      "inputs": [
        {
          "indexed": true,
          "internalType": "address",
          "name": "owner",
          "type": "address"
        },
        {
          "indexed": true,
          "internalType": "address",
          "name": "approved",
          "type": "address"
        },
        {
          "indexed": true,
          "internalType": "uint256",
          "name": "tokenId",
          "type": "uint256"
        }
      ],
      "name": "Approval",
      "type": "event"
    },
    {
      "anonymous": false,
      "inputs": [
        {
          "indexed": true,
          "internalType": "address",
          "name": "owner",
          "type": "address"
        },
        {
          "indexed": true,
          "internalType": "address",
          "name": "operator",
          "type": "address"
        },
        {
          "indexed": false,
          "internalType": "bool",
          "name": "approved",
          "type": "bool"
        }
      ],
      "name": "ApprovalForAll",
      "type": "event"
    },
    {
      "anonymous": false,
      "inputs": [
        {
          "indexed": true,
          "internalType": "address",
          "name": "from",
          "type": "address"
        },
        {
          "indexed": true,
          "internalType": "address",
          "name": "to",
          "type": "address"
        },
        {
          "indexed": true,
          "internalType": "uint256",
          "name": "tokenId",
          "type": "uint256"
        }
      ],
      "name": "Transfer",
      "type": "event"
    },
    {
      "inputs": [
        {
          "internalType": "address",
          "name": "to",
          "type": "address"
        },
        {
          "internalType": "uint256",
          "name": "tokenId",
          "type": "uint256"
        }
      ],
      "name": "approve",
      "outputs": [],
      "stateMutability": "nonpayable",
      "type": "function"
    },
    {
      "inputs": [
        {
          "internalType": "address",
          "name": "owner",
          "type": "address"
        }
      ],
      "name": "balanceOf",
      "outputs": [
        {
          "internalType": "uint256",
          "name": "",
          "type": "uint256"
        }
      ],
      "stateMutability": "view",
      "type": "function"
    },
    {
      "inputs": [
        {
          "internalType": "uint256",
          "name": "_postId",
          "type": "uint256"
        }
      ],
      "name": "dislike",
      "outputs": [],
      "stateMutability": "nonpayable",
      "type": "function"
    },
    {
      "inputs": [],
      "name": "getAllPost",
      "outputs": [
        {
          "components": [
            {
              "internalType": "uint256",
              "name": "postId",
              "type": "uint256"
            },
            {
              "internalType": "string",
              "name": "content",
              "type": "string"
            },
            {
              "internalType": "string",
              "name": "date",
              "type": "string"
            },
            {
              "internalType": "address",
              "name": "owner",
              "type": "address"
            },
            {
              "internalType": "uint256",
              "name": "like",
              "type": "uint256"
            },
            {
              "internalType": "uint256",
              "name": "dislike",
              "type": "uint256"
            },
            {
              "internalType": "bool",
              "name": "isActive",
              "type": "bool"
            },
            {
              "internalType": "address[]",
              "name": "likers",
              "type": "address[]"
            }
          ],
          "internalType": "struct SocialMedia.post[]",
          "name": "",
          "type": "tuple[]"
        }
      ],
      "stateMutability": "view",
      "type": "function"
    },
    {
      "inputs": [
        {
          "internalType": "uint256",
          "name": "tokenId",
          "type": "uint256"
        }
      ],
      "name": "getApproved",
      "outputs": [
        {
          "internalType": "address",
          "name": "",
          "type": "address"
        }
      ],
      "stateMutability": "view",
      "type": "function"
    },
    {
      "inputs": [],
      "name": "getDescription",
      "outputs": [
        {
          "internalType": "string",
          "name": "",
          "type": "string"
        }
      ],
      "stateMutability": "view",
      "type": "function"
    },
    {
      "inputs": [],
      "name": "getUsername",
      "outputs": [
        {
          "internalType": "string",
          "name": "",
          "type": "string"
        }
      ],
      "stateMutability": "view",
      "type": "function"
    },
    {
      "inputs": [
        {
          "internalType": "address",
          "name": "owner",
          "type": "address"
        },
        {
          "internalType": "address",
          "name": "operator",
          "type": "address"
        }
      ],
      "name": "isApprovedForAll",
      "outputs": [
        {
          "internalType": "bool",
          "name": "",
          "type": "bool"
        }
      ],
      "stateMutability": "view",
      "type": "function"
    },
    {
      "inputs": [],
      "name": "isRegistered",
      "outputs": [
        {
          "internalType": "bool",
          "name": "",
          "type": "bool"
        }
      ],
      "stateMutability": "view",
      "type": "function"
    },
    {
      "inputs": [
        {
          "internalType": "uint256",
          "name": "_postId",
          "type": "uint256"
        }
      ],
      "name": "like",
      "outputs": [],
      "stateMutability": "nonpayable",
      "type": "function"
    },
    {
      "inputs": [
        {
          "internalType": "address",
          "name": "",
          "type": "address"
        },
        {
          "internalType": "uint256",
          "name": "",
          "type": "uint256"
        }
      ],
      "name": "listOfLikedPost",
      "outputs": [
        {
          "internalType": "uint256",
          "name": "",
          "type": "uint256"
        }
      ],
      "stateMutability": "view",
      "type": "function"
    },
    {
      "inputs": [
        {
          "internalType": "uint256",
          "name": "",
          "type": "uint256"
        },
        {
          "internalType": "uint256",
          "name": "",
          "type": "uint256"
        }
      ],
      "name": "listOfPostLikers",
      "outputs": [
        {
          "internalType": "address",
          "name": "",
          "type": "address"
        }
      ],
      "stateMutability": "view",
      "type": "function"
    },
    {
      "inputs": [],
      "name": "name",
      "outputs": [
        {
          "internalType": "string",
          "name": "",
          "type": "string"
        }
      ],
      "stateMutability": "view",
      "type": "function"
    },
    {
      "inputs": [
        {
          "internalType": "uint256",
          "name": "tokenId",
          "type": "uint256"
        }
      ],
      "name": "ownerOf",
      "outputs": [
        {
          "internalType": "address",
          "name": "",
          "type": "address"
        }
      ],
      "stateMutability": "view",
      "type": "function"
    },
    {
      "inputs": [
        {
          "internalType": "uint256",
          "name": "",
          "type": "uint256"
        }
      ],
      "name": "posts",
      "outputs": [
        {
          "internalType": "uint256",
          "name": "postId",
          "type": "uint256"
        },
        {
          "internalType": "string",
          "name": "content",
          "type": "string"
        },
        {
          "internalType": "string",
          "name": "date",
          "type": "string"
        },
        {
          "internalType": "address",
          "name": "owner",
          "type": "address"
        },
        {
          "internalType": "uint256",
          "name": "like",
          "type": "uint256"
        },
        {
          "internalType": "uint256",
          "name": "dislike",
          "type": "uint256"
        },
        {
          "internalType": "bool",
          "name": "isActive",
          "type": "bool"
        }
      ],
      "stateMutability": "view",
      "type": "function"
    },
    {
      "inputs": [
        {
          "internalType": "string",
          "name": "_username",
          "type": "string"
        },
        {
          "internalType": "string",
          "name": "_description",
          "type": "string"
        }
      ],
      "name": "register",
      "outputs": [],
      "stateMutability": "nonpayable",
      "type": "function"
    },
    {
      "inputs": [
        {
          "internalType": "address",
          "name": "from",
          "type": "address"
        },
        {
          "internalType": "address",
          "name": "to",
          "type": "address"
        },
        {
          "internalType": "uint256",
          "name": "tokenId",
          "type": "uint256"
        }
      ],
      "name": "safeTransferFrom",
      "outputs": [],
      "stateMutability": "nonpayable",
      "type": "function"
    },
    {
      "inputs": [
        {
          "internalType": "address",
          "name": "from",
          "type": "address"
        },
        {
          "internalType": "address",
          "name": "to",
          "type": "address"
        },
        {
          "internalType": "uint256",
          "name": "tokenId",
          "type": "uint256"
        },
        {
          "internalType": "bytes",
          "name": "_data",
          "type": "bytes"
        }
      ],
      "name": "safeTransferFrom",
      "outputs": [],
      "stateMutability": "nonpayable",
      "type": "function"
    },
    {
      "inputs": [
        {
          "internalType": "address",
          "name": "operator",
          "type": "address"
        },
        {
          "internalType": "bool",
          "name": "approved",
          "type": "bool"
        }
      ],
      "name": "setApprovalForAll",
      "outputs": [],
      "stateMutability": "nonpayable",
      "type": "function"
    },
    {
      "inputs": [
        {
          "internalType": "address",
          "name": "_contractAddress",
          "type": "address"
        }
      ],
      "name": "setTokenContractAddress",
      "outputs": [],
      "stateMutability": "nonpayable",
      "type": "function"
    },
    {
      "inputs": [
        {
          "internalType": "bytes4",
          "name": "interfaceId",
          "type": "bytes4"
        }
      ],
      "name": "supportsInterface",
      "outputs": [
        {
          "internalType": "bool",
          "name": "",
          "type": "bool"
        }
      ],
      "stateMutability": "view",
      "type": "function"
    },
    {
      "inputs": [],
      "name": "symbol",
      "outputs": [
        {
          "internalType": "string",
          "name": "",
          "type": "string"
        }
      ],
      "stateMutability": "view",
      "type": "function"
    },
    {
      "inputs": [
        {
          "internalType": "uint256",
          "name": "tokenId",
          "type": "uint256"
        }
      ],
      "name": "tokenURI",
      "outputs": [
        {
          "internalType": "string",
          "name": "",
          "type": "string"
        }
      ],
      "stateMutability": "view",
      "type": "function"
    },
    {
      "inputs": [
        {
          "internalType": "address",
          "name": "from",
          "type": "address"
        },
        {
          "internalType": "address",
          "name": "to",
          "type": "address"
        },
        {
          "internalType": "uint256",
          "name": "tokenId",
          "type": "uint256"
        }
      ],
      "name": "transferFrom",
      "outputs": [],
      "stateMutability": "nonpayable",
      "type": "function"
    },
    {
      "inputs": [
        {
          "internalType": "string",
          "name": "_content",
          "type": "string"
        }
      ],
      "name": "userPost",
      "outputs": [],
      "stateMutability": "nonpayable",
      "type": "function"
    },
    {
      "inputs": [
        {
          "internalType": "address",
          "name": "",
          "type": "address"
        }
      ],
      "name": "userProfile",
      "outputs": [
        {
          "internalType": "uint256",
          "name": "uid",
          "type": "uint256"
        },
        {
          "internalType": "string",
          "name": "username",
          "type": "string"
        },
        {
          "internalType": "string",
          "name": "description",
          "type": "string"
        },
        {
          "internalType": "uint256",
          "name": "numberOfPost",
          "type": "uint256"
        },
        {
          "internalType": "uint256",
          "name": "totalLikes",
          "type": "uint256"
        },
        {
          "internalType": "uint256",
          "name": "totalDislikes",
          "type": "uint256"
        },
        {
          "internalType": "uint256",
          "name": "validVote",
          "type": "uint256"
        },
        {
          "internalType": "uint256",
          "name": "approvedPost",
          "type": "uint256"
        },
        {
          "internalType": "bool",
          "name": "active",
          "type": "bool"
        }
      ],
      "stateMutability": "view",
      "type": "function"
    }
  ],
  "bytecode": "0x60806040523480156200001157600080fd5b506040518060400160405280600f81526020017f536f6369616c4d65646961506f737400000000000000000000000000000000008152506040518060400160405280600381526020017f534d50000000000000000000000000000000000000000000000000000000000081525081600090805190602001906200009692919062000111565b508060019080519060200190620000af92919062000111565b50505033600760006101000a81548173ffffffffffffffffffffffffffffffffffffffff021916908373ffffffffffffffffffffffffffffffffffffffff16021790555060006008819055506000600a81905550600060098190555062000226565b8280546200011f90620001c1565b90600052602060002090601f0160209004810192826200014357600085556200018f565b82601f106200015e57805160ff19168380011785556200018f565b828001600101855582156200018f579182015b828111156200018e57825182559160200191906001019062000171565b5b5090506200019e9190620001a2565b5090565b5b80821115620001bd576000816000905550600101620001a3565b5090565b60006002820490506001821680620001da57607f821691505b60208210811415620001f157620001f0620001f7565b5b50919050565b7f4e487b7100000000000000000000000000000000000000000000000000000000600052602260045260246000fd5b6152c080620002366000396000f3fe608060405234801561001057600080fd5b506004361061018e5760003560e01c806364c8f2f4116100de578063a22cb46511610097578063c87b56dd11610071578063c87b56dd146104b3578063da7d9d10146104e3578063e82935da14610501578063e985e9c51461051d5761018e565b8063a22cb4651461045f578063b23d48541461047b578063b88d4fde146104975761018e565b806364c8f2f414610377578063681f3e6d146103a757806370a08231146103c55780638037d194146103f5578063885015b11461041157806395d89b41146104415761018e565b80631c8e89621161014b5780633ffbd47f116101255780633ffbd47f146102f357806342842e0e1461030f578063618f8bbb1461032b5780636352211e146103475761018e565b80631c8e89621461028157806322366844146102b957806323b872dd146102d75761018e565b806301ffc9a71461019357806306fdde03146101c3578063081812fc146101e1578063095ea7b3146102115780630b1e7f831461022d5780631a09254114610263575b600080fd5b6101ad60048036038101906101a891906137a1565b61054d565b6040516101ba91906141f2565b60405180910390f35b6101cb61062f565b6040516101d8919061420d565b60405180910390f35b6101fb60048036038101906101f691906138ad565b6106c1565b6040516102089190614109565b60405180910390f35b61022b6004803603810190610226919061373c565b610746565b005b610247600480360381019061024291906138ad565b61085e565b60405161025a979695949392919061451a565b60405180910390f35b61026b6109dd565b604051610278919061420d565b60405180910390f35b61029b600480360381019061029691906135d1565b610aaf565b6040516102b099989796959493929190614597565b60405180910390f35b6102c1610c1a565b6040516102ce91906141f2565b60405180910390f35b6102f160048036038101906102ec9190613636565b610c71565b005b61030d60048036038101906103089190613838565b610cd1565b005b61032960048036038101906103249190613636565b610f86565b005b610345600480360381019061034091906138ad565b610fa6565b005b610361600480360381019061035c91906138ad565b611224565b60405161036e9190614109565b60405180910390f35b610391600480360381019061038c919061373c565b6112d6565b60405161039e91906144cf565b60405180910390f35b6103af611307565b6040516103bc919061420d565b60405180910390f35b6103df60048036038101906103da91906135d1565b6113d9565b6040516103ec91906144cf565b60405180910390f35b61040f600480360381019061040a91906137f3565b611491565b005b61042b600480360381019061042691906138d6565b611682565b6040516104389190614109565b60405180910390f35b6104496116d0565b604051610456919061420d565b60405180910390f35b61047960048036038101906104749190613700565b611762565b005b610495600480360381019061049091906135d1565b611778565b005b6104b160048036038101906104ac9190613685565b61184c565b005b6104cd60048036038101906104c891906138ad565b6118ae565b6040516104da919061420d565b60405180910390f35b6104eb611a00565b6040516104f891906141d0565b60405180910390f35b61051b600480360381019061051691906138ad565b611d4e565b005b610537600480360381019061053291906135fa565b61232e565b60405161054491906141f2565b60405180910390f35b60007f80ac58cd000000000000000000000000000000000000000000000000000000007bffffffffffffffffffffffffffffffffffffffffffffffffffffffff1916827bffffffffffffffffffffffffffffffffffffffffffffffffffffffff1916148061061857507f5b5e139f000000000000000000000000000000000000000000000000000000007bffffffffffffffffffffffffffffffffffffffffffffffffffffffff1916827bffffffffffffffffffffffffffffffffffffffffffffffffffffffff1916145b806106285750610627826123c2565b5b9050919050565b60606000805461063e9061499e565b80601f016020809104026020016040519081016040528092919081815260200182805461066a9061499e565b80156106b75780601f1061068c576101008083540402835291602001916106b7565b820191906000526020600020905b81548152906001019060200180831161069a57829003601f168201915b5050505050905090565b60006106cc8261242c565b61070b576040517f08c379a00000000000000000000000000000000000000000000000000000000081526004016107029061440f565b60405180910390fd5b6004600083815260200190815260200160002060009054906101000a900473ffffffffffffffffffffffffffffffffffffffff169050919050565b600061075182611224565b90508073ffffffffffffffffffffffffffffffffffffffff168373ffffffffffffffffffffffffffffffffffffffff1614156107c2576040517f08c379a00000000000000000000000000000000000000000000000000000000081526004016107b99061446f565b60405180910390fd5b8073ffffffffffffffffffffffffffffffffffffffff166107e1612498565b73ffffffffffffffffffffffffffffffffffffffff161480610810575061080f8161080a612498565b61232e565b5b61084f576040517f08c379a00000000000000000000000000000000000000000000000000000000081526004016108469061432f565b60405180910390fd5b61085983836124a0565b505050565b600d6020528060005260406000206000915090508060000154908060010180546108879061499e565b80601f01602080910402602001604051908101604052809291908181526020018280546108b39061499e565b80156109005780601f106108d557610100808354040283529160200191610900565b820191906000526020600020905b8154815290600101906020018083116108e357829003601f168201915b5050505050908060020180546109159061499e565b80601f01602080910402602001604051908101604052809291908181526020018280546109419061499e565b801561098e5780601f106109635761010080835404028352916020019161098e565b820191906000526020600020905b81548152906001019060200180831161097157829003601f168201915b5050505050908060030160009054906101000a900473ffffffffffffffffffffffffffffffffffffffff16908060040154908060050154908060060160009054906101000a900460ff16905087565b6060600c60003373ffffffffffffffffffffffffffffffffffffffff1673ffffffffffffffffffffffffffffffffffffffff1681526020019081526020016000206002018054610a2c9061499e565b80601f0160208091040260200160405190810160405280929190818152602001828054610a589061499e565b8015610aa55780601f10610a7a57610100808354040283529160200191610aa5565b820191906000526020600020905b815481529060010190602001808311610a8857829003601f168201915b5050505050905090565b600c602052806000526040600020600091509050806000015490806001018054610ad89061499e565b80601f0160208091040260200160405190810160405280929190818152602001828054610b049061499e565b8015610b515780601f10610b2657610100808354040283529160200191610b51565b820191906000526020600020905b815481529060010190602001808311610b3457829003601f168201915b505050505090806002018054610b669061499e565b80601f0160208091040260200160405190810160405280929190818152602001828054610b929061499e565b8015610bdf5780601f10610bb457610100808354040283529160200191610bdf565b820191906000526020600020905b815481529060010190602001808311610bc257829003601f168201915b5050505050908060030154908060040154908060050154908060060154908060070154908060080160009054906101000a900460ff16905089565b6000600c60003373ffffffffffffffffffffffffffffffffffffffff1673ffffffffffffffffffffffffffffffffffffffff16815260200190815260200160002060080160009054906101000a900460ff16905090565b610c82610c7c612498565b82612559565b610cc1576040517f08c379a0000000000000000000000000000000000000000000000000000000008152600401610cb89061448f565b60405180910390fd5b610ccc838383612637565b505050565b600c60003373ffffffffffffffffffffffffffffffffffffffff1673ffffffffffffffffffffffffffffffffffffffff16815260200190815260200160002060080160009054906101000a900460ff1615610d61576040517f08c379a0000000000000000000000000000000000000000000000000000000008152600401610d589061442f565b60405180910390fd5b6001600c60003373ffffffffffffffffffffffffffffffffffffffff1673ffffffffffffffffffffffffffffffffffffffff16815260200190815260200160002060080160006101000a81548160ff0219169083151502179055508383600c60003373ffffffffffffffffffffffffffffffffffffffff1673ffffffffffffffffffffffffffffffffffffffff1681526020019081526020016000206001019190610e0d92919061331b565b508181600c60003373ffffffffffffffffffffffffffffffffffffffff1673ffffffffffffffffffffffffffffffffffffffff1681526020019081526020016000206002019190610e5f92919061331b565b506000600c60003373ffffffffffffffffffffffffffffffffffffffff1673ffffffffffffffffffffffffffffffffffffffff168152602001908152602001600020600301819055506000600c60003373ffffffffffffffffffffffffffffffffffffffff1673ffffffffffffffffffffffffffffffffffffffff168152602001908152602001600020600401819055506000600c60003373ffffffffffffffffffffffffffffffffffffffff1673ffffffffffffffffffffffffffffffffffffffff168152602001908152602001600020600501819055506000600c60003373ffffffffffffffffffffffffffffffffffffffff1673ffffffffffffffffffffffffffffffffffffffff1681526020019081526020016000206006018190555050505050565b610fa18383836040518060200160405280600081525061184c565b505050565b600c60003373ffffffffffffffffffffffffffffffffffffffff1673ffffffffffffffffffffffffffffffffffffffff16815260200190815260200160002060080160009054906101000a900460ff16611035576040517f08c379a000000000000000000000000000000000000000000000000000000000815260040161102c9061428f565b60405180910390fd5b600d600082815260200190815260200160002060060160009054906101000a900460ff16611098576040517f08c379a000000000000000000000000000000000000000000000000000000000815260040161108f906144af565b60405180910390fd5b600c60003373ffffffffffffffffffffffffffffffffffffffff1673ffffffffffffffffffffffffffffffffffffffff168152602001908152602001600020600901600082815260200190815260200160002060009054906101000a900460ff1615611139576040517f08c379a0000000000000000000000000000000000000000000000000000000008152600401611130906143af565b60405180910390fd5b6001600d6000838152602001908152602001600020600501600082825461116091906147a1565b925050819055506001600c60003373ffffffffffffffffffffffffffffffffffffffff1673ffffffffffffffffffffffffffffffffffffffff168152602001908152602001600020600901600083815260200190815260200160002060006101000a81548160ff0219169083151502179055506001600d60008381526020019081526020016000206005015410611221576000600d600083815260200190815260200160002060060160006101000a81548160ff0219169083151502179055505b50565b6000806002600084815260200190815260200160002060009054906101000a900473ffffffffffffffffffffffffffffffffffffffff169050600073ffffffffffffffffffffffffffffffffffffffff168173ffffffffffffffffffffffffffffffffffffffff1614156112cd576040517f08c379a00000000000000000000000000000000000000000000000000000000081526004016112c49061436f565b60405180910390fd5b80915050919050565b600f60205281600052604060002081815481106112f257600080fd5b90600052602060002001600091509150505481565b6060600c60003373ffffffffffffffffffffffffffffffffffffffff1673ffffffffffffffffffffffffffffffffffffffff16815260200190815260200160002060010180546113569061499e565b80601f01602080910402602001604051908101604052809291908181526020018280546113829061499e565b80156113cf5780601f106113a4576101008083540402835291602001916113cf565b820191906000526020600020905b8154815290600101906020018083116113b257829003601f168201915b5050505050905090565b60008073ffffffffffffffffffffffffffffffffffffffff168273ffffffffffffffffffffffffffffffffffffffff16141561144a576040517f08c379a00000000000000000000000000000000000000000000000000000000081526004016114419061434f565b60405180910390fd5b600360008373ffffffffffffffffffffffffffffffffffffffff1673ffffffffffffffffffffffffffffffffffffffff168152602001908152602001600020549050919050565b600c60003373ffffffffffffffffffffffffffffffffffffffff1673ffffffffffffffffffffffffffffffffffffffff16815260200190815260200160002060080160009054906101000a900460ff16611520576040517f08c379a00000000000000000000000000000000000000000000000000000000081526004016115179061428f565b60405180910390fd5b33600d6000600854815260200190815260200160002060030160006101000a81548173ffffffffffffffffffffffffffffffffffffffff021916908373ffffffffffffffffffffffffffffffffffffffff1602179055508181600d60006008548152602001908152602001600020600101919061159e92919061331b565b506000600d60006008548152602001908152602001600020600401819055506000600d60006008548152602001908152602001600020600501819055506001600d6000600854815260200190815260200160002060060160006101000a81548160ff0219169083151502179055506001600c60003373ffffffffffffffffffffffffffffffffffffffff1673ffffffffffffffffffffffffffffffffffffffff168152602001908152602001600020600301600082825461165f91906147a1565b925050819055506008600081548092919061167990614a1b565b91905055505050565b600e602052816000526040600020818154811061169e57600080fd5b906000526020600020016000915091509054906101000a900473ffffffffffffffffffffffffffffffffffffffff1681565b6060600180546116df9061499e565b80601f016020809104026020016040519081016040528092919081815260200182805461170b9061499e565b80156117585780601f1061172d57610100808354040283529160200191611758565b820191906000526020600020905b81548152906001019060200180831161173b57829003601f168201915b5050505050905090565b61177461176d612498565b838361289e565b5050565b600760009054906101000a900473ffffffffffffffffffffffffffffffffffffffff1673ffffffffffffffffffffffffffffffffffffffff163373ffffffffffffffffffffffffffffffffffffffff1614611808576040517f08c379a00000000000000000000000000000000000000000000000000000000081526004016117ff906142ef565b60405180910390fd5b80600b60006101000a81548173ffffffffffffffffffffffffffffffffffffffff021916908373ffffffffffffffffffffffffffffffffffffffff16021790555050565b61185d611857612498565b83612559565b61189c576040517f08c379a00000000000000000000000000000000000000000000000000000000081526004016118939061448f565b60405180910390fd5b6118a884848484612a0b565b50505050565b60606118b98261242c565b6118f8576040517f08c379a00000000000000000000000000000000000000000000000000000000081526004016118ef906143ef565b60405180910390fd5b60006006600084815260200190815260200160002080546119189061499e565b80601f01602080910402602001604051908101604052809291908181526020018280546119449061499e565b80156119915780601f1061196657610100808354040283529160200191611991565b820191906000526020600020905b81548152906001019060200180831161197457829003601f168201915b5050505050905060006119a2612a67565b90506000815114156119b85781925050506119fb565b6000825111156119ed5780826040516020016119d592919061407a565b604051602081830303815290604052925050506119fb565b6119f684612a7e565b925050505b919050565b6060600060085467ffffffffffffffff811115611a46577f4e487b7100000000000000000000000000000000000000000000000000000000600052604160045260246000fd5b604051908082528060200260200182016040528015611a7f57816020015b611a6c6133a1565b815260200190600190039081611a645790505b50905060005b600854811015611d4657600d60008281526020019081526020016000206040518061010001604052908160008201548152602001600182018054611ac89061499e565b80601f0160208091040260200160405190810160405280929190818152602001828054611af49061499e565b8015611b415780601f10611b1657610100808354040283529160200191611b41565b820191906000526020600020905b815481529060010190602001808311611b2457829003601f168201915b50505050508152602001600282018054611b5a9061499e565b80601f0160208091040260200160405190810160405280929190818152602001828054611b869061499e565b8015611bd35780601f10611ba857610100808354040283529160200191611bd3565b820191906000526020600020905b815481529060010190602001808311611bb657829003601f168201915b505050505081526020016003820160009054906101000a900473ffffffffffffffffffffffffffffffffffffffff1673ffffffffffffffffffffffffffffffffffffffff1673ffffffffffffffffffffffffffffffffffffffff16815260200160048201548152602001600582015481526020016006820160009054906101000a900460ff1615151515815260200160078201805480602002602001604051908101604052809291908181526020018280548015611ce657602002820191906000526020600020905b8160009054906101000a900473ffffffffffffffffffffffffffffffffffffffff1673ffffffffffffffffffffffffffffffffffffffff1681526020019060010190808311611c9c575b505050505081525050828281518110611d28577f4e487b7100000000000000000000000000000000000000000000000000000000600052603260045260246000fd5b60200260200101819052508080611d3e90614a1b565b915050611a85565b508091505090565b600c60003373ffffffffffffffffffffffffffffffffffffffff1673ffffffffffffffffffffffffffffffffffffffff16815260200190815260200160002060080160009054906101000a900460ff16611ddd576040517f08c379a0000000000000000000000000000000000000000000000000000000008152600401611dd49061428f565b60405180910390fd5b600d600082815260200190815260200160002060060160009054906101000a900460ff16611e40576040517f08c379a0000000000000000000000000000000000000000000000000000000008152600401611e37906144af565b60405180910390fd5b600c60003373ffffffffffffffffffffffffffffffffffffffff1673ffffffffffffffffffffffffffffffffffffffff168152602001908152602001600020600901600082815260200190815260200160002060009054906101000a900460ff1615611ee1576040517f08c379a0000000000000000000000000000000000000000000000000000000008152600401611ed8906143af565b60405180910390fd5b6001600d60008381526020019081526020016000206004016000828254611f0891906147a1565b92505081905550600d6000828152602001908152602001600020600701339080600181540180825580915050600190039060005260206000200160009091909190916101000a81548173ffffffffffffffffffffffffffffffffffffffff021916908373ffffffffffffffffffffffffffffffffffffffff1602179055506001600c60003373ffffffffffffffffffffffffffffffffffffffff1673ffffffffffffffffffffffffffffffffffffffff168152602001908152602001600020600901600083815260200190815260200160002060006101000a81548160ff021916908315150217905550600b60009054906101000a900473ffffffffffffffffffffffffffffffffffffffff1673ffffffffffffffffffffffffffffffffffffffff1663095ea7b33360016040518363ffffffff1660e01b81526004016120509291906141a7565b602060405180830381600087803b15801561206a57600080fd5b505af115801561207e573d6000803e3d6000fd5b505050506040513d601f19601f820116820180604052508101906120a29190613778565b50600b60009054906101000a900473ffffffffffffffffffffffffffffffffffffffff1673ffffffffffffffffffffffffffffffffffffffff166323b872dd333060016040518463ffffffff1660e01b815260040161210393929190614124565b602060405180830381600087803b15801561211d57600080fd5b505af1158015612131573d6000803e3d6000fd5b505050506040513d601f19601f820116820180604052508101906121559190613778565b506001600d6000838152602001908152602001600020600401541061232b5760006121eb600d600084815260200190815260200160002060030160009054906101000a900473ffffffffffffffffffffffffffffffffffffffff16600d60008581526020019081526020016000206001016040516020016121d792919061409e565b604051602081830303815290604052612b25565b905060008160405160200161220091906140e7565b6040516020818303038152906040529050612253600d600085815260200190815260200160002060030160009054906101000a900473ffffffffffffffffffffffffffffffffffffffff16600a54612ce3565b61225f600a5482612d01565b6000600b60009054906101000a900473ffffffffffffffffffffffffffffffffffffffff1690506000600a90508173ffffffffffffffffffffffffffffffffffffffff1663943f894b82600d60008981526020019081526020016000206007016040518363ffffffff1660e01b81526004016122dc9291906144ea565b600060405180830381600087803b1580156122f657600080fd5b505af115801561230a573d6000803e3d6000fd5b50505050600a600081548092919061232190614a1b565b9190505550505050505b50565b6000600560008473ffffffffffffffffffffffffffffffffffffffff1673ffffffffffffffffffffffffffffffffffffffff16815260200190815260200160002060008373ffffffffffffffffffffffffffffffffffffffff1673ffffffffffffffffffffffffffffffffffffffff16815260200190815260200160002060009054906101000a900460ff16905092915050565b60007f01ffc9a7000000000000000000000000000000000000000000000000000000007bffffffffffffffffffffffffffffffffffffffffffffffffffffffff1916827bffffffffffffffffffffffffffffffffffffffffffffffffffffffff1916149050919050565b60008073ffffffffffffffffffffffffffffffffffffffff166002600084815260200190815260200160002060009054906101000a900473ffffffffffffffffffffffffffffffffffffffff1673ffffffffffffffffffffffffffffffffffffffff1614159050919050565b600033905090565b816004600083815260200190815260200160002060006101000a81548173ffffffffffffffffffffffffffffffffffffffff021916908373ffffffffffffffffffffffffffffffffffffffff160217905550808273ffffffffffffffffffffffffffffffffffffffff1661251383611224565b73ffffffffffffffffffffffffffffffffffffffff167f8c5be1e5ebec7d5bd14f71427d1e84f3dd0314c0f7b2291e5b200ac8c7c3b92560405160405180910390a45050565b60006125648261242c565b6125a3576040517f08c379a000000000000000000000000000000000000000000000000000000000815260040161259a9061430f565b60405180910390fd5b60006125ae83611224565b90508073ffffffffffffffffffffffffffffffffffffffff168473ffffffffffffffffffffffffffffffffffffffff16148061261d57508373ffffffffffffffffffffffffffffffffffffffff16612605846106c1565b73ffffffffffffffffffffffffffffffffffffffff16145b8061262e575061262d818561232e565b5b91505092915050565b8273ffffffffffffffffffffffffffffffffffffffff1661265782611224565b73ffffffffffffffffffffffffffffffffffffffff16146126ad576040517f08c379a00000000000000000000000000000000000000000000000000000000081526004016126a49061424f565b60405180910390fd5b600073ffffffffffffffffffffffffffffffffffffffff168273ffffffffffffffffffffffffffffffffffffffff16141561271d576040517f08c379a0000000000000000000000000000000000000000000000000000000008152600401612714906142af565b60405180910390fd5b612728838383612d75565b6127336000826124a0565b6001600360008573ffffffffffffffffffffffffffffffffffffffff1673ffffffffffffffffffffffffffffffffffffffff16815260200190815260200160002060008282546127839190614882565b925050819055506001600360008473ffffffffffffffffffffffffffffffffffffffff1673ffffffffffffffffffffffffffffffffffffffff16815260200190815260200160002060008282546127da91906147a1565b92505081905550816002600083815260200190815260200160002060006101000a81548173ffffffffffffffffffffffffffffffffffffffff021916908373ffffffffffffffffffffffffffffffffffffffff160217905550808273ffffffffffffffffffffffffffffffffffffffff168473ffffffffffffffffffffffffffffffffffffffff167fddf252ad1be2c89b69c2b068fc378daa952ba7f163c4a11628f55a4df523b3ef60405160405180910390a4612899838383612d7a565b505050565b8173ffffffffffffffffffffffffffffffffffffffff168373ffffffffffffffffffffffffffffffffffffffff16141561290d576040517f08c379a0000000000000000000000000000000000000000000000000000000008152600401612904906142cf565b60405180910390fd5b80600560008573ffffffffffffffffffffffffffffffffffffffff1673ffffffffffffffffffffffffffffffffffffffff16815260200190815260200160002060008473ffffffffffffffffffffffffffffffffffffffff1673ffffffffffffffffffffffffffffffffffffffff16815260200190815260200160002060006101000a81548160ff0219169083151502179055508173ffffffffffffffffffffffffffffffffffffffff168373ffffffffffffffffffffffffffffffffffffffff167f17307eab39ab6107e8899845ad3d59bd9653f200f220920489ca2b5937696c31836040516129fe91906141f2565b60405180910390a3505050565b612a16848484612637565b612a2284848484612d7f565b612a61576040517f08c379a0000000000000000000000000000000000000000000000000000000008152600401612a589061422f565b60405180910390fd5b50505050565b606060405180602001604052806000815250905090565b6060612a898261242c565b612ac8576040517f08c379a0000000000000000000000000000000000000000000000000000000008152600401612abf9061444f565b60405180910390fd5b6000612ad2612a67565b90506000815111612af25760405180602001604052806000815250612b1d565b80612afc84612f16565b604051602001612b0d92919061407a565b6040516020818303038152906040525b915050919050565b60606000825190506000811415612b4e5760405180602001604052806000815250915050612cde565b60006003600283612b5f91906147a1565b612b6991906147f7565b6004612b759190614828565b90506000602082612b8691906147a1565b67ffffffffffffffff811115612bc5577f4e487b7100000000000000000000000000000000000000000000000000000000600052604160045260246000fd5b6040519080825280601f01601f191660200182016040528015612bf75781602001600182028036833780820191505090505b509050600060405180606001604052806040815260200161524b604091399050600181016020830160005b86811015612c9b5760038101905062ffffff818a015116603f8160121c168401518060081b905060ff603f83600c1c1686015116810190508060081b905060ff603f8360061c1686015116810190508060081b905060ff603f831686015116810190508060e01b90508084526004840193505050612c22565b506003860660018114612cb55760028114612cc557612cd0565b613d3d60f01b6002830352612cd0565b603d60f81b60018303525b508484525050819450505050505b919050565b612cfd8282604051806020016040528060008152506130c3565b5050565b612d0a8261242c565b612d49576040517f08c379a0000000000000000000000000000000000000000000000000000000008152600401612d409061438f565b60405180910390fd5b80600660008481526020019081526020016000209080519060200190612d709291906133fe565b505050565b505050565b505050565b6000612da08473ffffffffffffffffffffffffffffffffffffffff1661311e565b15612f09578373ffffffffffffffffffffffffffffffffffffffff1663150b7a02612dc9612498565b8786866040518563ffffffff1660e01b8152600401612deb949392919061415b565b602060405180830381600087803b158015612e0557600080fd5b505af1925050508015612e3657506040513d601f19601f82011682018060405250810190612e3391906137ca565b60015b612eb9573d8060008114612e66576040519150601f19603f3d011682016040523d82523d6000602084013e612e6b565b606091505b50600081511415612eb1576040517f08c379a0000000000000000000000000000000000000000000000000000000008152600401612ea89061422f565b60405180910390fd5b805181602001fd5b63150b7a0260e01b7bffffffffffffffffffffffffffffffffffffffffffffffffffffffff1916817bffffffffffffffffffffffffffffffffffffffffffffffffffffffff191614915050612f0e565b600190505b949350505050565b60606000821415612f5e576040518060400160405280600181526020017f300000000000000000000000000000000000000000000000000000000000000081525090506130be565b600082905060005b60008214612f90578080612f7990614a1b565b915050600a82612f8991906147f7565b9150612f66565b60008167ffffffffffffffff811115612fd2577f4e487b7100000000000000000000000000000000000000000000000000000000600052604160045260246000fd5b6040519080825280601f01601f1916602001820160405280156130045781602001600182028036833780820191505090505b5090505b600085146130b75760018261301d9190614882565b9150600a8561302c9190614a88565b603061303891906147a1565b60f81b818381518110613074577f4e487b7100000000000000000000000000000000000000000000000000000000600052603260045260246000fd5b60200101907effffffffffffffffffffffffffffffffffffffffffffffffffffffffffffff1916908160001a905350600a856130b091906147f7565b9450613008565b8093505050505b919050565b6130cd8383613141565b6130da6000848484612d7f565b613119576040517f08c379a00000000000000000000000000000000000000000000000000000000081526004016131109061422f565b60405180910390fd5b505050565b6000808273ffffffffffffffffffffffffffffffffffffffff163b119050919050565b600073ffffffffffffffffffffffffffffffffffffffff168273ffffffffffffffffffffffffffffffffffffffff1614156131b1576040517f08c379a00000000000000000000000000000000000000000000000000000000081526004016131a8906143cf565b60405180910390fd5b6131ba8161242c565b156131fa576040517f08c379a00000000000000000000000000000000000000000000000000000000081526004016131f19061426f565b60405180910390fd5b61320660008383612d75565b6001600360008473ffffffffffffffffffffffffffffffffffffffff1673ffffffffffffffffffffffffffffffffffffffff168152602001908152602001600020600082825461325691906147a1565b92505081905550816002600083815260200190815260200160002060006101000a81548173ffffffffffffffffffffffffffffffffffffffff021916908373ffffffffffffffffffffffffffffffffffffffff160217905550808273ffffffffffffffffffffffffffffffffffffffff16600073ffffffffffffffffffffffffffffffffffffffff167fddf252ad1be2c89b69c2b068fc378daa952ba7f163c4a11628f55a4df523b3ef60405160405180910390a461331760008383612d7a565b5050565b8280546133279061499e565b90600052602060002090601f0160209004810192826133495760008555613390565b82601f1061336257803560ff1916838001178555613390565b82800160010185558215613390579182015b8281111561338f578235825591602001919060010190613374565b5b50905061339d9190613484565b5090565b604051806101000160405280600081526020016060815260200160608152602001600073ffffffffffffffffffffffffffffffffffffffff1681526020016000815260200160008152602001600015158152602001606081525090565b82805461340a9061499e565b90600052602060002090601f01602090048101928261342c5760008555613473565b82601f1061344557805160ff1916838001178555613473565b82800160010185558215613473579182015b82811115613472578251825591602001919060010190613457565b5b5090506134809190613484565b5090565b5b8082111561349d576000816000905550600101613485565b5090565b60006134b46134af84614657565b614632565b9050828152602081018484840111156134cc57600080fd5b6134d784828561495c565b509392505050565b6000813590506134ee816151ee565b92915050565b60008135905061350381615205565b92915050565b60008151905061351881615205565b92915050565b60008135905061352d8161521c565b92915050565b6000815190506135428161521c565b92915050565b600082601f83011261355957600080fd5b81356135698482602086016134a1565b91505092915050565b60008083601f84011261358457600080fd5b8235905067ffffffffffffffff81111561359d57600080fd5b6020830191508360018202830111156135b557600080fd5b9250929050565b6000813590506135cb81615233565b92915050565b6000602082840312156135e357600080fd5b60006135f1848285016134df565b91505092915050565b6000806040838503121561360d57600080fd5b600061361b858286016134df565b925050602061362c858286016134df565b9150509250929050565b60008060006060848603121561364b57600080fd5b6000613659868287016134df565b935050602061366a868287016134df565b925050604061367b868287016135bc565b9150509250925092565b6000806000806080858703121561369b57600080fd5b60006136a9878288016134df565b94505060206136ba878288016134df565b93505060406136cb878288016135bc565b925050606085013567ffffffffffffffff8111156136e857600080fd5b6136f487828801613548565b91505092959194509250565b6000806040838503121561371357600080fd5b6000613721858286016134df565b9250506020613732858286016134f4565b9150509250929050565b6000806040838503121561374f57600080fd5b600061375d858286016134df565b925050602061376e858286016135bc565b9150509250929050565b60006020828403121561378a57600080fd5b600061379884828501613509565b91505092915050565b6000602082840312156137b357600080fd5b60006137c18482850161351e565b91505092915050565b6000602082840312156137dc57600080fd5b60006137ea84828501613533565b91505092915050565b6000806020838503121561380657600080fd5b600083013567ffffffffffffffff81111561382057600080fd5b61382c85828601613572565b92509250509250929050565b6000806000806040858703121561384e57600080fd5b600085013567ffffffffffffffff81111561386857600080fd5b61387487828801613572565b9450945050602085013567ffffffffffffffff81111561389357600080fd5b61389f87828801613572565b925092505092959194509250565b6000602082840312156138bf57600080fd5b60006138cd848285016135bc565b91505092915050565b600080604083850312156138e957600080fd5b60006138f7858286016135bc565b9250506020613908858286016135bc565b9150509250929050565b600061391e838361393e565b60208301905092915050565b60006139368383613f9e565b905092915050565b613947816148d6565b82525050565b613956816148d6565b82525050565b61396d613968826148d6565b614a64565b82525050565b600061397e826146d2565b6139888185614730565b935061399383614688565b8060005b838110156139c45781516139ab8882613912565b97506139b683614709565b925050600181019050613997565b5085935050505092915050565b60006139dc826146dd565b6139e68185614741565b93506139f183614698565b8060005b83811015613a2957613a0682614b75565b613a108882613912565b9750613a1b83614716565b9250506001810190506139f5565b5085935050505092915050565b6000613a41826146e8565b613a4b8185614752565b935083602082028501613a5d856146ad565b8060005b85811015613a995784840389528151613a7a858261392a565b9450613a8583614723565b925060208a01995050600181019050613a61565b50829750879550505050505092915050565b613ab4816148e8565b82525050565b613ac3816148e8565b82525050565b6000613ad4826146f3565b613ade8185614763565b9350613aee81856020860161496b565b613af781614b88565b840191505092915050565b613b0b8161494a565b82525050565b6000613b1c826146fe565b613b268185614774565b9350613b3681856020860161496b565b613b3f81614b88565b840191505092915050565b6000613b55826146fe565b613b5f8185614785565b9350613b6f81856020860161496b565b613b7881614b88565b840191505092915050565b6000613b8e826146fe565b613b988185614796565b9350613ba881856020860161496b565b80840191505092915050565b60008154613bc18161499e565b613bcb8186614796565b94506001821660008114613be65760018114613bf757613c2a565b60ff19831686528186019350613c2a565b613c00856146bd565b60005b83811015613c2257815481890152600182019150602081019050613c03565b838801955050505b50505092915050565b6000613c40600c83614796565b9150613c4b82614bb3565b600c82019050919050565b6000613c63603283614785565b9150613c6e82614bdc565b604082019050919050565b6000613c86602583614785565b9150613c9182614c2b565b604082019050919050565b6000613ca9601c83614785565b9150613cb482614c7a565b602082019050919050565b6000613ccc601983614785565b9150613cd782614ca3565b602082019050919050565b6000613cef602483614785565b9150613cfa82614ccc565b604082019050919050565b6000613d12601983614785565b9150613d1d82614d1b565b602082019050919050565b6000613d35601583614785565b9150613d4082614d44565b602082019050919050565b6000613d58602c83614785565b9150613d6382614d6d565b604082019050919050565b6000613d7b603883614785565b9150613d8682614dbc565b604082019050919050565b6000613d9e602a83614785565b9150613da982614e0b565b604082019050919050565b6000613dc1602983614785565b9150613dcc82614e5a565b604082019050919050565b6000613de4602e83614785565b9150613def82614ea9565b604082019050919050565b6000613e07600e83614796565b9150613e1282614ef8565b600e82019050919050565b6000613e2a600283614796565b9150613e3582614f21565b600282019050919050565b6000613e4d602783614785565b9150613e5882614f4a565b604082019050919050565b6000613e70602083614785565b9150613e7b82614f99565b602082019050919050565b6000613e93603183614785565b9150613e9e82614fc2565b604082019050919050565b6000613eb6602c83614785565b9150613ec182615011565b604082019050919050565b6000613ed9601b83614785565b9150613ee482615060565b602082019050919050565b6000613efc602f83614785565b9150613f0782615089565b604082019050919050565b6000613f1f602183614785565b9150613f2a826150d8565b604082019050919050565b6000613f42601d83614796565b9150613f4d82615127565b601d82019050919050565b6000613f65603183614785565b9150613f7082615150565b604082019050919050565b6000613f88602883614785565b9150613f938261519f565b604082019050919050565b600061010083016000830151613fb7600086018261405c565b5060208301518482036020860152613fcf8282613b11565b91505060408301518482036040860152613fe98282613b11565b9150506060830151613ffe606086018261393e565b506080830151614011608086018261405c565b5060a083015161402460a086018261405c565b5060c083015161403760c0860182613aab565b5060e083015184820360e086015261404f8282613973565b9150508091505092915050565b61406581614940565b82525050565b61407481614940565b82525050565b60006140868285613b83565b91506140928284613b83565b91508190509392505050565b60006140a982613c33565b91506140b5828561395c565b6014820191506140c482613dfa565b91506140d08284613bb4565b91506140db82613e1d565b91508190509392505050565b60006140f282613f35565b91506140fe8284613b83565b915081905092915050565b600060208201905061411e600083018461394d565b92915050565b6000606082019050614139600083018661394d565b614146602083018561394d565b6141536040830184613b02565b949350505050565b6000608082019050614170600083018761394d565b61417d602083018661394d565b61418a604083018561406b565b818103606083015261419c8184613ac9565b905095945050505050565b60006040820190506141bc600083018561394d565b6141c96020830184613b02565b9392505050565b600060208201905081810360008301526141ea8184613a36565b905092915050565b60006020820190506142076000830184613aba565b92915050565b600060208201905081810360008301526142278184613b4a565b905092915050565b6000602082019050818103600083015261424881613c56565b9050919050565b6000602082019050818103600083015261426881613c79565b9050919050565b6000602082019050818103600083015261428881613c9c565b9050919050565b600060208201905081810360008301526142a881613cbf565b9050919050565b600060208201905081810360008301526142c881613ce2565b9050919050565b600060208201905081810360008301526142e881613d05565b9050919050565b6000602082019050818103600083015261430881613d28565b9050919050565b6000602082019050818103600083015261432881613d4b565b9050919050565b6000602082019050818103600083015261434881613d6e565b9050919050565b6000602082019050818103600083015261436881613d91565b9050919050565b6000602082019050818103600083015261438881613db4565b9050919050565b600060208201905081810360008301526143a881613dd7565b9050919050565b600060208201905081810360008301526143c881613e40565b9050919050565b600060208201905081810360008301526143e881613e63565b9050919050565b6000602082019050818103600083015261440881613e86565b9050919050565b6000602082019050818103600083015261442881613ea9565b9050919050565b6000602082019050818103600083015261444881613ecc565b9050919050565b6000602082019050818103600083015261446881613eef565b9050919050565b6000602082019050818103600083015261448881613f12565b9050919050565b600060208201905081810360008301526144a881613f58565b9050919050565b600060208201905081810360008301526144c881613f7b565b9050919050565b60006020820190506144e4600083018461406b565b92915050565b60006040820190506144ff600083018561406b565b818103602083015261451181846139d1565b90509392505050565b600060e08201905061452f600083018a61406b565b81810360208301526145418189613b4a565b905081810360408301526145558188613b4a565b9050614564606083018761394d565b614571608083018661406b565b61457e60a083018561406b565b61458b60c0830184613aba565b98975050505050505050565b6000610120820190506145ad600083018c61406b565b81810360208301526145bf818b613b4a565b905081810360408301526145d3818a613b4a565b90506145e2606083018961406b565b6145ef608083018861406b565b6145fc60a083018761406b565b61460960c083018661406b565b61461660e083018561406b565b614624610100830184613aba565b9a9950505050505050505050565b600061463c61464d565b905061464882826149ea565b919050565b6000604051905090565b600067ffffffffffffffff82111561467257614671614b46565b5b61467b82614b88565b9050602081019050919050565b6000819050602082019050919050565b60008190508160005260206000209050919050565b6000819050602082019050919050565b60008190508160005260206000209050919050565b600081519050919050565b600081549050919050565b600081519050919050565b600081519050919050565b600081519050919050565b6000602082019050919050565b6000600182019050919050565b6000602082019050919050565b600082825260208201905092915050565b600082825260208201905092915050565b600082825260208201905092915050565b600082825260208201905092915050565b600082825260208201905092915050565b600082825260208201905092915050565b600081905092915050565b60006147ac82614940565b91506147b783614940565b9250827fffffffffffffffffffffffffffffffffffffffffffffffffffffffffffffffff038211156147ec576147eb614ab9565b5b828201905092915050565b600061480282614940565b915061480d83614940565b92508261481d5761481c614ae8565b5b828204905092915050565b600061483382614940565b915061483e83614940565b9250817fffffffffffffffffffffffffffffffffffffffffffffffffffffffffffffffff048311821515161561487757614876614ab9565b5b828202905092915050565b600061488d82614940565b915061489883614940565b9250828210156148ab576148aa614ab9565b5b828203905092915050565b600073ffffffffffffffffffffffffffffffffffffffff82169050919050565b60006148e182614920565b9050919050565b60008115159050919050565b60007fffffffff0000000000000000000000000000000000000000000000000000000082169050919050565b600073ffffffffffffffffffffffffffffffffffffffff82169050919050565b6000819050919050565b600061495582614940565b9050919050565b82818337600083830152505050565b60005b8381101561498957808201518184015260208101905061496e565b83811115614998576000848401525b50505050565b600060028204905060018216806149b657607f821691505b602082108114156149ca576149c9614b17565b5b50919050565b60006149e36149de83614ba6565b6148b6565b9050919050565b6149f382614b88565b810181811067ffffffffffffffff82111715614a1257614a11614b46565b5b80604052505050565b6000614a2682614940565b91507fffffffffffffffffffffffffffffffffffffffffffffffffffffffffffffffff821415614a5957614a58614ab9565b5b600182019050919050565b6000614a6f82614a76565b9050919050565b6000614a8182614b99565b9050919050565b6000614a9382614940565b9150614a9e83614940565b925082614aae57614aad614ae8565b5b828206905092915050565b7f4e487b7100000000000000000000000000000000000000000000000000000000600052601160045260246000fd5b7f4e487b7100000000000000000000000000000000000000000000000000000000600052601260045260246000fd5b7f4e487b7100000000000000000000000000000000000000000000000000000000600052602260045260246000fd5b7f4e487b7100000000000000000000000000000000000000000000000000000000600052604160045260246000fd5b6000614b8182546149d0565b9050919050565b6000601f19601f8301169050919050565b60008160601b9050919050565b60008160001c9050919050565b7f7b226f776e6572223a2022200000000000000000000000000000000000000000600082015250565b7f4552433732313a207472616e7366657220746f206e6f6e20455243373231526560008201527f63656976657220696d706c656d656e7465720000000000000000000000000000602082015250565b7f4552433732313a207472616e736665722066726f6d20696e636f72726563742060008201527f6f776e6572000000000000000000000000000000000000000000000000000000602082015250565b7f4552433732313a20746f6b656e20616c7265616479206d696e74656400000000600082015250565b7f596f75206861766520746f207369676e20757020666972737400000000000000600082015250565b7f4552433732313a207472616e7366657220746f20746865207a65726f2061646460008201527f7265737300000000000000000000000000000000000000000000000000000000602082015250565b7f4552433732313a20617070726f766520746f2063616c6c657200000000000000600082015250565b7f596f7520617265206e6f7420746865206f776e65720000000000000000000000600082015250565b7f4552433732313a206f70657261746f7220717565727920666f72206e6f6e657860008201527f697374656e7420746f6b656e0000000000000000000000000000000000000000602082015250565b7f4552433732313a20617070726f76652063616c6c6572206973206e6f74206f7760008201527f6e6572206e6f7220617070726f76656420666f7220616c6c0000000000000000602082015250565b7f4552433732313a2062616c616e636520717565727920666f7220746865207a6560008201527f726f206164647265737300000000000000000000000000000000000000000000602082015250565b7f4552433732313a206f776e657220717565727920666f72206e6f6e657869737460008201527f656e7420746f6b656e0000000000000000000000000000000000000000000000602082015250565b7f45524337323155524953746f726167653a2055524920736574206f66206e6f6e60008201527f6578697374656e7420746f6b656e000000000000000000000000000000000000602082015250565b7f222c2022636f6e74656e74223a20000000000000000000000000000000000000600082015250565b7f227d000000000000000000000000000000000000000000000000000000000000600082015250565b7f596f7520616c7265616479206c696b6564206f72206469736c696b652074686960008201527f7320706f73742100000000000000000000000000000000000000000000000000602082015250565b7f4552433732313a206d696e7420746f20746865207a65726f2061646472657373600082015250565b7f45524337323155524953746f726167653a2055524920717565727920666f722060008201527f6e6f6e6578697374656e7420746f6b656e000000000000000000000000000000602082015250565b7f4552433732313a20617070726f76656420717565727920666f72206e6f6e657860008201527f697374656e7420746f6b656e0000000000000000000000000000000000000000602082015250565b7f596f7520616c7265616479206861766520612070726f66696c65210000000000600082015250565b7f4552433732314d657461646174613a2055524920717565727920666f72206e6f60008201527f6e6578697374656e7420746f6b656e0000000000000000000000000000000000602082015250565b7f4552433732313a20617070726f76616c20746f2063757272656e74206f776e6560008201527f7200000000000000000000000000000000000000000000000000000000000000602082015250565b7f646174613a6170706c69636174696f6e2f6a736f6e3b6261736536342c000000600082015250565b7f4552433732313a207472616e736665722063616c6c6572206973206e6f74206f60008201527f776e6572206e6f7220617070726f766564000000000000000000000000000000602082015250565b7f506f7374206973206e6f7420617661696c61626c6520666f7220766f74696e6760008201527f20616e796d6f7265000000000000000000000000000000000000000000000000602082015250565b6151f7816148d6565b811461520257600080fd5b50565b61520e816148e8565b811461521957600080fd5b50565b615225816148f4565b811461523057600080fd5b50565b61523c81614940565b811461524757600080fd5b5056fe4142434445464748494a4b4c4d4e4f505152535455565758595a6162636465666768696a6b6c6d6e6f707172737475767778797a303132333435363738392b2fa2646970667358221220c807b2ba46331430fe511936851645f7a7fed0c9605b231b5596e38f96ca920964736f6c63430008040033",
  "linkReferences": {},
  "deployedLinkReferences": {}
}