{
  "_format": "hh-sol-artifact-1",
  "contractName": "CredibilityToken",
  "sourceName": "contracts/CredibillityToken.sol",
  "abi": [
    {
      "inputs": [
        {
          "internalType": "address",
          "name": "_owner",
          "type": "address"
        },
        {
          "internalType": "uint256",
          "name": "_amount",
          "type": "uint256"
        }
      ],
      "stateMutability": "nonpayable",
      "type": "constructor"
    },
    {
      "anonymous": false,
      "inputs": [
        {
          "indexed": true,
          "internalType": "address",
          "name": "owner",
          "type": "address"
        },
        {
          "indexed": true,
          "internalType": "address",
          "name": "spender",
          "type": "address"
        },
        {
          "indexed": false,
          "internalType": "uint256",
          "name": "value",
          "type": "uint256"
        }
      ],
      "name": "Approval",
      "type": "event"
    },
    {
      "anonymous": false,
      "inputs": [
        {
          "indexed": true,
          "internalType": "address",
          "name": "from",
          "type": "address"
        },
        {
          "indexed": true,
          "internalType": "address",
          "name": "to",
          "type": "address"
        },
        {
          "indexed": false,
          "internalType": "uint256",
          "name": "value",
          "type": "uint256"
        }
      ],
      "name": "Transfer",
      "type": "event"
    },
    {
      "inputs": [
        {
          "internalType": "address",
          "name": "_receiver",
          "type": "address"
        },
        {
          "internalType": "uint256",
          "name": "_amount",
          "type": "uint256"
        }
      ],
      "name": "airdrop",
      "outputs": [],
      "stateMutability": "nonpayable",
      "type": "function"
    },
    {
      "inputs": [
        {
          "internalType": "address",
          "name": "owner",
          "type": "address"
        },
        {
          "internalType": "address",
          "name": "spender",
          "type": "address"
        }
      ],
      "name": "allowance",
      "outputs": [
        {
          "internalType": "uint256",
          "name": "",
          "type": "uint256"
        }
      ],
      "stateMutability": "view",
      "type": "function"
    },
    {
      "inputs": [
        {
          "internalType": "address",
          "name": "spender",
          "type": "address"
        },
        {
          "internalType": "uint256",
          "name": "amount",
          "type": "uint256"
        }
      ],
      "name": "approve",
      "outputs": [
        {
          "internalType": "bool",
          "name": "",
          "type": "bool"
        }
      ],
      "stateMutability": "nonpayable",
      "type": "function"
    },
    {
      "inputs": [
        {
          "internalType": "address",
          "name": "account",
          "type": "address"
        }
      ],
      "name": "balanceOf",
      "outputs": [
        {
          "internalType": "uint256",
          "name": "",
          "type": "uint256"
        }
      ],
      "stateMutability": "view",
      "type": "function"
    },
    {
      "inputs": [
        {
          "internalType": "uint256",
          "name": "amount",
          "type": "uint256"
        }
      ],
      "name": "burn",
      "outputs": [],
      "stateMutability": "nonpayable",
      "type": "function"
    },
    {
      "inputs": [
        {
          "internalType": "address",
          "name": "account",
          "type": "address"
        },
        {
          "internalType": "uint256",
          "name": "amount",
          "type": "uint256"
        }
      ],
      "name": "burnFrom",
      "outputs": [],
      "stateMutability": "nonpayable",
      "type": "function"
    },
    {
      "inputs": [],
      "name": "decimals",
      "outputs": [
        {
          "internalType": "uint8",
          "name": "",
          "type": "uint8"
        }
      ],
      "stateMutability": "view",
      "type": "function"
    },
    {
      "inputs": [
        {
          "internalType": "address",
          "name": "spender",
          "type": "address"
        },
        {
          "internalType": "uint256",
          "name": "subtractedValue",
          "type": "uint256"
        }
      ],
      "name": "decreaseAllowance",
      "outputs": [
        {
          "internalType": "bool",
          "name": "",
          "type": "bool"
        }
      ],
      "stateMutability": "nonpayable",
      "type": "function"
    },
    {
      "inputs": [
        {
          "internalType": "address",
          "name": "spender",
          "type": "address"
        },
        {
          "internalType": "uint256",
          "name": "addedValue",
          "type": "uint256"
        }
      ],
      "name": "increaseAllowance",
      "outputs": [
        {
          "internalType": "bool",
          "name": "",
          "type": "bool"
        }
      ],
      "stateMutability": "nonpayable",
      "type": "function"
    },
    {
      "inputs": [],
      "name": "name",
      "outputs": [
        {
          "internalType": "string",
          "name": "",
          "type": "string"
        }
      ],
      "stateMutability": "view",
      "type": "function"
    },
    {
      "inputs": [
        {
          "internalType": "address",
          "name": "_minter",
          "type": "address"
        }
      ],
      "name": "setMinterContract",
      "outputs": [],
      "stateMutability": "nonpayable",
      "type": "function"
    },
    {
      "inputs": [
        {
          "internalType": "uint256",
          "name": "amount",
          "type": "uint256"
        },
        {
          "internalType": "address[3]",
          "name": "receiver",
          "type": "address[3]"
        }
      ],
      "name": "smartContractMint",
      "outputs": [],
      "stateMutability": "nonpayable",
      "type": "function"
    },
    {
      "inputs": [],
      "name": "symbol",
      "outputs": [
        {
          "internalType": "string",
          "name": "",
          "type": "string"
        }
      ],
      "stateMutability": "view",
      "type": "function"
    },
    {
      "inputs": [],
      "name": "totalSupply",
      "outputs": [
        {
          "internalType": "uint256",
          "name": "",
          "type": "uint256"
        }
      ],
      "stateMutability": "view",
      "type": "function"
    },
    {
      "inputs": [
        {
          "internalType": "address",
          "name": "to",
          "type": "address"
        },
        {
          "internalType": "uint256",
          "name": "amount",
          "type": "uint256"
        }
      ],
      "name": "transfer",
      "outputs": [
        {
          "internalType": "bool",
          "name": "",
          "type": "bool"
        }
      ],
      "stateMutability": "nonpayable",
      "type": "function"
    },
    {
      "inputs": [
        {
          "internalType": "address",
          "name": "from",
          "type": "address"
        },
        {
          "internalType": "address",
          "name": "to",
          "type": "address"
        },
        {
          "internalType": "uint256",
          "name": "amount",
          "type": "uint256"
        }
      ],
      "name": "transferFrom",
      "outputs": [
        {
          "internalType": "bool",
          "name": "",
          "type": "bool"
        }
      ],
      "stateMutability": "nonpayable",
      "type": "function"
    }
  ],
  "bytecode": "0x60806040523480156200001157600080fd5b50604051620026883803806200268883398181016040528101906200003791906200050b565b6040518060400160405280601081526020017f437265646962696c697479546f6b656e000000000000000000000000000000008152506040518060400160405280600481526020017f43524544000000000000000000000000000000000000000000000000000000008152508160039080519060200190620000bb9291906200042d565b508060049080519060200190620000d49291906200042d565b505050620000e98282620002aa60201b60201c565b62000118739f21196f764e2c650b655a1da99732771cb43e75680821ab0d4414980000620002aa60201b60201c565b62000147739fc6e8509b103ca48ffa617ffa225d985c0eb42e680821ab0d4414980000620002aa60201b60201c565b6200017673da9c2960cb1c912cc509c8cd186fc6e6a0035886680821ab0d4414980000620002aa60201b60201c565b620001a573b28cf758fbb535326874de540e56426d03cca752680821ab0d4414980000620002aa60201b60201c565b620001d47370997970c51812dc3a010c7d01b50e0d17dc79c8680821ab0d4414980000620002aa60201b60201c565b62000203733c44cdddb6a900fa2b585dd299e03d12fa4293bc680821ab0d4414980000620002aa60201b60201c565b620002327390f79bf6eb2c4f870365e785982e1f101e93b906680821ab0d4414980000620002aa60201b60201c565b620002617315d34aaf54267db7d7c367839aaf71a00a2c6a65680821ab0d4414980000620002aa60201b60201c565b33600560006101000a81548173ffffffffffffffffffffffffffffffffffffffff021916908373ffffffffffffffffffffffffffffffffffffffff160217905550505062000760565b600073ffffffffffffffffffffffffffffffffffffffff168273ffffffffffffffffffffffffffffffffffffffff1614156200031d576040517f08c379a0000000000000000000000000000000000000000000000000000000008152600401620003149062000584565b60405180910390fd5b62000331600083836200042360201b60201c565b8060026000828254620003459190620005d4565b92505081905550806000808473ffffffffffffffffffffffffffffffffffffffff1673ffffffffffffffffffffffffffffffffffffffff16815260200190815260200160002060008282546200039c9190620005d4565b925050819055508173ffffffffffffffffffffffffffffffffffffffff16600073ffffffffffffffffffffffffffffffffffffffff167fddf252ad1be2c89b69c2b068fc378daa952ba7f163c4a11628f55a4df523b3ef83604051620004039190620005a6565b60405180910390a36200041f600083836200042860201b60201c565b5050565b505050565b505050565b8280546200043b906200066f565b90600052602060002090601f0160209004810192826200045f5760008555620004ab565b82601f106200047a57805160ff1916838001178555620004ab565b82800160010185558215620004ab579182015b82811115620004aa5782518255916020019190600101906200048d565b5b509050620004ba9190620004be565b5090565b5b80821115620004d9576000816000905550600101620004bf565b5090565b600081519050620004ee816200072c565b92915050565b600081519050620005058162000746565b92915050565b600080604083850312156200051f57600080fd5b60006200052f85828601620004dd565b92505060206200054285828601620004f4565b9150509250929050565b60006200055b601f83620005c3565b9150620005688262000703565b602082019050919050565b6200057e8162000665565b82525050565b600060208201905081810360008301526200059f816200054c565b9050919050565b6000602082019050620005bd600083018462000573565b92915050565b600082825260208201905092915050565b6000620005e18262000665565b9150620005ee8362000665565b9250827fffffffffffffffffffffffffffffffffffffffffffffffffffffffffffffffff03821115620006265762000625620006a5565b5b828201905092915050565b60006200063e8262000645565b9050919050565b600073ffffffffffffffffffffffffffffffffffffffff82169050919050565b6000819050919050565b600060028204905060018216806200068857607f821691505b602082108114156200069f576200069e620006d4565b5b50919050565b7f4e487b7100000000000000000000000000000000000000000000000000000000600052601160045260246000fd5b7f4e487b7100000000000000000000000000000000000000000000000000000000600052602260045260246000fd5b7f45524332303a206d696e7420746f20746865207a65726f206164647265737300600082015250565b620007378162000631565b81146200074357600080fd5b50565b620007518162000665565b81146200075d57600080fd5b50565b611f1880620007706000396000f3fe608060405234801561001057600080fd5b50600436106101005760003560e01c806342966c681161009757806395d89b411161006657806395d89b41146102ab578063a457c2d7146102c9578063a9059cbb146102f9578063dd62ed3e1461032957610100565b806342966c681461022757806370a082311461024357806379cc6790146102735780638ba4cc3c1461028f57610100565b8063313ce567116100d3578063313ce567146101a157806338478ae7146101bf57806339509351146101db5780633b528a481461020b57610100565b806306fdde0314610105578063095ea7b31461012357806318160ddd1461015357806323b872dd14610171575b600080fd5b61010d610359565b60405161011a919061168e565b60405180910390f35b61013d600480360381019061013891906113a5565b6103eb565b60405161014a9190611673565b60405180910390f35b61015b61040e565b6040516101689190611850565b60405180910390f35b61018b60048036038101906101869190611356565b610418565b6040516101989190611673565b60405180910390f35b6101a9610447565b6040516101b6919061186b565b60405180910390f35b6101d960048036038101906101d491906112f1565b610450565b005b6101f560048036038101906101f091906113a5565b610524565b6040516102029190611673565b60405180910390f35b6102256004803603810190610220919061140a565b6105ce565b005b610241600480360381019061023c91906113e1565b6106dc565b005b61025d600480360381019061025891906112f1565b6106f0565b60405161026a9190611850565b60405180910390f35b61028d600480360381019061028891906113a5565b610738565b005b6102a960048036038101906102a491906113a5565b610758565b005b6102b36107f6565b6040516102c0919061168e565b60405180910390f35b6102e360048036038101906102de91906113a5565b610888565b6040516102f09190611673565b60405180910390f35b610313600480360381019061030e91906113a5565b610972565b6040516103209190611673565b60405180910390f35b610343600480360381019061033e919061131a565b610995565b6040516103509190611850565b60405180910390f35b606060038054610368906119ff565b80601f0160208091040260200160405190810160405280929190818152602001828054610394906119ff565b80156103e15780601f106103b6576101008083540402835291602001916103e1565b820191906000526020600020905b8154815290600101906020018083116103c457829003601f168201915b5050505050905090565b6000806103f6610a1c565b9050610403818585610a24565b600191505092915050565b6000600254905090565b600080610423610a1c565b9050610430858285610bef565b61043b858585610c7b565b60019150509392505050565b60006012905090565b600560009054906101000a900473ffffffffffffffffffffffffffffffffffffffff1673ffffffffffffffffffffffffffffffffffffffff163373ffffffffffffffffffffffffffffffffffffffff16146104e0576040517f08c379a00000000000000000000000000000000000000000000000000000000081526004016104d7906117d0565b60405180910390fd5b80600660006101000a81548173ffffffffffffffffffffffffffffffffffffffff021916908373ffffffffffffffffffffffffffffffffffffffff16021790555050565b60008061052f610a1c565b90506105c3818585600160008673ffffffffffffffffffffffffffffffffffffffff1673ffffffffffffffffffffffffffffffffffffffff16815260200190815260200160002060008973ffffffffffffffffffffffffffffffffffffffff1673ffffffffffffffffffffffffffffffffffffffff168152602001908152602001600020546105be91906118ed565b610a24565b600191505092915050565b600660009054906101000a900473ffffffffffffffffffffffffffffffffffffffff1673ffffffffffffffffffffffffffffffffffffffff163373ffffffffffffffffffffffffffffffffffffffff161461065e576040517f08c379a000000000000000000000000000000000000000000000000000000000815260040161065590611750565b60405180910390fd5b60005b60038110156106d7576106c48282600381106106a6577f4e487b7100000000000000000000000000000000000000000000000000000000600052603260045260246000fd5b602002015184670de0b6b3a76400006106bf91906118ed565b610efc565b80806106cf90611a62565b915050610661565b505050565b6106ed6106e7610a1c565b8261105c565b50565b60008060008373ffffffffffffffffffffffffffffffffffffffff1673ffffffffffffffffffffffffffffffffffffffff168152602001908152602001600020549050919050565b61074a82610744610a1c565b83610bef565b610754828261105c565b5050565b600560009054906101000a900473ffffffffffffffffffffffffffffffffffffffff1673ffffffffffffffffffffffffffffffffffffffff163373ffffffffffffffffffffffffffffffffffffffff16146107e8576040517f08c379a00000000000000000000000000000000000000000000000000000000081526004016107df90611810565b60405180910390fd5b6107f28282610efc565b5050565b606060048054610805906119ff565b80601f0160208091040260200160405190810160405280929190818152602001828054610831906119ff565b801561087e5780601f106108535761010080835404028352916020019161087e565b820191906000526020600020905b81548152906001019060200180831161086157829003601f168201915b5050505050905090565b600080610893610a1c565b90506000600160008373ffffffffffffffffffffffffffffffffffffffff1673ffffffffffffffffffffffffffffffffffffffff16815260200190815260200160002060008673ffffffffffffffffffffffffffffffffffffffff1673ffffffffffffffffffffffffffffffffffffffff16815260200190815260200160002054905083811015610959576040517f08c379a0000000000000000000000000000000000000000000000000000000008152600401610950906117f0565b60405180910390fd5b6109668286868403610a24565b60019250505092915050565b60008061097d610a1c565b905061098a818585610c7b565b600191505092915050565b6000600160008473ffffffffffffffffffffffffffffffffffffffff1673ffffffffffffffffffffffffffffffffffffffff16815260200190815260200160002060008373ffffffffffffffffffffffffffffffffffffffff1673ffffffffffffffffffffffffffffffffffffffff16815260200190815260200160002054905092915050565b600033905090565b600073ffffffffffffffffffffffffffffffffffffffff168373ffffffffffffffffffffffffffffffffffffffff161415610a94576040517f08c379a0000000000000000000000000000000000000000000000000000000008152600401610a8b906117b0565b60405180910390fd5b600073ffffffffffffffffffffffffffffffffffffffff168273ffffffffffffffffffffffffffffffffffffffff161415610b04576040517f08c379a0000000000000000000000000000000000000000000000000000000008152600401610afb906116f0565b60405180910390fd5b80600160008573ffffffffffffffffffffffffffffffffffffffff1673ffffffffffffffffffffffffffffffffffffffff16815260200190815260200160002060008473ffffffffffffffffffffffffffffffffffffffff1673ffffffffffffffffffffffffffffffffffffffff168152602001908152602001600020819055508173ffffffffffffffffffffffffffffffffffffffff168373ffffffffffffffffffffffffffffffffffffffff167f8c5be1e5ebec7d5bd14f71427d1e84f3dd0314c0f7b2291e5b200ac8c7c3b92583604051610be29190611850565b60405180910390a3505050565b6000610bfb8484610995565b90507fffffffffffffffffffffffffffffffffffffffffffffffffffffffffffffffff8114610c755781811015610c67576040517f08c379a0000000000000000000000000000000000000000000000000000000008152600401610c5e90611710565b60405180910390fd5b610c748484848403610a24565b5b50505050565b600073ffffffffffffffffffffffffffffffffffffffff168373ffffffffffffffffffffffffffffffffffffffff161415610ceb576040517f08c379a0000000000000000000000000000000000000000000000000000000008152600401610ce290611790565b60405180910390fd5b600073ffffffffffffffffffffffffffffffffffffffff168273ffffffffffffffffffffffffffffffffffffffff161415610d5b576040517f08c379a0000000000000000000000000000000000000000000000000000000008152600401610d52906116b0565b60405180910390fd5b610d66838383611233565b60008060008573ffffffffffffffffffffffffffffffffffffffff1673ffffffffffffffffffffffffffffffffffffffff16815260200190815260200160002054905081811015610dec576040517f08c379a0000000000000000000000000000000000000000000000000000000008152600401610de390611730565b60405180910390fd5b8181036000808673ffffffffffffffffffffffffffffffffffffffff1673ffffffffffffffffffffffffffffffffffffffff16815260200190815260200160002081905550816000808573ffffffffffffffffffffffffffffffffffffffff1673ffffffffffffffffffffffffffffffffffffffff1681526020019081526020016000206000828254610e7f91906118ed565b925050819055508273ffffffffffffffffffffffffffffffffffffffff168473ffffffffffffffffffffffffffffffffffffffff167fddf252ad1be2c89b69c2b068fc378daa952ba7f163c4a11628f55a4df523b3ef84604051610ee39190611850565b60405180910390a3610ef6848484611238565b50505050565b600073ffffffffffffffffffffffffffffffffffffffff168273ffffffffffffffffffffffffffffffffffffffff161415610f6c576040517f08c379a0000000000000000000000000000000000000000000000000000000008152600401610f6390611830565b60405180910390fd5b610f7860008383611233565b8060026000828254610f8a91906118ed565b92505081905550806000808473ffffffffffffffffffffffffffffffffffffffff1673ffffffffffffffffffffffffffffffffffffffff1681526020019081526020016000206000828254610fdf91906118ed565b925050819055508173ffffffffffffffffffffffffffffffffffffffff16600073ffffffffffffffffffffffffffffffffffffffff167fddf252ad1be2c89b69c2b068fc378daa952ba7f163c4a11628f55a4df523b3ef836040516110449190611850565b60405180910390a361105860008383611238565b5050565b600073ffffffffffffffffffffffffffffffffffffffff168273ffffffffffffffffffffffffffffffffffffffff1614156110cc576040517f08c379a00000000000000000000000000000000000000000000000000000000081526004016110c390611770565b60405180910390fd5b6110d882600083611233565b60008060008473ffffffffffffffffffffffffffffffffffffffff1673ffffffffffffffffffffffffffffffffffffffff1681526020019081526020016000205490508181101561115e576040517f08c379a0000000000000000000000000000000000000000000000000000000008152600401611155906116d0565b60405180910390fd5b8181036000808573ffffffffffffffffffffffffffffffffffffffff1673ffffffffffffffffffffffffffffffffffffffff1681526020019081526020016000208190555081600260008282546111b59190611943565b92505081905550600073ffffffffffffffffffffffffffffffffffffffff168373ffffffffffffffffffffffffffffffffffffffff167fddf252ad1be2c89b69c2b068fc378daa952ba7f163c4a11628f55a4df523b3ef8460405161121a9190611850565b60405180910390a361122e83600084611238565b505050565b505050565b505050565b600061125061124b846118ab565b611886565b9050808285602086028201111561126657600080fd5b60005b85811015611296578161127c88826112a0565b845260208401935060208301925050600181019050611269565b5050509392505050565b6000813590506112af81611eb4565b92915050565b600082601f8301126112c657600080fd5b60036112d384828561123d565b91505092915050565b6000813590506112eb81611ecb565b92915050565b60006020828403121561130357600080fd5b6000611311848285016112a0565b91505092915050565b6000806040838503121561132d57600080fd5b600061133b858286016112a0565b925050602061134c858286016112a0565b9150509250929050565b60008060006060848603121561136b57600080fd5b6000611379868287016112a0565b935050602061138a868287016112a0565b925050604061139b868287016112dc565b9150509250925092565b600080604083850312156113b857600080fd5b60006113c6858286016112a0565b92505060206113d7858286016112dc565b9150509250929050565b6000602082840312156113f357600080fd5b6000611401848285016112dc565b91505092915050565b6000806080838503121561141d57600080fd5b600061142b858286016112dc565b925050602061143c858286016112b5565b9150509250929050565b61144f81611989565b82525050565b6000611460826118d1565b61146a81856118dc565b935061147a8185602086016119cc565b61148381611b38565b840191505092915050565b600061149b6023836118dc565b91506114a682611b49565b604082019050919050565b60006114be6022836118dc565b91506114c982611b98565b604082019050919050565b60006114e16022836118dc565b91506114ec82611be7565b604082019050919050565b6000611504601d836118dc565b915061150f82611c36565b602082019050919050565b60006115276026836118dc565b915061153282611c5f565b604082019050919050565b600061154a6021836118dc565b915061155582611cae565b604082019050919050565b600061156d6021836118dc565b915061157882611cfd565b604082019050919050565b60006115906025836118dc565b915061159b82611d4c565b604082019050919050565b60006115b36024836118dc565b91506115be82611d9b565b604082019050919050565b60006115d66020836118dc565b91506115e182611dea565b602082019050919050565b60006115f96025836118dc565b915061160482611e13565b604082019050919050565b600061161c6011836118dc565b915061162782611e62565b602082019050919050565b600061163f601f836118dc565b915061164a82611e8b565b602082019050919050565b61165e816119b5565b82525050565b61166d816119bf565b82525050565b60006020820190506116886000830184611446565b92915050565b600060208201905081810360008301526116a88184611455565b905092915050565b600060208201905081810360008301526116c98161148e565b9050919050565b600060208201905081810360008301526116e9816114b1565b9050919050565b60006020820190508181036000830152611709816114d4565b9050919050565b60006020820190508181036000830152611729816114f7565b9050919050565b600060208201905081810360008301526117498161151a565b9050919050565b600060208201905081810360008301526117698161153d565b9050919050565b6000602082019050818103600083015261178981611560565b9050919050565b600060208201905081810360008301526117a981611583565b9050919050565b600060208201905081810360008301526117c9816115a6565b9050919050565b600060208201905081810360008301526117e9816115c9565b9050919050565b60006020820190508181036000830152611809816115ec565b9050919050565b600060208201905081810360008301526118298161160f565b9050919050565b6000602082019050818103600083015261184981611632565b9050919050565b60006020820190506118656000830184611655565b92915050565b60006020820190506118806000830184611664565b92915050565b60006118906118a1565b905061189c8282611a31565b919050565b6000604051905090565b600067ffffffffffffffff8211156118c6576118c5611b09565b5b602082029050919050565b600081519050919050565b600082825260208201905092915050565b60006118f8826119b5565b9150611903836119b5565b9250827fffffffffffffffffffffffffffffffffffffffffffffffffffffffffffffffff0382111561193857611937611aab565b5b828201905092915050565b600061194e826119b5565b9150611959836119b5565b92508282101561196c5761196b611aab565b5b828203905092915050565b600061198282611995565b9050919050565b60008115159050919050565b600073ffffffffffffffffffffffffffffffffffffffff82169050919050565b6000819050919050565b600060ff82169050919050565b60005b838110156119ea5780820151818401526020810190506119cf565b838111156119f9576000848401525b50505050565b60006002820490506001821680611a1757607f821691505b60208210811415611a2b57611a2a611ada565b5b50919050565b611a3a82611b38565b810181811067ffffffffffffffff82111715611a5957611a58611b09565b5b80604052505050565b6000611a6d826119b5565b91507fffffffffffffffffffffffffffffffffffffffffffffffffffffffffffffffff821415611aa057611a9f611aab565b5b600182019050919050565b7f4e487b7100000000000000000000000000000000000000000000000000000000600052601160045260246000fd5b7f4e487b7100000000000000000000000000000000000000000000000000000000600052602260045260246000fd5b7f4e487b7100000000000000000000000000000000000000000000000000000000600052604160045260246000fd5b6000601f19601f8301169050919050565b7f45524332303a207472616e7366657220746f20746865207a65726f206164647260008201527f6573730000000000000000000000000000000000000000000000000000000000602082015250565b7f45524332303a206275726e20616d6f756e7420657863656564732062616c616e60008201527f6365000000000000000000000000000000000000000000000000000000000000602082015250565b7f45524332303a20617070726f766520746f20746865207a65726f20616464726560008201527f7373000000000000000000000000000000000000000000000000000000000000602082015250565b7f45524332303a20696e73756666696369656e7420616c6c6f77616e6365000000600082015250565b7f45524332303a207472616e7366657220616d6f756e742065786365656473206260008201527f616c616e63650000000000000000000000000000000000000000000000000000602082015250565b7f4f6e6c79206d696e7465722063616e2075736520746869732066756e6374696f60008201527f6e00000000000000000000000000000000000000000000000000000000000000602082015250565b7f45524332303a206275726e2066726f6d20746865207a65726f2061646472657360008201527f7300000000000000000000000000000000000000000000000000000000000000602082015250565b7f45524332303a207472616e736665722066726f6d20746865207a65726f20616460008201527f6472657373000000000000000000000000000000000000000000000000000000602082015250565b7f45524332303a20617070726f76652066726f6d20746865207a65726f2061646460008201527f7265737300000000000000000000000000000000000000000000000000000000602082015250565b7f4f6e6c79206f776e65722063616e2075736520746869732066756e6374696f6e600082015250565b7f45524332303a2064656372656173656420616c6c6f77616e63652062656c6f7760008201527f207a65726f000000000000000000000000000000000000000000000000000000602082015250565b7f596f7520617265206e6f74206f776e6572000000000000000000000000000000600082015250565b7f45524332303a206d696e7420746f20746865207a65726f206164647265737300600082015250565b611ebd81611977565b8114611ec857600080fd5b50565b611ed4816119b5565b8114611edf57600080fd5b5056fea2646970667358221220bfa918cd731c12acce702d9f23aa6f5b9e7da46fe7697650f3dbcf030de052bf64736f6c63430008040033",
  "linkReferences": {},
  "deployedLinkReferences": {}
}