{
  "_format": "hh-sol-artifact-1",
  "contractName": "CredibilityToken",
  "sourceName": "contracts/CredibillityToken.sol",
  "abi": [
    {
      "inputs": [
        {
          "internalType": "address",
          "name": "_owner",
          "type": "address"
        },
        {
          "internalType": "uint256",
          "name": "_amount",
          "type": "uint256"
        }
      ],
      "stateMutability": "nonpayable",
      "type": "constructor"
    },
    {
      "anonymous": false,
      "inputs": [
        {
          "indexed": true,
          "internalType": "address",
          "name": "owner",
          "type": "address"
        },
        {
          "indexed": true,
          "internalType": "address",
          "name": "spender",
          "type": "address"
        },
        {
          "indexed": false,
          "internalType": "uint256",
          "name": "value",
          "type": "uint256"
        }
      ],
      "name": "Approval",
      "type": "event"
    },
    {
      "anonymous": false,
      "inputs": [
        {
          "indexed": true,
          "internalType": "address",
          "name": "from",
          "type": "address"
        },
        {
          "indexed": true,
          "internalType": "address",
          "name": "to",
          "type": "address"
        },
        {
          "indexed": false,
          "internalType": "uint256",
          "name": "value",
          "type": "uint256"
        }
      ],
      "name": "Transfer",
      "type": "event"
    },
    {
      "inputs": [
        {
          "internalType": "address",
          "name": "_receiver",
          "type": "address"
        },
        {
          "internalType": "uint256",
          "name": "_amount",
          "type": "uint256"
        }
      ],
      "name": "airdrop",
      "outputs": [],
      "stateMutability": "nonpayable",
      "type": "function"
    },
    {
      "inputs": [
        {
          "internalType": "address",
          "name": "owner",
          "type": "address"
        },
        {
          "internalType": "address",
          "name": "spender",
          "type": "address"
        }
      ],
      "name": "allowance",
      "outputs": [
        {
          "internalType": "uint256",
          "name": "",
          "type": "uint256"
        }
      ],
      "stateMutability": "view",
      "type": "function"
    },
    {
      "inputs": [
        {
          "internalType": "address",
          "name": "spender",
          "type": "address"
        },
        {
          "internalType": "uint256",
          "name": "amount",
          "type": "uint256"
        }
      ],
      "name": "approve",
      "outputs": [
        {
          "internalType": "bool",
          "name": "",
          "type": "bool"
        }
      ],
      "stateMutability": "nonpayable",
      "type": "function"
    },
    {
      "inputs": [
        {
          "internalType": "address",
          "name": "account",
          "type": "address"
        }
      ],
      "name": "balanceOf",
      "outputs": [
        {
          "internalType": "uint256",
          "name": "",
          "type": "uint256"
        }
      ],
      "stateMutability": "view",
      "type": "function"
    },
    {
      "inputs": [
        {
          "internalType": "uint256",
          "name": "amount",
          "type": "uint256"
        }
      ],
      "name": "burn",
      "outputs": [],
      "stateMutability": "nonpayable",
      "type": "function"
    },
    {
      "inputs": [
        {
          "internalType": "address",
          "name": "account",
          "type": "address"
        },
        {
          "internalType": "uint256",
          "name": "amount",
          "type": "uint256"
        }
      ],
      "name": "burnFrom",
      "outputs": [],
      "stateMutability": "nonpayable",
      "type": "function"
    },
    {
      "inputs": [],
      "name": "decimals",
      "outputs": [
        {
          "internalType": "uint8",
          "name": "",
          "type": "uint8"
        }
      ],
      "stateMutability": "view",
      "type": "function"
    },
    {
      "inputs": [
        {
          "internalType": "address",
          "name": "spender",
          "type": "address"
        },
        {
          "internalType": "uint256",
          "name": "subtractedValue",
          "type": "uint256"
        }
      ],
      "name": "decreaseAllowance",
      "outputs": [
        {
          "internalType": "bool",
          "name": "",
          "type": "bool"
        }
      ],
      "stateMutability": "nonpayable",
      "type": "function"
    },
    {
      "inputs": [
        {
          "internalType": "address",
          "name": "spender",
          "type": "address"
        },
        {
          "internalType": "uint256",
          "name": "addedValue",
          "type": "uint256"
        }
      ],
      "name": "increaseAllowance",
      "outputs": [
        {
          "internalType": "bool",
          "name": "",
          "type": "bool"
        }
      ],
      "stateMutability": "nonpayable",
      "type": "function"
    },
    {
      "inputs": [],
      "name": "name",
      "outputs": [
        {
          "internalType": "string",
          "name": "",
          "type": "string"
        }
      ],
      "stateMutability": "view",
      "type": "function"
    },
    {
      "inputs": [
        {
          "internalType": "address",
          "name": "_minter",
          "type": "address"
        }
      ],
      "name": "setMinterContract",
      "outputs": [],
      "stateMutability": "nonpayable",
      "type": "function"
    },
    {
      "inputs": [
        {
          "internalType": "uint256",
          "name": "amount",
          "type": "uint256"
        },
        {
          "internalType": "address[]",
          "name": "receiver",
          "type": "address[]"
        }
      ],
      "name": "smartContractMint",
      "outputs": [],
      "stateMutability": "nonpayable",
      "type": "function"
    },
    {
      "inputs": [],
      "name": "symbol",
      "outputs": [
        {
          "internalType": "string",
          "name": "",
          "type": "string"
        }
      ],
      "stateMutability": "view",
      "type": "function"
    },
    {
      "inputs": [],
      "name": "totalSupply",
      "outputs": [
        {
          "internalType": "uint256",
          "name": "",
          "type": "uint256"
        }
      ],
      "stateMutability": "view",
      "type": "function"
    },
    {
      "inputs": [
        {
          "internalType": "address",
          "name": "to",
          "type": "address"
        },
        {
          "internalType": "uint256",
          "name": "amount",
          "type": "uint256"
        }
      ],
      "name": "transfer",
      "outputs": [
        {
          "internalType": "bool",
          "name": "",
          "type": "bool"
        }
      ],
      "stateMutability": "nonpayable",
      "type": "function"
    },
    {
      "inputs": [
        {
          "internalType": "address",
          "name": "from",
          "type": "address"
        },
        {
          "internalType": "address",
          "name": "to",
          "type": "address"
        },
        {
          "internalType": "uint256",
          "name": "amount",
          "type": "uint256"
        }
      ],
      "name": "transferFrom",
      "outputs": [
        {
          "internalType": "bool",
          "name": "",
          "type": "bool"
        }
      ],
      "stateMutability": "nonpayable",
      "type": "function"
    }
  ],
  "bytecode": "0x60806040523480156200001157600080fd5b50604051620026b5380380620026b583398181016040528101906200003791906200050b565b6040518060400160405280601081526020017f437265646962696c697479546f6b656e000000000000000000000000000000008152506040518060400160405280600481526020017f43524544000000000000000000000000000000000000000000000000000000008152508160039080519060200190620000bb9291906200042d565b508060049080519060200190620000d49291906200042d565b505050620000e98282620002aa60201b60201c565b62000118739f21196f764e2c650b655a1da99732771cb43e75680821ab0d4414980000620002aa60201b60201c565b62000147739fc6e8509b103ca48ffa617ffa225d985c0eb42e680821ab0d4414980000620002aa60201b60201c565b6200017673da9c2960cb1c912cc509c8cd186fc6e6a0035886680821ab0d4414980000620002aa60201b60201c565b620001a573b28cf758fbb535326874de540e56426d03cca752680821ab0d4414980000620002aa60201b60201c565b620001d47370997970c51812dc3a010c7d01b50e0d17dc79c8680821ab0d4414980000620002aa60201b60201c565b62000203733c44cdddb6a900fa2b585dd299e03d12fa4293bc680821ab0d4414980000620002aa60201b60201c565b620002327390f79bf6eb2c4f870365e785982e1f101e93b906680821ab0d4414980000620002aa60201b60201c565b620002617315d34aaf54267db7d7c367839aaf71a00a2c6a65680821ab0d4414980000620002aa60201b60201c565b33600560006101000a81548173ffffffffffffffffffffffffffffffffffffffff021916908373ffffffffffffffffffffffffffffffffffffffff160217905550505062000760565b600073ffffffffffffffffffffffffffffffffffffffff168273ffffffffffffffffffffffffffffffffffffffff1614156200031d576040517f08c379a0000000000000000000000000000000000000000000000000000000008152600401620003149062000584565b60405180910390fd5b62000331600083836200042360201b60201c565b8060026000828254620003459190620005d4565b92505081905550806000808473ffffffffffffffffffffffffffffffffffffffff1673ffffffffffffffffffffffffffffffffffffffff16815260200190815260200160002060008282546200039c9190620005d4565b925050819055508173ffffffffffffffffffffffffffffffffffffffff16600073ffffffffffffffffffffffffffffffffffffffff167fddf252ad1be2c89b69c2b068fc378daa952ba7f163c4a11628f55a4df523b3ef83604051620004039190620005a6565b60405180910390a36200041f600083836200042860201b60201c565b5050565b505050565b505050565b8280546200043b906200066f565b90600052602060002090601f0160209004810192826200045f5760008555620004ab565b82601f106200047a57805160ff1916838001178555620004ab565b82800160010185558215620004ab579182015b82811115620004aa5782518255916020019190600101906200048d565b5b509050620004ba9190620004be565b5090565b5b80821115620004d9576000816000905550600101620004bf565b5090565b600081519050620004ee816200072c565b92915050565b600081519050620005058162000746565b92915050565b600080604083850312156200051f57600080fd5b60006200052f85828601620004dd565b92505060206200054285828601620004f4565b9150509250929050565b60006200055b601f83620005c3565b9150620005688262000703565b602082019050919050565b6200057e8162000665565b82525050565b600060208201905081810360008301526200059f816200054c565b9050919050565b6000602082019050620005bd600083018462000573565b92915050565b600082825260208201905092915050565b6000620005e18262000665565b9150620005ee8362000665565b9250827fffffffffffffffffffffffffffffffffffffffffffffffffffffffffffffffff03821115620006265762000625620006a5565b5b828201905092915050565b60006200063e8262000645565b9050919050565b600073ffffffffffffffffffffffffffffffffffffffff82169050919050565b6000819050919050565b600060028204905060018216806200068857607f821691505b602082108114156200069f576200069e620006d4565b5b50919050565b7f4e487b7100000000000000000000000000000000000000000000000000000000600052601160045260246000fd5b7f4e487b7100000000000000000000000000000000000000000000000000000000600052602260045260246000fd5b7f45524332303a206d696e7420746f20746865207a65726f206164647265737300600082015250565b620007378162000631565b81146200074357600080fd5b50565b620007518162000665565b81146200075d57600080fd5b50565b611f4580620007706000396000f3fe608060405234801561001057600080fd5b50600436106101005760003560e01c806370a082311161009757806395d89b411161006657806395d89b41146102ab578063a457c2d7146102c9578063a9059cbb146102f9578063dd62ed3e1461032957610100565b806370a082311461022757806379cc6790146102575780638ba4cc3c14610273578063943f894b1461028f57610100565b8063313ce567116100d3578063313ce567146101a157806338478ae7146101bf57806339509351146101db57806342966c681461020b57610100565b806306fdde0314610105578063095ea7b31461012357806318160ddd1461015357806323b872dd14610171575b600080fd5b61010d610359565b60405161011a91906116b5565b60405180910390f35b61013d600480360381019061013891906113b4565b6103eb565b60405161014a919061169a565b60405180910390f35b61015b61040e565b6040516101689190611877565b60405180910390f35b61018b60048036038101906101869190611365565b610418565b604051610198919061169a565b60405180910390f35b6101a9610447565b6040516101b69190611892565b60405180910390f35b6101d960048036038101906101d49190611300565b610450565b005b6101f560048036038101906101f091906113b4565b610524565b604051610202919061169a565b60405180910390f35b610225600480360381019061022091906113f0565b6105ce565b005b610241600480360381019061023c9190611300565b6105e2565b60405161024e9190611877565b60405180910390f35b610271600480360381019061026c91906113b4565b61062a565b005b61028d600480360381019061028891906113b4565b61064a565b005b6102a960048036038101906102a49190611419565b6106e8565b005b6102b36107f9565b6040516102c091906116b5565b60405180910390f35b6102e360048036038101906102de91906113b4565b61088b565b6040516102f0919061169a565b60405180910390f35b610313600480360381019061030e91906113b4565b610975565b604051610320919061169a565b60405180910390f35b610343600480360381019061033e9190611329565b610998565b6040516103509190611877565b60405180910390f35b60606003805461036890611a2c565b80601f016020809104026020016040519081016040528092919081815260200182805461039490611a2c565b80156103e15780601f106103b6576101008083540402835291602001916103e1565b820191906000526020600020905b8154815290600101906020018083116103c457829003601f168201915b5050505050905090565b6000806103f6610a1f565b9050610403818585610a27565b600191505092915050565b6000600254905090565b600080610423610a1f565b9050610430858285610bf2565b61043b858585610c7e565b60019150509392505050565b60006012905090565b600560009054906101000a900473ffffffffffffffffffffffffffffffffffffffff1673ffffffffffffffffffffffffffffffffffffffff163373ffffffffffffffffffffffffffffffffffffffff16146104e0576040517f08c379a00000000000000000000000000000000000000000000000000000000081526004016104d7906117f7565b60405180910390fd5b80600660006101000a81548173ffffffffffffffffffffffffffffffffffffffff021916908373ffffffffffffffffffffffffffffffffffffffff16021790555050565b60008061052f610a1f565b90506105c3818585600160008673ffffffffffffffffffffffffffffffffffffffff1673ffffffffffffffffffffffffffffffffffffffff16815260200190815260200160002060008973ffffffffffffffffffffffffffffffffffffffff1673ffffffffffffffffffffffffffffffffffffffff168152602001908152602001600020546105be919061191a565b610a27565b600191505092915050565b6105df6105d9610a1f565b82610eff565b50565b60008060008373ffffffffffffffffffffffffffffffffffffffff1673ffffffffffffffffffffffffffffffffffffffff168152602001908152602001600020549050919050565b61063c82610636610a1f565b83610bf2565b6106468282610eff565b5050565b600560009054906101000a900473ffffffffffffffffffffffffffffffffffffffff1673ffffffffffffffffffffffffffffffffffffffff163373ffffffffffffffffffffffffffffffffffffffff16146106da576040517f08c379a00000000000000000000000000000000000000000000000000000000081526004016106d190611837565b60405180910390fd5b6106e482826110d6565b5050565b600660009054906101000a900473ffffffffffffffffffffffffffffffffffffffff1673ffffffffffffffffffffffffffffffffffffffff163373ffffffffffffffffffffffffffffffffffffffff1614610778576040517f08c379a000000000000000000000000000000000000000000000000000000000815260040161076f90611777565b60405180910390fd5b60005b81518110156107f4576107e18282815181106107c0577f4e487b7100000000000000000000000000000000000000000000000000000000600052603260045260246000fd5b602002602001015184670de0b6b3a76400006107dc919061191a565b6110d6565b80806107ec90611a8f565b91505061077b565b505050565b60606004805461080890611a2c565b80601f016020809104026020016040519081016040528092919081815260200182805461083490611a2c565b80156108815780601f1061085657610100808354040283529160200191610881565b820191906000526020600020905b81548152906001019060200180831161086457829003601f168201915b5050505050905090565b600080610896610a1f565b90506000600160008373ffffffffffffffffffffffffffffffffffffffff1673ffffffffffffffffffffffffffffffffffffffff16815260200190815260200160002060008673ffffffffffffffffffffffffffffffffffffffff1673ffffffffffffffffffffffffffffffffffffffff1681526020019081526020016000205490508381101561095c576040517f08c379a000000000000000000000000000000000000000000000000000000000815260040161095390611817565b60405180910390fd5b6109698286868403610a27565b60019250505092915050565b600080610980610a1f565b905061098d818585610c7e565b600191505092915050565b6000600160008473ffffffffffffffffffffffffffffffffffffffff1673ffffffffffffffffffffffffffffffffffffffff16815260200190815260200160002060008373ffffffffffffffffffffffffffffffffffffffff1673ffffffffffffffffffffffffffffffffffffffff16815260200190815260200160002054905092915050565b600033905090565b600073ffffffffffffffffffffffffffffffffffffffff168373ffffffffffffffffffffffffffffffffffffffff161415610a97576040517f08c379a0000000000000000000000000000000000000000000000000000000008152600401610a8e906117d7565b60405180910390fd5b600073ffffffffffffffffffffffffffffffffffffffff168273ffffffffffffffffffffffffffffffffffffffff161415610b07576040517f08c379a0000000000000000000000000000000000000000000000000000000008152600401610afe90611717565b60405180910390fd5b80600160008573ffffffffffffffffffffffffffffffffffffffff1673ffffffffffffffffffffffffffffffffffffffff16815260200190815260200160002060008473ffffffffffffffffffffffffffffffffffffffff1673ffffffffffffffffffffffffffffffffffffffff168152602001908152602001600020819055508173ffffffffffffffffffffffffffffffffffffffff168373ffffffffffffffffffffffffffffffffffffffff167f8c5be1e5ebec7d5bd14f71427d1e84f3dd0314c0f7b2291e5b200ac8c7c3b92583604051610be59190611877565b60405180910390a3505050565b6000610bfe8484610998565b90507fffffffffffffffffffffffffffffffffffffffffffffffffffffffffffffffff8114610c785781811015610c6a576040517f08c379a0000000000000000000000000000000000000000000000000000000008152600401610c6190611737565b60405180910390fd5b610c778484848403610a27565b5b50505050565b600073ffffffffffffffffffffffffffffffffffffffff168373ffffffffffffffffffffffffffffffffffffffff161415610cee576040517f08c379a0000000000000000000000000000000000000000000000000000000008152600401610ce5906117b7565b60405180910390fd5b600073ffffffffffffffffffffffffffffffffffffffff168273ffffffffffffffffffffffffffffffffffffffff161415610d5e576040517f08c379a0000000000000000000000000000000000000000000000000000000008152600401610d55906116d7565b60405180910390fd5b610d69838383611236565b60008060008573ffffffffffffffffffffffffffffffffffffffff1673ffffffffffffffffffffffffffffffffffffffff16815260200190815260200160002054905081811015610def576040517f08c379a0000000000000000000000000000000000000000000000000000000008152600401610de690611757565b60405180910390fd5b8181036000808673ffffffffffffffffffffffffffffffffffffffff1673ffffffffffffffffffffffffffffffffffffffff16815260200190815260200160002081905550816000808573ffffffffffffffffffffffffffffffffffffffff1673ffffffffffffffffffffffffffffffffffffffff1681526020019081526020016000206000828254610e82919061191a565b925050819055508273ffffffffffffffffffffffffffffffffffffffff168473ffffffffffffffffffffffffffffffffffffffff167fddf252ad1be2c89b69c2b068fc378daa952ba7f163c4a11628f55a4df523b3ef84604051610ee69190611877565b60405180910390a3610ef984848461123b565b50505050565b600073ffffffffffffffffffffffffffffffffffffffff168273ffffffffffffffffffffffffffffffffffffffff161415610f6f576040517f08c379a0000000000000000000000000000000000000000000000000000000008152600401610f6690611797565b60405180910390fd5b610f7b82600083611236565b60008060008473ffffffffffffffffffffffffffffffffffffffff1673ffffffffffffffffffffffffffffffffffffffff16815260200190815260200160002054905081811015611001576040517f08c379a0000000000000000000000000000000000000000000000000000000008152600401610ff8906116f7565b60405180910390fd5b8181036000808573ffffffffffffffffffffffffffffffffffffffff1673ffffffffffffffffffffffffffffffffffffffff1681526020019081526020016000208190555081600260008282546110589190611970565b92505081905550600073ffffffffffffffffffffffffffffffffffffffff168373ffffffffffffffffffffffffffffffffffffffff167fddf252ad1be2c89b69c2b068fc378daa952ba7f163c4a11628f55a4df523b3ef846040516110bd9190611877565b60405180910390a36110d18360008461123b565b505050565b600073ffffffffffffffffffffffffffffffffffffffff168273ffffffffffffffffffffffffffffffffffffffff161415611146576040517f08c379a000000000000000000000000000000000000000000000000000000000815260040161113d90611857565b60405180910390fd5b61115260008383611236565b8060026000828254611164919061191a565b92505081905550806000808473ffffffffffffffffffffffffffffffffffffffff1673ffffffffffffffffffffffffffffffffffffffff16815260200190815260200160002060008282546111b9919061191a565b925050819055508173ffffffffffffffffffffffffffffffffffffffff16600073ffffffffffffffffffffffffffffffffffffffff167fddf252ad1be2c89b69c2b068fc378daa952ba7f163c4a11628f55a4df523b3ef8360405161121e9190611877565b60405180910390a36112326000838361123b565b5050565b505050565b505050565b600061125361124e846118d2565b6118ad565b9050808382526020820190508285602086028201111561127257600080fd5b60005b858110156112a2578161128888826112ac565b845260208401935060208301925050600181019050611275565b5050509392505050565b6000813590506112bb81611ee1565b92915050565b600082601f8301126112d257600080fd5b81356112e2848260208601611240565b91505092915050565b6000813590506112fa81611ef8565b92915050565b60006020828403121561131257600080fd5b6000611320848285016112ac565b91505092915050565b6000806040838503121561133c57600080fd5b600061134a858286016112ac565b925050602061135b858286016112ac565b9150509250929050565b60008060006060848603121561137a57600080fd5b6000611388868287016112ac565b9350506020611399868287016112ac565b92505060406113aa868287016112eb565b9150509250925092565b600080604083850312156113c757600080fd5b60006113d5858286016112ac565b92505060206113e6858286016112eb565b9150509250929050565b60006020828403121561140257600080fd5b6000611410848285016112eb565b91505092915050565b6000806040838503121561142c57600080fd5b600061143a858286016112eb565b925050602083013567ffffffffffffffff81111561145757600080fd5b611463858286016112c1565b9150509250929050565b611476816119b6565b82525050565b6000611487826118fe565b6114918185611909565b93506114a18185602086016119f9565b6114aa81611b65565b840191505092915050565b60006114c2602383611909565b91506114cd82611b76565b604082019050919050565b60006114e5602283611909565b91506114f082611bc5565b604082019050919050565b6000611508602283611909565b915061151382611c14565b604082019050919050565b600061152b601d83611909565b915061153682611c63565b602082019050919050565b600061154e602683611909565b915061155982611c8c565b604082019050919050565b6000611571602183611909565b915061157c82611cdb565b604082019050919050565b6000611594602183611909565b915061159f82611d2a565b604082019050919050565b60006115b7602583611909565b91506115c282611d79565b604082019050919050565b60006115da602483611909565b91506115e582611dc8565b604082019050919050565b60006115fd602083611909565b915061160882611e17565b602082019050919050565b6000611620602583611909565b915061162b82611e40565b604082019050919050565b6000611643601183611909565b915061164e82611e8f565b602082019050919050565b6000611666601f83611909565b915061167182611eb8565b602082019050919050565b611685816119e2565b82525050565b611694816119ec565b82525050565b60006020820190506116af600083018461146d565b92915050565b600060208201905081810360008301526116cf818461147c565b905092915050565b600060208201905081810360008301526116f0816114b5565b9050919050565b60006020820190508181036000830152611710816114d8565b9050919050565b60006020820190508181036000830152611730816114fb565b9050919050565b600060208201905081810360008301526117508161151e565b9050919050565b6000602082019050818103600083015261177081611541565b9050919050565b6000602082019050818103600083015261179081611564565b9050919050565b600060208201905081810360008301526117b081611587565b9050919050565b600060208201905081810360008301526117d0816115aa565b9050919050565b600060208201905081810360008301526117f0816115cd565b9050919050565b60006020820190508181036000830152611810816115f0565b9050919050565b6000602082019050818103600083015261183081611613565b9050919050565b6000602082019050818103600083015261185081611636565b9050919050565b6000602082019050818103600083015261187081611659565b9050919050565b600060208201905061188c600083018461167c565b92915050565b60006020820190506118a7600083018461168b565b92915050565b60006118b76118c8565b90506118c38282611a5e565b919050565b6000604051905090565b600067ffffffffffffffff8211156118ed576118ec611b36565b5b602082029050602081019050919050565b600081519050919050565b600082825260208201905092915050565b6000611925826119e2565b9150611930836119e2565b9250827fffffffffffffffffffffffffffffffffffffffffffffffffffffffffffffffff0382111561196557611964611ad8565b5b828201905092915050565b600061197b826119e2565b9150611986836119e2565b92508282101561199957611998611ad8565b5b828203905092915050565b60006119af826119c2565b9050919050565b60008115159050919050565b600073ffffffffffffffffffffffffffffffffffffffff82169050919050565b6000819050919050565b600060ff82169050919050565b60005b83811015611a175780820151818401526020810190506119fc565b83811115611a26576000848401525b50505050565b60006002820490506001821680611a4457607f821691505b60208210811415611a5857611a57611b07565b5b50919050565b611a6782611b65565b810181811067ffffffffffffffff82111715611a8657611a85611b36565b5b80604052505050565b6000611a9a826119e2565b91507fffffffffffffffffffffffffffffffffffffffffffffffffffffffffffffffff821415611acd57611acc611ad8565b5b600182019050919050565b7f4e487b7100000000000000000000000000000000000000000000000000000000600052601160045260246000fd5b7f4e487b7100000000000000000000000000000000000000000000000000000000600052602260045260246000fd5b7f4e487b7100000000000000000000000000000000000000000000000000000000600052604160045260246000fd5b6000601f19601f8301169050919050565b7f45524332303a207472616e7366657220746f20746865207a65726f206164647260008201527f6573730000000000000000000000000000000000000000000000000000000000602082015250565b7f45524332303a206275726e20616d6f756e7420657863656564732062616c616e60008201527f6365000000000000000000000000000000000000000000000000000000000000602082015250565b7f45524332303a20617070726f766520746f20746865207a65726f20616464726560008201527f7373000000000000000000000000000000000000000000000000000000000000602082015250565b7f45524332303a20696e73756666696369656e7420616c6c6f77616e6365000000600082015250565b7f45524332303a207472616e7366657220616d6f756e742065786365656473206260008201527f616c616e63650000000000000000000000000000000000000000000000000000602082015250565b7f4f6e6c79206d696e7465722063616e2075736520746869732066756e6374696f60008201527f6e00000000000000000000000000000000000000000000000000000000000000602082015250565b7f45524332303a206275726e2066726f6d20746865207a65726f2061646472657360008201527f7300000000000000000000000000000000000000000000000000000000000000602082015250565b7f45524332303a207472616e736665722066726f6d20746865207a65726f20616460008201527f6472657373000000000000000000000000000000000000000000000000000000602082015250565b7f45524332303a20617070726f76652066726f6d20746865207a65726f2061646460008201527f7265737300000000000000000000000000000000000000000000000000000000602082015250565b7f4f6e6c79206f776e65722063616e2075736520746869732066756e6374696f6e600082015250565b7f45524332303a2064656372656173656420616c6c6f77616e63652062656c6f7760008201527f207a65726f000000000000000000000000000000000000000000000000000000602082015250565b7f596f7520617265206e6f74206f776e6572000000000000000000000000000000600082015250565b7f45524332303a206d696e7420746f20746865207a65726f206164647265737300600082015250565b611eea816119a4565b8114611ef557600080fd5b50565b611f01816119e2565b8114611f0c57600080fd5b5056fea264697066735822122024763772857aed203e76ce0d84c87477b0901bd0d294140c9febab74469c162464736f6c63430008040033",
  "linkReferences": {},
  "deployedLinkReferences": {}
}