{
  "_format": "hh-sol-artifact-1",
  "contractName": "CredibilityToken",
  "sourceName": "contracts/CredibillityToken.sol",
  "abi": [
    {
      "inputs": [
        {
          "internalType": "address",
          "name": "_owner",
          "type": "address"
        },
        {
          "internalType": "uint256",
          "name": "_amount",
          "type": "uint256"
        }
      ],
      "stateMutability": "nonpayable",
      "type": "constructor"
    },
    {
      "anonymous": false,
      "inputs": [
        {
          "indexed": true,
          "internalType": "address",
          "name": "owner",
          "type": "address"
        },
        {
          "indexed": true,
          "internalType": "address",
          "name": "spender",
          "type": "address"
        },
        {
          "indexed": false,
          "internalType": "uint256",
          "name": "value",
          "type": "uint256"
        }
      ],
      "name": "Approval",
      "type": "event"
    },
    {
      "anonymous": false,
      "inputs": [
        {
          "indexed": true,
          "internalType": "address",
          "name": "from",
          "type": "address"
        },
        {
          "indexed": true,
          "internalType": "address",
          "name": "to",
          "type": "address"
        },
        {
          "indexed": false,
          "internalType": "uint256",
          "name": "value",
          "type": "uint256"
        }
      ],
      "name": "Transfer",
      "type": "event"
    },
    {
      "inputs": [
        {
          "internalType": "address",
          "name": "owner",
          "type": "address"
        },
        {
          "internalType": "address",
          "name": "spender",
          "type": "address"
        }
      ],
      "name": "allowance",
      "outputs": [
        {
          "internalType": "uint256",
          "name": "",
          "type": "uint256"
        }
      ],
      "stateMutability": "view",
      "type": "function"
    },
    {
      "inputs": [
        {
          "internalType": "address",
          "name": "spender",
          "type": "address"
        },
        {
          "internalType": "uint256",
          "name": "amount",
          "type": "uint256"
        }
      ],
      "name": "approve",
      "outputs": [
        {
          "internalType": "bool",
          "name": "",
          "type": "bool"
        }
      ],
      "stateMutability": "nonpayable",
      "type": "function"
    },
    {
      "inputs": [
        {
          "internalType": "address",
          "name": "account",
          "type": "address"
        }
      ],
      "name": "balanceOf",
      "outputs": [
        {
          "internalType": "uint256",
          "name": "",
          "type": "uint256"
        }
      ],
      "stateMutability": "view",
      "type": "function"
    },
    {
      "inputs": [],
      "name": "decimals",
      "outputs": [
        {
          "internalType": "uint8",
          "name": "",
          "type": "uint8"
        }
      ],
      "stateMutability": "view",
      "type": "function"
    },
    {
      "inputs": [
        {
          "internalType": "address",
          "name": "spender",
          "type": "address"
        },
        {
          "internalType": "uint256",
          "name": "subtractedValue",
          "type": "uint256"
        }
      ],
      "name": "decreaseAllowance",
      "outputs": [
        {
          "internalType": "bool",
          "name": "",
          "type": "bool"
        }
      ],
      "stateMutability": "nonpayable",
      "type": "function"
    },
    {
      "inputs": [
        {
          "internalType": "address",
          "name": "spender",
          "type": "address"
        },
        {
          "internalType": "uint256",
          "name": "addedValue",
          "type": "uint256"
        }
      ],
      "name": "increaseAllowance",
      "outputs": [
        {
          "internalType": "bool",
          "name": "",
          "type": "bool"
        }
      ],
      "stateMutability": "nonpayable",
      "type": "function"
    },
    {
      "inputs": [],
      "name": "name",
      "outputs": [
        {
          "internalType": "string",
          "name": "",
          "type": "string"
        }
      ],
      "stateMutability": "view",
      "type": "function"
    },
    {
      "inputs": [
        {
          "internalType": "uint256",
          "name": "amount",
          "type": "uint256"
        },
        {
          "internalType": "address[]",
          "name": "receiver",
          "type": "address[]"
        }
      ],
      "name": "smartContractMint",
      "outputs": [],
      "stateMutability": "nonpayable",
      "type": "function"
    },
    {
      "inputs": [],
      "name": "symbol",
      "outputs": [
        {
          "internalType": "string",
          "name": "",
          "type": "string"
        }
      ],
      "stateMutability": "view",
      "type": "function"
    },
    {
      "inputs": [],
      "name": "totalSupply",
      "outputs": [
        {
          "internalType": "uint256",
          "name": "",
          "type": "uint256"
        }
      ],
      "stateMutability": "view",
      "type": "function"
    },
    {
      "inputs": [
        {
          "internalType": "address",
          "name": "to",
          "type": "address"
        },
        {
          "internalType": "uint256",
          "name": "amount",
          "type": "uint256"
        }
      ],
      "name": "transfer",
      "outputs": [
        {
          "internalType": "bool",
          "name": "",
          "type": "bool"
        }
      ],
      "stateMutability": "nonpayable",
      "type": "function"
    },
    {
      "inputs": [
        {
          "internalType": "address",
          "name": "from",
          "type": "address"
        },
        {
          "internalType": "address",
          "name": "to",
          "type": "address"
        },
        {
          "internalType": "uint256",
          "name": "amount",
          "type": "uint256"
        }
      ],
      "name": "transferFrom",
      "outputs": [
        {
          "internalType": "bool",
          "name": "",
          "type": "bool"
        }
      ],
      "stateMutability": "nonpayable",
      "type": "function"
    }
  ],
  "bytecode": "0x60806040523480156200001157600080fd5b5060405162001d3538038062001d35833981810160405281019062000037919062000352565b6040518060400160405280601081526020017f437265646962696c697479546f6b656e000000000000000000000000000000008152506040518060400160405280600481526020017f43524544000000000000000000000000000000000000000000000000000000008152508160039080519060200190620000bb92919062000274565b508060049080519060200190620000d492919062000274565b505050620000e98282620000f160201b60201c565b5050620005a7565b600073ffffffffffffffffffffffffffffffffffffffff168273ffffffffffffffffffffffffffffffffffffffff16141562000164576040517f08c379a00000000000000000000000000000000000000000000000000000000081526004016200015b90620003cb565b60405180910390fd5b62000178600083836200026a60201b60201c565b80600260008282546200018c91906200041b565b92505081905550806000808473ffffffffffffffffffffffffffffffffffffffff1673ffffffffffffffffffffffffffffffffffffffff1681526020019081526020016000206000828254620001e391906200041b565b925050819055508173ffffffffffffffffffffffffffffffffffffffff16600073ffffffffffffffffffffffffffffffffffffffff167fddf252ad1be2c89b69c2b068fc378daa952ba7f163c4a11628f55a4df523b3ef836040516200024a9190620003ed565b60405180910390a362000266600083836200026f60201b60201c565b5050565b505050565b505050565b8280546200028290620004b6565b90600052602060002090601f016020900481019282620002a65760008555620002f2565b82601f10620002c157805160ff1916838001178555620002f2565b82800160010185558215620002f2579182015b82811115620002f1578251825591602001919060010190620002d4565b5b50905062000301919062000305565b5090565b5b808211156200032057600081600090555060010162000306565b5090565b600081519050620003358162000573565b92915050565b6000815190506200034c816200058d565b92915050565b600080604083850312156200036657600080fd5b6000620003768582860162000324565b925050602062000389858286016200033b565b9150509250929050565b6000620003a2601f836200040a565b9150620003af826200054a565b602082019050919050565b620003c581620004ac565b82525050565b60006020820190508181036000830152620003e68162000393565b9050919050565b6000602082019050620004046000830184620003ba565b92915050565b600082825260208201905092915050565b60006200042882620004ac565b91506200043583620004ac565b9250827fffffffffffffffffffffffffffffffffffffffffffffffffffffffffffffffff038211156200046d576200046c620004ec565b5b828201905092915050565b600062000485826200048c565b9050919050565b600073ffffffffffffffffffffffffffffffffffffffff82169050919050565b6000819050919050565b60006002820490506001821680620004cf57607f821691505b60208210811415620004e657620004e56200051b565b5b50919050565b7f4e487b7100000000000000000000000000000000000000000000000000000000600052601160045260246000fd5b7f4e487b7100000000000000000000000000000000000000000000000000000000600052602260045260246000fd5b7f45524332303a206d696e7420746f20746865207a65726f206164647265737300600082015250565b6200057e8162000478565b81146200058a57600080fd5b50565b6200059881620004ac565b8114620005a457600080fd5b50565b61177e80620005b76000396000f3fe608060405234801561001057600080fd5b50600436106100b45760003560e01c806370a082311161007157806370a08231146101a3578063943f894b146101d357806395d89b41146101ef578063a457c2d71461020d578063a9059cbb1461023d578063dd62ed3e1461026d576100b4565b806306fdde03146100b9578063095ea7b3146100d757806318160ddd1461010757806323b872dd14610125578063313ce567146101555780633950935114610173575b600080fd5b6100c161029d565b6040516100ce9190611101565b60405180910390f35b6100f160048036038101906100ec9190610ed8565b61032f565b6040516100fe91906110e6565b60405180910390f35b61010f610352565b60405161011c9190611223565b60405180910390f35b61013f600480360381019061013a9190610e89565b61035c565b60405161014c91906110e6565b60405180910390f35b61015d61038b565b60405161016a919061123e565b60405180910390f35b61018d60048036038101906101889190610ed8565b610394565b60405161019a91906110e6565b60405180910390f35b6101bd60048036038101906101b89190610e24565b61043e565b6040516101ca9190611223565b60405180910390f35b6101ed60048036038101906101e89190610f14565b610486565b005b6101f76104f4565b6040516102049190611101565b60405180910390f35b61022760048036038101906102229190610ed8565b610586565b60405161023491906110e6565b60405180910390f35b61025760048036038101906102529190610ed8565b610670565b60405161026491906110e6565b60405180910390f35b61028760048036038101906102829190610e4d565b610693565b6040516102949190611223565b60405180910390f35b6060600380546102ac906113a4565b80601f01602080910402602001604051908101604052809291908181526020018280546102d8906113a4565b80156103255780601f106102fa57610100808354040283529160200191610325565b820191906000526020600020905b81548152906001019060200180831161030857829003601f168201915b5050505050905090565b60008061033a61071a565b9050610347818585610722565b600191505092915050565b6000600254905090565b60008061036761071a565b90506103748582856108ed565b61037f858585610979565b60019150509392505050565b60006012905090565b60008061039f61071a565b9050610433818585600160008673ffffffffffffffffffffffffffffffffffffffff1673ffffffffffffffffffffffffffffffffffffffff16815260200190815260200160002060008973ffffffffffffffffffffffffffffffffffffffff1673ffffffffffffffffffffffffffffffffffffffff1681526020019081526020016000205461042e91906112c6565b610722565b600191505092915050565b60008060008373ffffffffffffffffffffffffffffffffffffffff1673ffffffffffffffffffffffffffffffffffffffff168152602001908152602001600020549050919050565b60005b81518110156104ef576104dc8282815181106104ce577f4e487b7100000000000000000000000000000000000000000000000000000000600052603260045260246000fd5b602002602001015184610bfa565b80806104e790611407565b915050610489565b505050565b606060048054610503906113a4565b80601f016020809104026020016040519081016040528092919081815260200182805461052f906113a4565b801561057c5780601f106105515761010080835404028352916020019161057c565b820191906000526020600020905b81548152906001019060200180831161055f57829003601f168201915b5050505050905090565b60008061059161071a565b90506000600160008373ffffffffffffffffffffffffffffffffffffffff1673ffffffffffffffffffffffffffffffffffffffff16815260200190815260200160002060008673ffffffffffffffffffffffffffffffffffffffff1673ffffffffffffffffffffffffffffffffffffffff16815260200190815260200160002054905083811015610657576040517f08c379a000000000000000000000000000000000000000000000000000000000815260040161064e906111e3565b60405180910390fd5b6106648286868403610722565b60019250505092915050565b60008061067b61071a565b9050610688818585610979565b600191505092915050565b6000600160008473ffffffffffffffffffffffffffffffffffffffff1673ffffffffffffffffffffffffffffffffffffffff16815260200190815260200160002060008373ffffffffffffffffffffffffffffffffffffffff1673ffffffffffffffffffffffffffffffffffffffff16815260200190815260200160002054905092915050565b600033905090565b600073ffffffffffffffffffffffffffffffffffffffff168373ffffffffffffffffffffffffffffffffffffffff161415610792576040517f08c379a0000000000000000000000000000000000000000000000000000000008152600401610789906111c3565b60405180910390fd5b600073ffffffffffffffffffffffffffffffffffffffff168273ffffffffffffffffffffffffffffffffffffffff161415610802576040517f08c379a00000000000000000000000000000000000000000000000000000000081526004016107f990611143565b60405180910390fd5b80600160008573ffffffffffffffffffffffffffffffffffffffff1673ffffffffffffffffffffffffffffffffffffffff16815260200190815260200160002060008473ffffffffffffffffffffffffffffffffffffffff1673ffffffffffffffffffffffffffffffffffffffff168152602001908152602001600020819055508173ffffffffffffffffffffffffffffffffffffffff168373ffffffffffffffffffffffffffffffffffffffff167f8c5be1e5ebec7d5bd14f71427d1e84f3dd0314c0f7b2291e5b200ac8c7c3b925836040516108e09190611223565b60405180910390a3505050565b60006108f98484610693565b90507fffffffffffffffffffffffffffffffffffffffffffffffffffffffffffffffff81146109735781811015610965576040517f08c379a000000000000000000000000000000000000000000000000000000000815260040161095c90611163565b60405180910390fd5b6109728484848403610722565b5b50505050565b600073ffffffffffffffffffffffffffffffffffffffff168373ffffffffffffffffffffffffffffffffffffffff1614156109e9576040517f08c379a00000000000000000000000000000000000000000000000000000000081526004016109e0906111a3565b60405180910390fd5b600073ffffffffffffffffffffffffffffffffffffffff168273ffffffffffffffffffffffffffffffffffffffff161415610a59576040517f08c379a0000000000000000000000000000000000000000000000000000000008152600401610a5090611123565b60405180910390fd5b610a64838383610d5a565b60008060008573ffffffffffffffffffffffffffffffffffffffff1673ffffffffffffffffffffffffffffffffffffffff16815260200190815260200160002054905081811015610aea576040517f08c379a0000000000000000000000000000000000000000000000000000000008152600401610ae190611183565b60405180910390fd5b8181036000808673ffffffffffffffffffffffffffffffffffffffff1673ffffffffffffffffffffffffffffffffffffffff16815260200190815260200160002081905550816000808573ffffffffffffffffffffffffffffffffffffffff1673ffffffffffffffffffffffffffffffffffffffff1681526020019081526020016000206000828254610b7d91906112c6565b925050819055508273ffffffffffffffffffffffffffffffffffffffff168473ffffffffffffffffffffffffffffffffffffffff167fddf252ad1be2c89b69c2b068fc378daa952ba7f163c4a11628f55a4df523b3ef84604051610be19190611223565b60405180910390a3610bf4848484610d5f565b50505050565b600073ffffffffffffffffffffffffffffffffffffffff168273ffffffffffffffffffffffffffffffffffffffff161415610c6a576040517f08c379a0000000000000000000000000000000000000000000000000000000008152600401610c6190611203565b60405180910390fd5b610c7660008383610d5a565b8060026000828254610c8891906112c6565b92505081905550806000808473ffffffffffffffffffffffffffffffffffffffff1673ffffffffffffffffffffffffffffffffffffffff1681526020019081526020016000206000828254610cdd91906112c6565b925050819055508173ffffffffffffffffffffffffffffffffffffffff16600073ffffffffffffffffffffffffffffffffffffffff167fddf252ad1be2c89b69c2b068fc378daa952ba7f163c4a11628f55a4df523b3ef83604051610d429190611223565b60405180910390a3610d5660008383610d5f565b5050565b505050565b505050565b6000610d77610d728461127e565b611259565b90508083825260208201905082856020860282011115610d9657600080fd5b60005b85811015610dc65781610dac8882610dd0565b845260208401935060208301925050600181019050610d99565b5050509392505050565b600081359050610ddf8161171a565b92915050565b600082601f830112610df657600080fd5b8135610e06848260208601610d64565b91505092915050565b600081359050610e1e81611731565b92915050565b600060208284031215610e3657600080fd5b6000610e4484828501610dd0565b91505092915050565b60008060408385031215610e6057600080fd5b6000610e6e85828601610dd0565b9250506020610e7f85828601610dd0565b9150509250929050565b600080600060608486031215610e9e57600080fd5b6000610eac86828701610dd0565b9350506020610ebd86828701610dd0565b9250506040610ece86828701610e0f565b9150509250925092565b60008060408385031215610eeb57600080fd5b6000610ef985828601610dd0565b9250506020610f0a85828601610e0f565b9150509250929050565b60008060408385031215610f2757600080fd5b6000610f3585828601610e0f565b925050602083013567ffffffffffffffff811115610f5257600080fd5b610f5e85828601610de5565b9150509250929050565b610f718161132e565b82525050565b6000610f82826112aa565b610f8c81856112b5565b9350610f9c818560208601611371565b610fa5816114dd565b840191505092915050565b6000610fbd6023836112b5565b9150610fc8826114ee565b604082019050919050565b6000610fe06022836112b5565b9150610feb8261153d565b604082019050919050565b6000611003601d836112b5565b915061100e8261158c565b602082019050919050565b60006110266026836112b5565b9150611031826115b5565b604082019050919050565b60006110496025836112b5565b915061105482611604565b604082019050919050565b600061106c6024836112b5565b915061107782611653565b604082019050919050565b600061108f6025836112b5565b915061109a826116a2565b604082019050919050565b60006110b2601f836112b5565b91506110bd826116f1565b602082019050919050565b6110d18161135a565b82525050565b6110e081611364565b82525050565b60006020820190506110fb6000830184610f68565b92915050565b6000602082019050818103600083015261111b8184610f77565b905092915050565b6000602082019050818103600083015261113c81610fb0565b9050919050565b6000602082019050818103600083015261115c81610fd3565b9050919050565b6000602082019050818103600083015261117c81610ff6565b9050919050565b6000602082019050818103600083015261119c81611019565b9050919050565b600060208201905081810360008301526111bc8161103c565b9050919050565b600060208201905081810360008301526111dc8161105f565b9050919050565b600060208201905081810360008301526111fc81611082565b9050919050565b6000602082019050818103600083015261121c816110a5565b9050919050565b600060208201905061123860008301846110c8565b92915050565b600060208201905061125360008301846110d7565b92915050565b6000611263611274565b905061126f82826113d6565b919050565b6000604051905090565b600067ffffffffffffffff821115611299576112986114ae565b5b602082029050602081019050919050565b600081519050919050565b600082825260208201905092915050565b60006112d18261135a565b91506112dc8361135a565b9250827fffffffffffffffffffffffffffffffffffffffffffffffffffffffffffffffff0382111561131157611310611450565b5b828201905092915050565b60006113278261133a565b9050919050565b60008115159050919050565b600073ffffffffffffffffffffffffffffffffffffffff82169050919050565b6000819050919050565b600060ff82169050919050565b60005b8381101561138f578082015181840152602081019050611374565b8381111561139e576000848401525b50505050565b600060028204905060018216806113bc57607f821691505b602082108114156113d0576113cf61147f565b5b50919050565b6113df826114dd565b810181811067ffffffffffffffff821117156113fe576113fd6114ae565b5b80604052505050565b60006114128261135a565b91507fffffffffffffffffffffffffffffffffffffffffffffffffffffffffffffffff82141561144557611444611450565b5b600182019050919050565b7f4e487b7100000000000000000000000000000000000000000000000000000000600052601160045260246000fd5b7f4e487b7100000000000000000000000000000000000000000000000000000000600052602260045260246000fd5b7f4e487b7100000000000000000000000000000000000000000000000000000000600052604160045260246000fd5b6000601f19601f8301169050919050565b7f45524332303a207472616e7366657220746f20746865207a65726f206164647260008201527f6573730000000000000000000000000000000000000000000000000000000000602082015250565b7f45524332303a20617070726f766520746f20746865207a65726f20616464726560008201527f7373000000000000000000000000000000000000000000000000000000000000602082015250565b7f45524332303a20696e73756666696369656e7420616c6c6f77616e6365000000600082015250565b7f45524332303a207472616e7366657220616d6f756e742065786365656473206260008201527f616c616e63650000000000000000000000000000000000000000000000000000602082015250565b7f45524332303a207472616e736665722066726f6d20746865207a65726f20616460008201527f6472657373000000000000000000000000000000000000000000000000000000602082015250565b7f45524332303a20617070726f76652066726f6d20746865207a65726f2061646460008201527f7265737300000000000000000000000000000000000000000000000000000000602082015250565b7f45524332303a2064656372656173656420616c6c6f77616e63652062656c6f7760008201527f207a65726f000000000000000000000000000000000000000000000000000000602082015250565b7f45524332303a206d696e7420746f20746865207a65726f206164647265737300600082015250565b6117238161131c565b811461172e57600080fd5b50565b61173a8161135a565b811461174557600080fd5b5056fea26469706673582212202fed419b2c6b3e534de92e4db88fe3463da7ef8dc8c8730f6e9d6b946e042c6764736f6c63430008040033",
  "linkReferences": {},
  "deployedLinkReferences": {}
}